:100000000C9435010C9466010C9466010C94660105
:100010000C9466010C9466010C9466010C946601C4
:100020000C9466010C9466010C9466010C946601B4
:100030000C9466010C9466010C9466010C946601A4
:100040000C9466010C9466010C9466010C94660194
:100050000C9466010C9466010C9466010C947C056A
:100060000C9466010C9446050C941C050C946601D6
:100070000C9466010C9466010C9466010C94660164
:100080000C9466010C9466010C9466010C94660154
:100090000C9466010C9466010C9466010C94660144
:1000A0000C9466010C9466010C9466010C94660134
:1000B0000C9466010C9466010C9466010C94660124
:1000C0000C9466010C9466010C9466010C94660114
:1000D0000C9466010C9466010C9466010C94660104
:1000E0000C9466010C94C6050C9487010C941403BF
:1000F0000C94F4020C9406030C941E030C94D90285
:100100000C9402030C94DF020C94E7020C94EB02B3
:100110000C94E3020C9419030C941D020C94D70167
:100120000C946A020C941A030C94B4010C940C0302
:100130000C94FE020C94C3010C94F8020C9410036E
:100140000C94E5010C94EE02000020002300260030
:1001500029002C002F0032000001000003010601DD
:10016000090100000A0B02090C0D0E080703040127
:10017000000000000000000000000000000000007F
:10018000000000000000000000000000000012114C
:10019000100000000000000000000000000000004F
:1001A00000000000000000000000220025002800E0
:1001B0002B002E003100340002010000050108016F
:1001C0000B0100002100240027002A002D00300030
:1001D000330001010000040107010A0105050505BE
:1001E000070508080808020202020A0A08080404AF
:1001F00004040101010101010101030303030303DD
:100200000303040707070C0C0C0C0C0C0C0C02026B
:10021000020206060606060606060B0B0B0B0B0B68
:100220000B0B0102102020080810204010204080F5
:1002300002010201080402010102040810204080AA
:100240008040201008040201800402018040201038
:100250000804020108040201010204081020408081
:100260000102040810204080C60511241FBECFEFF4
:10027000D1E2DEBFCDBF00E00CBF12E0A0E0B2E0F3
:10028000E0E7F2E100E00BBF02C007900D92AC3155
:10029000B107D9F723E0ACE1B2E001C01D92AC3E5A
:1002A000B207E1F711E0C5E3D1E000E006C0219715
:1002B0000109802FFE010E942E09C433D10780E07E
:1002C0000807A9F70E9477060C9436090C940000E1
:1002D00090E0FC01EE5DFD4F249184529E4FFC01A5
:1002E0008491882399F090E0880F991FFC01EE53C8
:1002F000FE4FA591B491FC01E855FE4F8591949174
:100300008FB7F894EC91E22BEC938FBF0895AF92E6
:10031000BF92CF92DF92EF92FF920F931F93CF93F2
:10032000DF936C017B018B01040F151FEB015E0154
:10033000AE18BF08C017D10759F06991D601ED91E9
:10034000FC910190F081E02DC6011995892B79F778
:10035000C501DF91CF911F910F91FF90EF90DF903A
:10036000CF90BF90AF900895FC01538D448D252F01
:1003700030E0842F90E0821B930B541710F0CF963F
:10038000089501970895FC01918D828D981761F071
:10039000A28DAE0FBF2FB11D5D968C91928D9F5F88
:1003A0009F73928F90E008958FEF9FEF0895FC0167
:1003B000918D828D981731F0828DE80FF11D858D1A
:1003C00090E008958FEF9FEF0895FC01918D228DAD
:1003D000892F90E0805C9F4F821B91098F73992732
:1003E000089587EF92E00E94E50121E0892B09F44E
:1003F00020E0822F0895FC01A48DA80FB92FB11D14
:10040000A35ABF4F2C91848D90E001968F7399274A
:10041000848FA689B7892C93A089B1898C91837028
:1004200080648C93938D848D981306C00288F38921
:10043000E02D80818F7D80830895EF92FF920F934E
:100440001F93CF93DF93EC0181E0888F9B8D8C8D80
:1004500098131AC0E889F989808185FF15C09FB774
:10046000F894EE89FF896083E889F9898081837037
:10047000806480839FBF81E090E0DF91CF911F91E6
:100480000F91FF90EF900895F62E0B8D10E00F5F07
:100490001F4F0F731127E02E8C8D8E110CC00FB6DD
:1004A00007FCFACFE889F989808185FFF5CFCE0175
:1004B0000E94FB01F1CFEB8DEC0FFD2FF11DE35AF4
:1004C000FF4FF0829FB7F8940B8FEA89FB898081F8
:1004D0008062CFCFCF93DF93EC01888D8823B9F072
:1004E000AA89BB89E889F9898C9185FD03C080813F
:1004F00086FD0DC00FB607FCF7CF8C9185FFF2CFBC
:10050000808185FFEDCFCE010E94FB01E9CFDF9115
:10051000CF91089580E090E0892B29F00E94F101AD
:1005200081110E94000080E090E0892B49F080E07A
:1005300090E0892B29F00E94000081110E940000A8
:1005400080E090E0892B49F080E090E0892B29F051
:100550000E94000081110E94000080E090E0892B41
:1005600049F080E090E0892B29F00E940000811181
:100570000C94000008958150823108F05AC0E82F91
:10058000F0E08827E953FD4F8F4F0C942E09E702C6
:10059000EB02D902DF02E3021903EE02F402F802D1
:1005A000FE02020306030C031003190314031A03CB
:1005B0001E03809180008F77809380000895809142
:1005C00080008F7DF9CF80918000877FF5CF84B543
:1005D0008F7784BD089584B58F7DFBCF8091B00067
:1005E0008F778093B00008958091B0008F7DF9CF10
:1005F000809190008F778093900008958091900073
:100600008F7DF9CF80919000877FF5CF8091A000FA
:100610008F778093A00008958091A0008F7DF9CFFF
:100620008091A000877FF5CF809120018F77809304
:1006300020010895809120018F7DF9CF80912001C4
:10064000877FF5CFCF93DF93282F30E0F901EE5964
:10065000FE4F8491F901EE5DFD4FD491F901E45212
:10066000FE4FC491CC23A1F081110E94BB02EC2F5C
:10067000F0E0EE0FFF1FE85BFE4FA591B491EC9107
:10068000ED2381E090E009F480E0DF91CF910895BF
:1006900080E090E0FACF1F93CF93DF93282F30E0D4
:1006A000F901EE59FE4F8491F901EE5DFD4FD491B1
:1006B000F901E452FE4FC491CC23A9F0162F811109
:1006C0000E94BB02EC2FF0E0EE0FFF1FE855FE4F3B
:1006D000A591B4918FB7F894EC91111108C0D09501
:1006E000DE23DC938FBFDF91CF911F910895DE2B26
:1006F000F8CF3FB7F8948091210290912202A09107
:100700002302B091240226B5A89B05C02F3F19F003
:100710000196A11DB11D3FBFBA2FA92F982F882781
:10072000BC01CD01620F711D811D911D42E0660F5C
:10073000771F881F991F4A95D1F708958F929F922E
:10074000AF92BF92CF92DF92EF92FF924B015C018A
:100750000E9479036B017C010E9479036C197D0969
:100760008E099F09683E734081059105A8F321E039
:10077000821A9108A108B10888EEC80E83E0D81E3D
:10078000E11CF11C81149104A104B10429F7FF902C
:10079000EF90DF90CF90BF90AF909F908F90089593
:1007A0002FB7F89460911D0270911E0280911F0274
:1007B000909120022FBF089523E0880F991F2A955A
:1007C000E1F7DC01AB5DBD4F88E0E1E0F2E00190D4
:1007D0000D928A95E1F70895CF92DF92EF92FF9202
:1007E0000F931F93CF93DF931F921F92CDB7DEB766
:1007F00069834A83880F991F0091EA031091EB03E4
:10080000000F111FE4E9F3E09F0124593340201742
:10081000310714F41192F8CF2981FC01EC56FC4FFA
:1008200021838A81808360E08091E8030E944B03EA
:100830001016110604F501501109F801EC56FC4F91
:10084000E080D090E603C090E40388E0F82E6E2D9F
:10085000661F6627661F8C2D0E944B03EE0C61E01D
:100860008D2D0E944B0360E08D2D0E944B03FA9466
:10087000F110EDCFDDCF61E08091E8030F900F9094
:10088000DF91CF911F910F91FF90EF90DF90CF906C
:100890000C944B03EF92FF920F931F93CF937C0125
:1008A0008C0183E0000F111F8A95E1F70C551C4F56
:1008B000C1E0F80111928F0140E06C2FC7010E9446
:1008C000EC03CF5FC930A9F7CF911F910F91FF9033
:1008D000EF9008953F924F925F926F927F928F9226
:1008E0009F92AF92BF92CF92DF92EF92FF920F93BF
:1008F0001F93CF93DF937C0110E000E027E0C22E2E
:10090000D12C30E8632E712C48E0442E08301105BC
:100910000CF047C090E2B92EB00E61E08B2D0E9422
:100920004B03C7E0D0E08C2F8A5EF701208130E0D6
:100930000C2E02C0359527950A94E2F760E020FF5F
:1009400061E00E944B03219770F765E070E080E062
:1009500090E00E949E0360E08B2D0E944B03C6E155
:1009600061E08C2F0E944B03CF5FCE31C9F70F5F40
:100970001F4FEFEFEE1AFE0A0031110539F6DF9135
:10098000CF911F910F91FF90EF90DF90CF90BF908C
:10099000AF909F908F907F906F905F904F903F901F
:1009A00008958091EA039091EB0318161906C4F597
:1009B00098E0C916D104A0F5F701A080C3010C2C62
:1009C00002C0959587950A94E2F7382E582E5094D8
:1009D000C4E9D3E087E0882E912CB12C8091EA0302
:1009E0009091EB03181619069CF488899501082C40
:1009F00002C0359527950A94E2F720FF1BC0832992
:100A0000888B4889642D681990E080E00E94EC038F
:100A1000F1E08F1A910821968FEF88169806F1F66B
:100A200065E070E080E090E00E949E0391E0C91ACA
:100A3000D1089DCF8521E4CF1F920F920FB60F9260
:100A400011240BB60F922F933F934F935F936F93A5
:100A50007F938F939F93AF93BF93EF93FF9387EF12
:100A600092E00E94FB01FF91EF91BF91AF919F91A6
:100A70008F917F916F915F914F913F912F910F9047
:100A80000BBE0F900FBE0F901F9018951F920F92E4
:100A90000FB60F9211240BB60F922F938F939F9343
:100AA000EF93FF93E0910703F09108038081E091B9
:100AB0000D03F0910E0382FD1DC090818091100303
:100AC0008F5F8F7320911103821741F0E091100323
:100AD000F0E0E950FD4F958F80931003FF91EF9167
:100AE0009F918F912F910F900BBE0F900FBE0F9083
:100AF0001F9018958081F2CF1F920F920FB60F9220
:100B000011242F933F938F939F93AF93BF93809123
:100B10001D0290911E02A0911F02B09120023091FF
:100B20001C0223E0230F2D3758F50196A11DB11D9E
:100B300020931C0280931D0290931E02A0931F021B
:100B4000B09320028091210290912202A091230271
:100B5000B09124020196A11DB11D809321029093B2
:100B60002202A0932302B0932402BF91AF919F91E0
:100B70008F913F912F910F900FBE0F901F9018955E
:100B800026E8230F0296A11DB11DD2CFCF93DF938C
:100B90001092FA021092F90288EE93E0A0E0B0E021
:100BA0008093FB029093FC02A093FD02B093FE029F
:100BB0008DE092E09093F8028093F70285EC90E04C
:100BC000909304038093030384EC90E090930603D6
:100BD0008093050380EC90E09093080380930703D3
:100BE00081EC90E090930A038093090382EC90E0FB
:100BF00090930C0380930B0386EC90E090930E038C
:100C000080930D031092100310921103109212039F
:100C100010921303C3E3D0E0D093E503C093E40341
:100C200084E390E09093E7038093E60385E390E00C
:100C30009093E9038093E80381E090E09093EB03C5
:100C40008093EA0383E30E9468018091E6030E9497
:100C500068018091E8030E94680161E08091E803E7
:100C60000E944B03D093E503C093E403E4EAF3E06E
:100C7000119283E0E43EF807D9F7D0E0C0E080911C
:100C8000EA039091EB03C817D90774F540E06FE0D1
:100C9000CE010E94EC038091EA039091EB03C81708
:100CA000D9072CF447E06BE0CE010E94EC0340E052
:100CB00069E0CE010E94EC038091EA039091EB037E
:100CC000C817D9071CF4CE010E944A048091EA0398
:100CD0009091EB03C817D9072CF440E06CE0CE01EB
:100CE0000E94EC032196CBCFDF91CF910895CF9353
:100CF000DF93CDB7DEB768970FB6F894DEBF0FBEAF
:100D0000CDBF789484B5826084BD84B5816084BD94
:100D100085B5826085BD85B5816085BD80916E0099
:100D2000816080936E0010928100809181008260CA
:100D30008093810080918100816080938100809107
:100D400080008160809380008091B10084608093F6
:100D5000B1008091B00081608093B00080919100DB
:100D600082608093910080919100816080939100D6
:100D7000809190008160809390008091A1008260BA
:100D80008093A1008091A10081608093A100809157
:100D9000A00081608093A0008091210182608093F7
:100DA00021018091210181608093210180912001A6
:100DB00081608093200180917A00846080937A0022
:100DC00080917A00826080937A0080917A008160BD
:100DD00080937A0080917A00806880937A001092E4
:100DE000C100E0910703F091080382E08083E09165
:100DF0000303F09104031082E0910503F0910603D0
:100E00008FEC808310920F03E0910B03F0910C03A1
:100E100086E08083E0910903F0910A03808180617C
:100E20008083E0910903F0910A03808188608083C8
:100E3000E0910903F0910A03808180688083E0914A
:100E40000903F0910A0380818F7D808316E1812F51
:100E50000E9468011F5F1E31D1F710E2812F0E94AE
:100E600068011F5F1832D1F78091EA039091EB037C
:100E70001816190634F441E06CE090E080E00E941E
:100E8000EC038091EA039091EB031816190634F4F1
:100E90004FE06AE090E080E00E94EC038091EA037A
:100EA0009091EB031816190624F490E080E00E945C
:100EB0004A0481E08093000285EC92E00E946A047B
:100EC00083E090E09093E6028093E50282E390E075
:100ED0009093E8028093E70288EC90E09093EA0216
:100EE0008093E90210E000E0C8010E94DC030F5F7C
:100EF0001F4F04311105C1F730E4232E312C40EE91
:100F0000442E512C50E8A52EB12C6FE0662E712C8A
:100F100072E0872E912C80910002811186C188E3B6
:100F20000E9422030197C9F58091E5029091E602A3
:100F300002979CF10E94D0030091EF021091F00201
:100F40002091F1023091F202AB01BC01401B510B28
:100F5000620B730B8091E7029091E802092E000C5E
:100F6000AA0BBB0B84179507A607B707B0F48091AF
:100F7000E5029091E602823091052CF00197909362
:100F8000E6028093E5020E94D0036093EF02709323
:100F9000F0028093F1029093F20289E30E9422030F
:100FA0000197C9F58091E5029091E60206979CF5BC
:100FB0000E94D0030091EF021091F0022091F10203
:100FC0003091F202AB01BC01401B510B620B730B61
:100FD0008091E7029091E802092E000CAA0BBB0B4E
:100FE00084179507A607B707B0F48091E5029091A2
:100FF000E602863091052CF401969093E6028093E8
:10100000E5020E94D0036093EF027093F002809398
:10101000F1029093F20286E30E942203019709F005
:1010200042C00E94D0030091F3021091F40220917B
:10103000F5023091F602AB01BC01401B510B620B73
:10104000730B8091E9029091EA02092E000CAA0B21
:10105000BB0B84179507A607B70728F5E5E2F2E072
:1010600010E000E080819181892B69F48281938175
:10107000892B49F484819581A681B781892B8A2B9C
:101080008B2B09F45EC00F5F1F4F3896043111059A
:1010900049F70E94D0036093F3027093F4028093A7
:1010A000F5029093F60280E1E5ECF2E0A5EDB2E006
:1010B00001900D928A95E1F78091E5029091E60208
:1010C00001979101082E02C0359527950A94E2F701
:1010D0002093E302920102C0359527958A95E2F7A5
:1010E0002093E40285ED92E00E946A0405E212E09A
:1010F000D12CC12C88E0F801DE01519601900D92AF
:101100008A95E1F7F801E280F380608171816115D1
:10111000710571F5E114F10459F58D899E89AF8946
:10112000B88D892B8A2B8B2B39F5FFEFCF1ADF0A6D
:10113000085F1F4F24E1C216D104E1F60E948A0223
:10114000EACEE090E502F090E6020E94D00323E0B0
:10115000000F111F2A95E1F7F801EB5DFD4FF182B9
:10116000E08293828282648375838683978391CFA2
:10117000F8E0EF16F104ACF58091EA039091EB03EF
:1011800018161906B4F46830710598F4F7FC11C00C
:10119000C50102C095958795EA94E2F7FB01EC56EC
:1011A000FC4F4089482B408B6F5F90E080E00E94AD
:1011B000EC03F801828193810196938382830E94DC
:1011C000D003F8012481358146815781DC01CB01B0
:1011D000820F931FA41FB51F84839583A683B783B3
:1011E000A4CF80E1E5EDF2E0DE01119601900D92D1
:1011F0008A95E1F7F301EE19FF0921E030E02C0FA9
:101200003D1FE20FF31FC50102C0959587956A95B2
:10121000E2F78083C9010E946A0430E1E316F10419
:1012200044F2C6010E94DC0380CF88E30E942203BF
:10123000019749F4109200026AEF70E080E090E0BC
:101240000E949E037BCF89E30E942203019791F3C2
:1012500086E30E942203019769F3EECFEE0FFF1F92
:10126000881F8BBF0790F691E02D1994F894FFCF5B
:10127000010000000000000000000000001D0287C7
:0C12800001B4016A02E501C301D70100BE
:00000001FF
