:100000000C9428010C9459010C9459010C94590139
:100010000C9459010C9459010C9459010C945901F8
:100020000C9459010C9459010C9459010C945901E8
:100030000C9459010C9459010C9459010C945901D8
:100040000C9459010C9459010C9459010C945901C8
:100050000C9459010C9459010C9459010C945504B9
:100060000C9459010C941F040C94F5030C94590141
:100070000C9459010C9459010C9459010C94590198
:100080000C9459010C9459010C9459010C94590188
:100090000C9459010C9459010C9459010C94590178
:1000A0000C9459010C9459010C9459010C94590168
:1000B0000C9459010C9459010C9459010C94590158
:1000C0000C9459010C9459010C9459010C94590148
:1000D0000C9459010C9459010C9459010C94590138
:1000E0000C9459010C949F040C94A7010C943003B8
:1000F0000C9418030C945D020C94CA010C940E032A
:100100000C94E3020C941C030C9404030C94100252
:100110000C9401030C9422030C9434030C94F50208
:100120000C9414030C94FD020C94DE020C942A032C
:100130000C9426030C947A010C94B6010C940A03D7
:100140000C94D8010C94F90200000A0B02090C0D62
:100150000E0807030401000000000000000000007A
:10016000000000000000000000000000000000008F
:10017000000000001211100000000000000000004C
:10018000000000000000000000000000000000006F
:100190002200250028002B002E003100340002012F
:1001A0000000050108010B010000210024002700C8
:1001B0002A002D0030003300010100000401070176
:1001C0000A010505050507050808080802020202DC
:1001D0000A0A0808040404040101010101010101E3
:1001E0000303030303030303040707070C0C0C0CAE
:1001F0000C0C0C0C02020202060606060606060697
:100200000B0B0B0B0B0B0B0B010210202008081023
:100210002040102040800201020108040201010276
:10022000040810204080804020100804020180044F
:1002300002018040201008040201080402010102AA
:1002400004081020408001020408102040809F0410
:1002500011241FBECFEFD1E2DEBFCDBF00E00CBF47
:1002600012E0A0E0B2E0ECE9FDE000E00BBF02C06C
:1002700007900D92A232B107D9F723E0A2E2B2E0D3
:1002800001C01D92A032B207E1F711E0C8E2D1E04F
:1002900000E006C021970109802FFE010E94C406DC
:1002A000C732D10780E00807A9F70E9450050C94D7
:1002B000CC060C94000090E0FC01E85FFD4F249117
:1002C0008E539E4FFC018491882399F090E0880F13
:1002D000991FFC01E855FE4FA591B491FC01E2572E
:1002E000FE4F859194918FB7F894EC91E22BEC93AB
:1002F0008FBF0895AF92BF92CF92DF92EF92FF929D
:100300000F931F93CF93DF936C017B018B01040F3D
:10031000151FEB015E01AE18BF08C017D10759F0D9
:100320006991D601ED91FC910190F081E02DC6011B
:100330001995892B79F7C501DF91CF911F910F9105
:10034000FF90EF90DF90CF90BF90AF900895FC01A9
:10035000538D448D252F30E0842F90E0821B930B2A
:10036000541710F0CF96089501970895FC01918DD0
:10037000828D981761F0A28DAE0FBF2FB11D5D96D3
:100380008C91928D9F5F9F73928F90E008958FEF75
:100390009FEF0895FC01918D828D981731F0828D29
:1003A000E80FF11D858D90E008958FEF9FEF089580
:1003B000FC01918D228D892F90E0805C9F4F821BE4
:1003C00091098F73992708958BE292E00E94D801DA
:1003D00021E0892B09F420E0822F0895FC01A48DEF
:1003E000A80FB92FB11DA35ABF4F2C91848D90E057
:1003F00001968F739927848FA689B7892C93A0893A
:10040000B1898C91837080648C93938D848D9813C3
:1004100006C00288F389E02D80818F7D8083089556
:10042000EF92FF920F931F93CF93DF93EC0181E044
:10043000888F9B8D8C8D98131AC0E889F9898081EB
:1004400085FF15C09FB7F894EE89FF896083E8891E
:10045000F98980818370806480839FBF81E090E010
:10046000DF91CF911F910F91FF90EF900895F62E9D
:100470000B8D10E00F5F1F4F0F731127E02E8C8D37
:100480008E110CC00FB607FCFACFE889F98980817C
:1004900085FFF5CFCE010E94EE01F1CFEB8DEC0F81
:1004A000FD2FF11DE35AFF4FF0829FB7F8940B8F99
:1004B000EA89FB8980818062CFCFCF93DF93EC0103
:1004C000888D8823B9F0AA89BB89E889F9898C913C
:1004D00085FD03C0808186FD0DC00FB607FCF7CFF8
:1004E0008C9185FFF2CF808185FFEDCFCE010E94F8
:1004F000EE01E9CFDF91CF91089580E090E0892B64
:1005000029F00E94E40181110E94000080E090E047
:10051000892B49F080E090E0892B29F00E940000AF
:1005200081110E94000080E090E0892B49F080E07A
:1005300090E0892B29F00E94000081110E940000A8
:1005400080E090E0892B49F080E090E0892B29F051
:100550000E94000081110C9400000895282F30E0C3
:10056000F901E85BFE4F9491F901E85FFD4F44917A
:100570002E533E4FF9012491222309F435C09923CB
:1005800011F191509231F8F4E92FF0E08827E4530B
:10059000FD4F8F4F0C94C406FD020103DE02F502ED
:1005A000F902E30204030A030E03140318031C03F5
:1005B00022032603E3022A033003340380918000E0
:1005C0008F7780938000E22FF0E0EE0FFF1FE2575D
:1005D000FE4FA591B4918FB7F894EC91611148C08A
:1005E00040954E234C938FBF0895809180008F7D5E
:1005F000E8CF80918000877FE4CF84B58F7784BD7A
:10060000E2CF84B58F7DFBCF8091B0008F77809350
:10061000B000D9CF8091B0008F7DF9CF809190004C
:100620008F7780939000CFCF809190008F7DF9CF0E
:1006300080919000877FF5CF8091A0008F77809385
:10064000A000C1CF8091A0008F7DF9CF8091A00044
:10065000877FF5CF809120018F7780932001B3CFE2
:10066000809120018F7DF9CF80912001877FF5CF88
:100670004E2BB8CF3FB7F894809127029091280273
:10068000A0912902B0912A0226B5A89B05C02F3F50
:1006900019F00196A11DB11D3FBFBA2FA92F982FA8
:1006A0008827BC01CD01620F711D811D911D42E0A3
:1006B000660F771F881F991F4A95D1F70895CF922B
:1006C000DF92EF92FF920E943A036B017C010E943D
:1006D0003A036C197D098E099F09683E73408105B4
:1006E0009105A8F3FF90EF90DF90CF900895CF92FF
:1006F000DF92EF92FF920F931F93CF93DF931F929E
:100700001F92CDB7DEB769834A83880F991F009186
:100710001E0310911F03000F111FE8ECF2E09F0170
:10072000285C32402017310714F41192F8CF298148
:10073000FC01E853FD4F21838A81808360E0809132
:100740001C030E94AE021016110604F50150110997
:10075000F801E853FD4FE080D0901A03C0901803D1
:1007600088E0F82E6E2D661F6627661F8C2D0E946E
:10077000AE02EE0C61E08D2D0E94AE0260E08D2D88
:100780000E94AE02FA94F110EDCFDDCF61E08091CE
:100790001C030F900F90DF91CF911F910F91FF904D
:1007A000EF90DF90CF900C94AE02EF92FF920F93F8
:1007B0001F93CF937C018C0183E0000F111F8A955A
:1007C000E1F708521D4FC1E0F80111928F0140E09E
:1007D0006C2FC7010E947703CF5FC930A9F7CF9173
:1007E0001F910F91FF90EF9008951F920F920FB6F7
:1007F0000F9211240BB60F922F933F934F935F9359
:100800006F937F938F939F93AF93BF93EF93FF93D8
:100810008BE292E00E94EE01FF91EF91BF91AF91C8
:100820009F918F917F916F915F914F913F912F9108
:100830000F900BBE0F900FBE0F901F9018951F9238
:100840000F920FB60F9211240BB60F922F938F9326
:100850009F93EF93FF93E0913B02F0913C028081E4
:10086000E0914102F091420282FD1DC09081809191
:1008700044028F5F8F7320914502821741F0E0910F
:100880004402F0E0E55DFD4F958F80934402FF91B7
:10089000EF919F918F912F910F900BBE0F900FBEF4
:1008A0000F901F9018958081F2CF1F920F920FB674
:1008B0000F9211242F933F938F939F93AF93BF93E6
:1008C0008091230290912402A0912502B0912602EA
:1008D0003091220223E0230F2D3758F50196A11DF8
:1008E000B11D209322028093230290932402A093AF
:1008F0002502B09326028091270290912802A091B0
:100900002902B0912A020196A11DB11D80932702F0
:1009100090932802A0932902B0932A02BF91AF912D
:100920009F918F913F912F910F900FBE0F901F902D
:10093000189526E8230F0296A11DB11DD2CFCF93A3
:10094000DF9310922E0210922D0288EE93E0A0E029
:10095000B0E080932F0290933002A0933102B093C5
:10096000320284E192E090932C0280932B0285EC7A
:1009700090E0909338028093370284EC90E090935B
:100980003A028093390280EC90E090933C0280938D
:100990003B0281EC90E090933E0280933D0282EC1A
:1009A00090E09093400280933F0286EC90E0909319
:1009B000420280934102109244021092450210922A
:1009C000460210924702C3E3D0E0D0931903C093CC
:1009D000180384E390E090931B0380931A0385E34C
:1009E00090E090931D0380931C0381E090E090932E
:1009F0001F0380931E0383E30E945B0180911A030F
:100A00000E945B0180911C030E945B0161E0809168
:100A10001C030E94AE02D0931903C0931803E8EDA3
:100A2000F2E0119283E0E831F807D9F7D0E0C0E0B6
:100A300080911E0390911F03C817D90774F540E0F9
:100A40006FE0CE010E94770380911E0390911F03F7
:100A5000C817D9072CF447E06BE0CE010E9477035A
:100A600040E069E0CE010E94770380911E039091DF
:100A70001F03C817D9071CF4CE010E94D50380912B
:100A80001E0390911F03C817D9072CF440E06CE0B7
:100A9000CE010E9477032196CBCFDF91CF910895AD
:100AA000789484B5826084BD84B5816084BD85B549
:100AB000826085BD85B5816085BD80916E00816055
:100AC00080936E00109281008091810082608093FB
:100AD00081008091810081608093810080918000FD
:100AE0008160809380008091B10084608093B10028
:100AF0008091B00081608093B0008091910082600D
:100B00008093910080919100816080939100809109
:100B100090008160809390008091A100826080931A
:100B2000A1008091A10081608093A1008091A0002C
:100B300081608093A00080912101826080932101D7
:100B40008091210181608093210180912001816049
:100B50008093200180917A00846080937A00809154
:100B60007A00826080937A0080917A00816080931D
:100B70007A0080917A00806880937A001092C10098
:100B8000C6E18C2F0E945B01CF5FCE31D1F7C0E26E
:100B90008C2F0E945B01CF5FC832D1F7E0913B02FE
:100BA000F0913C0282E08083E0913702F0913802BC
:100BB0001082E0913902F0913A028FEC808310921A
:100BC0004302E0913F02F091400286E08083E09191
:100BD0003D02F0913E02808180618083E0913D0280
:100BE000F0913E02808188608083E0913D02F09127
:100BF0003E02808180688083E0913D02F0913E0258
:100C000080818F7D808380911E0390911F03181631
:100C1000190634F441E06CE090E080E00E94770334
:100C200080911E0390911F031816190634F44FE0AB
:100C30006AE090E080E00E94770380911E0390912B
:100C40001F031816190624F490E080E00E94D503D3
:100C500040E8642E712C58E0452EC6E161E08C2FEF
:100C60000E94AE02CF5FCE31C9F7C0E260E08C2FA8
:100C70000E94AE02CF5FC832C9F720E0E22E22E028
:100C8000F22E37E0C32ED12C10E000E00830110521
:100C9000A4F590E2B92EB00E61E08B2D0E94AE0259
:100CA000C7E0D0E08C2F8A5EF701208130E00C2E67
:100CB00002C0359527950A94E2F760E020FF61E0D5
:100CC0000E94AE02219770F70E945F0360E08B2DB7
:100CD0000E94AE02C6E161E08C2F0E94AE02CF5F9F
:100CE000CE31C9F70F5F1F4FEFEFEE1AFE0A00314A
:100CF000110561F60E947D02B0CF80911E03909194
:100D00001F0318161906C4F598E0C916D104A0F5FA
:100D1000F701A080C3010C2C02C0959587950A9419
:100D2000E2F7382E582E5094C8ECD2E087E0882E97
:100D3000912CB12C80911E0390911F031816190657
:100D40009CF488899501082C02C0359527950A9452
:100D5000E2F720FF17C08329888B4889642D681922
:100D600090E080E00E947703F1E08F1A91082196CD
:100D70008FEF88169806F1F60E945F0391E0C91A7A
:100D8000D108B0CF8521E8CFEE0FFF1F881F8BBFA2
:0C0D90000790F691E02D1994F894FFCF25
:100D9C00804020100804020102040810204080400A
:100DAC000000000010027A01A7015D02D801B60113
:020DBC00CA016A
:00000001FF
