:100000000C9435010C9466010C9466010C94660105
:100010000C9466010C9466010C9466010C946601C4
:100020000C9466010C9466010C9466010C946601B4
:100030000C9466010C9466010C9466010C946601A4
:100040000C9466010C9466010C9466010C94660194
:100050000C9466010C9466010C9466010C949C054A
:100060000C9466010C9466050C943C050C94660196
:100070000C9466010C9466010C9466010C94660164
:100080000C9466010C9466010C9466010C94660154
:100090000C9466010C9466010C9466010C94660144
:1000A0000C9466010C9466010C9466010C94660134
:1000B0000C9466010C9466010C9466010C94660124
:1000C0000C9466010C9466010C9466010C94660114
:1000D0000C9466010C9466010C9466010C94660104
:1000E0000C9466010C94FE020C94EE020C948701B1
:1000F0000C9402030C94EB020C9414030C94F8027D
:100100000C94C3010C94E6050C94F4020C940C03BB
:100110000C94DF020C9419030C94E3020C94D701A5
:100120000C94E5010C946A020C9410030C941E03C9
:100130000C941A030C9406030C94B4010C94D90289
:100140000C941D020C94E7020000200023002600FE
:1001500029002C002F0032000001000003010601DD
:10016000090100000A0B02090C0D0E080703040127
:10017000000000000000000000000000000000007F
:10018000000000000000000000000000000012114C
:10019000100000000000000000000000000000004F
:1001A00000000000000000000000220025002800E0
:1001B0002B002E003100340002010000050108016F
:1001C0000B0100002100240027002A002D00300030
:1001D000330001010000040107010A0105050505BE
:1001E000070508080808020202020A0A08080404AF
:1001F00004040101010101010101030303030303DD
:100200000303040707070C0C0C0C0C0C0C0C02026B
:10021000020206060606060606060B0B0B0B0B0B68
:100220000B0B0102102020080810204010204080F5
:1002300002010201080402010102040810204080AA
:100240008040201008040201800402018040201038
:100250000804020108040201010204081020408081
:100260000102040810204080E60511241FBECFEFD4
:10027000D1E2DEBFCDBF00E00CBF1CE0A0E0B2E0E9
:10028000E2E7F6E100E00BBF02C007900D92A23456
:10029000B107D9F72EE0A2E4BCE001C01D92A2395B
:1002A000B207E1F711E0C5E3D1E000E006C0219715
:1002B0000109802FFE010E942F0BC433D10780E07B
:1002C0000807A9F70E9497060C94370B0C940000BE
:1002D00090E0FC01EE5DFD4F249184529E4FFC01A5
:1002E0008491882399F090E0880F991FFC01EE53C8
:1002F000FE4FA591B491FC01E855FE4F8591949174
:100300008FB7F894EC91E22BEC938FBF0895AF92E6
:10031000BF92CF92DF92EF92FF920F931F93CF93F2
:10032000DF936C017B018B01040F151FEB015E0154
:10033000AE18BF08C017D10759F06991D601ED91E9
:10034000FC910190F081E02DC6011995892B79F778
:10035000C501DF91CF911F910F91FF90EF90DF903A
:10036000CF90BF90AF900895FC01538D448D252F01
:1003700030E0842F90E0821B930B541710F0CF963F
:10038000089501970895FC01918D828D981761F071
:10039000A28DAE0FBF2FB11D5D968C91928D9F5F88
:1003A0009F73928F90E008958FEF9FEF0895FC0167
:1003B000918D828D981731F0828DE80FF11D858D1A
:1003C00090E008958FEF9FEF0895FC01918D228DAD
:1003D000892F90E0805C9F4F821B91098F73992732
:1003E00008958DE99DE00E94E50121E0892B09F443
:1003F00020E0822F0895FC01A48DA80FB92FB11D14
:10040000A35ABF4F2C91848D90E001968F7399274A
:10041000848FA689B7892C93A089B1898C91837028
:1004200080648C93938D848D981306C00288F38921
:10043000E02D80818F7D80830895EF92FF920F934E
:100440001F93CF93DF93EC0181E0888F9B8D8C8D80
:1004500098131AC0E889F989808185FF15C09FB774
:10046000F894EE89FF896083E889F9898081837037
:10047000806480839FBF81E090E0DF91CF911F91E6
:100480000F91FF90EF900895F62E0B8D10E00F5F07
:100490001F4F0F731127E02E8C8D8E110CC00FB6DD
:1004A00007FCFACFE889F989808185FFF5CFCE0175
:1004B0000E94FB01F1CFEB8DEC0FFD2FF11DE35AF4
:1004C000FF4FF0829FB7F8940B8FEA89FB898081F8
:1004D0008062CFCFCF93DF93EC01888D8823B9F072
:1004E000AA89BB89E889F9898C9185FD03C080813F
:1004F00086FD0DC00FB607FCF7CF8C9185FFF2CFBC
:10050000808185FFEDCFCE010E94FB01E9CFDF9115
:10051000CF91089580E090E0892B29F00E94F101AD
:1005200081110E94000080E090E0892B49F080E07A
:1005300090E0892B29F00E94000081110E940000A8
:1005400080E090E0892B49F080E090E0892B29F051
:100550000E94000081110E94000080E090E0892B41
:1005600049F080E090E0892B29F00E940000811181
:100570000C94000008958150823108F05AC0E82F91
:10058000F0E08827E953FD4F8F4F0C942F0BE702C3
:10059000EB02D902DF02E3021903EE02F402F802D1
:1005A000FE02020306030C031003190314031A03CB
:1005B0001E03809180008F77809380000895809142
:1005C00080008F7DF9CF80918000877FF5CF84B543
:1005D0008F7784BD089584B58F7DFBCF8091B00067
:1005E0008F778093B00008958091B0008F7DF9CF10
:1005F000809190008F778093900008958091900073
:100600008F7DF9CF80919000877FF5CF8091A000FA
:100610008F778093A00008958091A0008F7DF9CFFF
:100620008091A000877FF5CF809120018F77809304
:1006300020010895809120018F7DF9CF80912001C4
:10064000877FF5CFCF93DF93282F30E0F901EE5964
:10065000FE4F8491F901EE5DFD4FD491F901E45212
:10066000FE4FC491CC23A1F081110E94BB02EC2F5C
:10067000F0E0EE0FFF1FE85BFE4FA591B491EC9107
:10068000ED2381E090E009F480E0DF91CF910895BF
:1006900080E090E0FACF1F93CF93DF93282F30E0D4
:1006A000F901EE59FE4F8491F901EE5DFD4FD491B1
:1006B000F901E452FE4FC491CC23A9F0162F811109
:1006C0000E94BB02EC2FF0E0EE0FFF1FE855FE4F3B
:1006D000A591B4918FB7F894EC91111108C0D09501
:1006E000DE23DC938FBFDF91CF911F910895DE2B26
:1006F000F8CF863308F0865320917B00982F9870AE
:10070000277F922B90937B008770806480937C007E
:1007100080917A00806480937A0080917A0086FDCF
:10072000FCCF809178009091790008953FB7F894BC
:100730008091470C9091480CA091490CB0914A0CC3
:1007400026B5A89B05C02F3F19F00196A11DB11D2C
:100750003FBFBA2FA92F982F8827BC01CD01620F68
:10076000711D811D911D42E0660F771F881F991F23
:100770004A95D1F708958F929F92AF92BF92CF92F0
:10078000DF92EF92FF924B015C010E9496036B0196
:100790007C010E9496036C197D098E099F09683EB1
:1007A000734081059105A8F321E0821A9108A10800
:1007B000B10888EEC80E83E0D81EE11CF11C81143C
:1007C0009104A104B10429F7FF90EF90DF90CF903E
:1007D000BF90AF909F908F9008952FB7F89460913D
:1007E000430C7091440C8091450C9091460C2FBFA6
:1007F000089523E0880F991F2A95E1F7DC01A55B96
:10080000B34F88E0E5E0F2E001900D928A95E1F7C0
:100810000895CF92DF92EF92FF920F931F93CF93A1
:10082000DF931F921F92CDB7DEB769834A83880F8B
:10083000991F0091900E1091910E000F111FEAE385
:10084000FEE09F012A533E402017310714F4119215
:10085000F8CF2981FC01E65CF14F21838A818083F6
:1008600060E080918E0E0E944B031016110604F575
:1008700001501109F801E65CF14FE080D0908C0E38
:10088000C0908A0E88E0F82E6E2D661F6627661FC0
:100890008C2D0E944B03EE0C61E08D2D0E944B03CA
:1008A00060E08D2D0E944B03FA94F110EDCFDDCF67
:1008B00061E080918E0E0F900F90DF91CF911F918C
:1008C0000F91FF90EF90DF90CF900C944B03EF923D
:1008D000FF920F931F93CF937C018C0183E0000F55
:1008E000111F8A95E1F7065B114FC1E0F8011192E3
:1008F0008F0140E06C2FC7010E940904CF5FC9300F
:10090000A9F7CF911F910F91FF90EF90089520913B
:10091000900E3091910E12161306FCF4883091055A
:10092000E0F468307105C8F420E830E002C0359585
:1009300027956A95E2F7FC01E65CF14F5089442364
:1009400049F0252B208B61E0680F408990E080E022
:100950000C94090420952523F5CF08958F929F923A
:10096000AF92BF92CF92DF92EF92FF920F931F93BD
:10097000CF93DF938C01D0E0C0E027E0E22EF12C92
:1009800037E0A32EB12CC830D1050CF046C09C2E08
:1009900080E2980E61E0892D0E944B0397E0C92EFA
:1009A000D12C86E18C0DF801208130E00C2C02C0A6
:1009B000359527950A94E2F760E020FF61E00E94F8
:1009C0004B03F1E0CF1AD10860F765E070E080E0FA
:1009D00090E00E94BB0360E0892D0E944B0386E1FA
:1009E000D82E61E08D2D0E944B03D394EEE1DE12F0
:1009F000F8CF21960F5F1F4FC031D10509F0C3CF4B
:100A0000DF91CF911F910F91FF90EF90DF90CF90EA
:100A1000BF90AF909F908F9008958091900E90918D
:100A2000910E18161906F4F4F8E0EF16F104D0F45C
:100A3000F801C080912C812CD12CC501881999090D
:100A4000A60102C0559547958A95E2F74170B70116
:100A5000C4010E948704FFEF8F1A9F0A88E088165E
:100A6000910459F765E070E080E090E00E94BB03DC
:100A7000E1E0EE1AF108BDCF1F920F920FB60F9270
:100A800011240BB60F922F933F934F935F936F9365
:100A90007F938F939F93AF93BF93EF93FF938DE9D2
:100AA0009DE00E94FB01FF91EF91BF91AF919F915B
:100AB0008F917F916F915F914F913F912F910F9007
:100AC0000BBE0F900FBE0F901F9018951F920F92A4
:100AD0000FB60F9211240BB60F922F938F939F9303
:100AE000EF93FF93E091AD0DF091AE0D8081E09119
:100AF000B30DF091B40D82FD1DC090818091B60DB3
:100B00008F5F8F732091B70D821741F0E091B60D82
:100B1000F0E0E356F24F958F8093B60DFF91EF9181
:100B20009F918F912F910F900BBE0F900FBE0F9042
:100B30001F9018958081F2CF1F920F920FB60F92DF
:100B400011242F933F938F939F93AF93BF938091E3
:100B5000430C9091440CA091450CB091460C3091FF
:100B6000420C23E0230F2D3758F50196A11DB11D2E
:100B70002093420C8093430C9093440CA093450C1B
:100B8000B093460C8091470C9091480CA091490C71
:100B9000B0914A0C0196A11DB11D8093470C909312
:100BA000480CA093490CB0934A0CBF91AF919F9110
:100BB0008F913F912F910F900FBE0F901F9018951E
:100BC00026E8230F0296A11DB11DD2CFCF93DF934C
:100BD0001092A00D10929F0D88EE93E0A0E0B0E07F
:100BE0008093A10D9093A20DA093A30DB093A40D9B
:100BF00081E39CE090939E0D80939D0D85EC90E0A9
:100C00009093AA0D8093A90D84EC90E09093AC0D85
:100C10008093AB0D80EC90E09093AE0D8093AD0D82
:100C200081EC90E09093B00D8093AF0D82EC90E05A
:100C30009093B20D8093B10D86EC90E09093B40D3B
:100C40008093B30D1092B60D1092B70D1092B80D9F
:100C50001092B90DC3E3D0E0D0938B0EC0938A0EEF
:100C600084E390E090938D0E80938C0E85E390E06A
:100C700090938F0E80938E0E81E090E09093910E72
:100C80008093900E83E30E94680180918C0E0E94F5
:100C9000680180918E0E0E94680161E080918E0E45
:100CA0000E944B03D0938B0EC0938A0EEAE4FEE0C1
:100CB00011928EE0EA38F807D9F7D0E0C0E08091D1
:100CC000900E9091910EC817D90774F540E06FE02F
:100CD000CE010E9409048091900E9091910EC81748
:100CE000D9072CF447E06BE0CE010E94090440E0F4
:100CF00069E0CE010E9409048091900E9091910EBE
:100D0000C817D9071CF4CE010E9467048091900E89
:100D10009091910EC817D9072CF440E06CE0CE01F9
:100D20000E9409042196CBCFDF91CF910895CF93F4
:100D3000DF93CDB7DEB7AF970FB6F894DEBF0FBE27
:100D4000CDBF789484B5826084BD84B5816084BD54
:100D500085B5826085BD85B5816085BD80916E0059
:100D6000816080936E00109281008091810082608A
:100D700080938100809181008160809381008091C7
:100D800080008160809380008091B10084608093B6
:100D9000B1008091B00081608093B000809191009B
:100DA0008260809391008091910081608093910096
:100DB000809190008160809390008091A10082607A
:100DC0008093A1008091A10081608093A100809117
:100DD000A00081608093A0008091210182608093B7
:100DE0002101809121018160809321018091200166
:100DF00081608093200180917A00846080937A00E2
:100E000080917A00826080937A0080917A0081607C
:100E100080937A0080917A00806880937A001092A3
:100E2000C100E091AD0DF091AE0D82E08083E091C4
:100E3000A90DF091AA0D1082E091AB0DF091AC0DCF
:100E40008FEC80831092B50DE091B10DF091B20D51
:100E500086E08083E091AF0DF091B00D80818061DC
:100E60008083E091AF0DF091B00D80818860808328
:100E7000E091AF0DF091B00D808180688083E091AA
:100E8000AF0DF091B00D80818F7D808316E1812FB1
:100E90000E9468011F5F1E31D1F710E2812F0E946E
:100EA00068011F5F1832D1F78091900E9091910EDA
:100EB0001816190634F441E06CE090E080E00E94DE
:100EC00009048091900E9091910E1816190634F431
:100ED0004FE06AE090E080E00E9409048091900E6B
:100EE0009091910E1816190624F490E080E00E946B
:100EF000670481E0809300028BEE9CE00E94AE04C8
:100F000083E090E090930C0D80930B0D82E390E0D2
:100F100090930E0D80930D0D88EC90E09093100D42
:100F200080930F0D10E000E0C8010E94F9030F5FED
:100F30001F4F04311105C1F7BAE04B2E512C612C23
:100F4000712C87E30E9479036C01990FEE08FF086A
:100F5000F7FE70C16DE28DE99DE00E941D0222271F
:100F60003327A9012C193D094E095F0919A28E01E9
:100F70000F5D1F4FCA01B901A30192010E940D0B21
:100F8000605DF80162938F0121153105410551051E
:100F900089F70115110561F001900020E9F73197FB
:100FA000AF01401B510BB8018DE99DE00E94870104
:100FB00042E050E06FE37CE08DE99DE00E94870114
:100FC00087E30E9479038C01892B09F0C2C18091CB
:100FD00000028111A5C188E30E9422030197C9F58F
:100FE00080910B0D90910C0D02979CF10E94ED03E6
:100FF000C090150DD090160DE090170DF090180DC3
:10100000AB01BC014C195D096E097F0980910D0D82
:1010100090910E0D092E000CAA0BBB0B841795079F
:10102000A607B707B0F480910B0D90910C0D82309C
:1010300091052CF0019790930C0D80930B0D0E945D
:10104000ED036093150D7093160D8093170D90931B
:10105000180D89E30E9422030197C9F580910B0DB9
:1010600090910C0D06979CF50E94ED03C090150D14
:10107000D090160DE090170DF090180DAB01BC014B
:101080004C195D096E097F0980910D0D90910E0D2F
:10109000092E000CAA0BBB0B84179507A607B707F0
:1010A000B0F480910B0D90910C0D863091052CF4CD
:1010B000019690930C0D80930B0D0E94ED036093AD
:1010C000150D7093160D8093170D9093180D86E3F0
:1010D0000E942203019709F05DC00E94ED03C090B9
:1010E000190DD0901A0DE0901B0DF0901C0DAB0166
:1010F000BC014C195D096E097F0980910F0D90911B
:10110000100D092E000CAA0BBB0B84179507A60720
:10111000B70708F03FC0EBE4FCE0D12CC12C808184
:101120009181892B69F482819381892B49F484818F
:101130009581A681B781892B8A2B8B2B09F490C0CE
:101140002FEFC21AD20A389634E1C316D10439F708
:101150000E94ED036093190D70931A0D80931B0D7F
:1011600090931C0D80910102909102020196909340
:10117000020280930102099769F480910302909121
:1011800004020196909304028093030210920202DB
:101190001092010280E1EBEEFCE0ABEFBCE00190CD
:1011A0000D928A95E1F780910B0D90910C0D0197AE
:1011B00020E430E0082E02C0359527950A94E2F726
:1011C0002093090D20EE30E002C0359527958A95D1
:1011D000E2F720930A0D8BEF9CE00E94AE045BE4E3
:1011E000E52E5CE0F52E88E0F701DE019296019095
:1011F0000D928A95E1F7F701C280D38080819181B9
:10120000009709F046C0C114D10409F042C04EA1B4
:101210005FA168A579A5452B462B472BF1F50F5FFC
:101220001F4FF8E0EF0EF11C04311105E1F60E94AA
:101230008A0287CEA701960119A28E010F5D1F4F6A
:10124000CA01B901A30192010E940D0B605DF80172
:1012500062938F01211531054105510589F799CE1A
:10126000E0900B0DF0900C0D0E94ED03F601A3E051
:10127000EE0FFF1FAA95E1F7E55BF34FF182E082E5
:1012800022E030E0338322836483758386839783EF
:101290005FCFF8E0CF16D104E4F441E0B6010E943C
:1012A0008704F701828193810196938382830E9450
:1012B000ED03F70184809580A680B780DC01CB0127
:1012C000880D991DAA1DBB1D84839583A683B783B2
:1012D000A6CF90E1EBEFFCE0DE01119601900D92BC
:1012E0009A95E1F7EFE0F0E0EC19FD0921E030E03C
:1012F0002C0F3D1FE20FF31F20E830E002C03595B0
:1013000027958A95E2F72083CE0101960E94AE04CC
:1013100030E1C316D1042CF2C8010E94F9037FCF3B
:1013200088E30E942203019749F4109200026AEFB9
:1013300070E080E090E00E94BB0379CF89E30E94D7
:101340002203019791F386E30E942203019769F338
:10135000EECF2DE03CE03FA72EA74DE1242E4DE03F
:10136000342E3DA62CA63BA72AA7F12CE12CEAA5FA
:10137000FBA580813296FBA7EAA761E00E944B03A0
:101380008701000F111FACA4BDA4D12CC12C8091EA
:10139000030290910402F801E357F44F8130910564
:1013A00039F08230910509F096C0F801E35FF44FFF
:1013B00020813181F50131832083F801E35FF64F0D
:1013C0008630910509F092C080819181F501918369
:1013D000808380900102909002028114910409F0B0
:1013E000BAC041E0F801E357F94F80819181892B20
:1013F00009F440E0B601C7010E94870495E0891610
:10140000910409F0C2C041E0F801E35FFB4F808125
:101410009181892B09F440E0B601C7010E9487043D
:101420008FEFC81AD80A90E1A90EB11C005F1F4FB8
:10143000E8E0CE16D10409F0AACFFFEFEF1AFF0AB9
:101440002CA53DA52E5F3F4F3DA72CA738E0E31606
:10145000F10409F08CCF0DE21CE0F12CE12CF1013C
:10146000EE0DFF1D80819181019739F460E0F70155
:10147000E35EF34F80810E944B0382E0E80EF11C93
:1014800090E1E916F10459F764E070E080E090E043
:101490000E94BB03EEA5FFA580813296FFA7EEA7B1
:1014A00060E00E944B038DE1E82E8CE0F82EF701FE
:1014B0008081F2E0EF0EF11C61E00E944B030E15FB
:1014C0001F05A9F720E1220E311C8DE99DE0821550
:1014D000930519F6ACCE8330910581F4F801E357FA
:1014E000F54F20813181F50131832083F801E357E5
:1014F000F74F8730910509F467CF0BC08430910511
:10150000B9F4F801E35FF54F20813181F5013183B2
:101510002083F801E35FF74F8830910509F454CF39
:10152000F801E357F84F8930910509F44DCF0CC00D
:101530008530910509F041CFF801E357F64F20813E
:101540003181F50131832083892B09F042CFF801E5
:10155000E35FF84F39CFF1E08F16910429F441E0B1
:10156000F801E35FF94F41CF22E082169104B1F414
:1015700041E0F801E357FA4F80819181892B09F40A
:1015800040E0B601C7010E948704E6E08E16910490
:10159000B1F441E0F801E357FC4F39CF33E0831653
:1015A0009104B1F441E0F801E35FFA4F8081918149
:1015B000892B09F440E0B601C7010E948704F7E0D7
:1015C0008F16910409F541E0F801E35FFC4F1FCF4E
:1015D00084E08816910409F011CF41E0F801E35747
:1015E000FB4F80819181892B09F440E0B601C7014E
:1015F0000E94870439E08316910409F011CF41E07D
:10160000F801E35FFD4F03CF28E08216910491F7C4
:1016100041E0F801E357FD4FFACEA1E21A2EAA1BD2
:10162000BB1BFD010DC0AA1FBB1FEE1FFF1FA21792
:10163000B307E407F50720F0A21BB30BE40BF50B8F
:10164000661F771F881F991F1A9469F76095709518
:10165000809590959B01AC01BD01CF010895EE0FDF
:10166000FF1F881F8BBF0790F691E02D1994F89407
:02167000FFCFAA
:101672000101000100000000000000000000000065
:101682000000000000000000000000000000000157
:101692000001000100010000000000000000000045
:1016A2000000000000000001000000000000000037
:1016B2000001000100010001000000000000000123
:1016C2000000000000000001000000000000000017
:1016D2000001000100010000000000000000000005
:1016E20000000000000000000000000000000000F8
:1016F20000000000000000000000000000000000E8
:1017020000000000000000000000000000000000D7
:1017120000010001000100000000000000000001C3
:1017220000000000000000010000000000000000B6
:1017320000010001000100000000000000000001A3
:101742000000000000000001000000000000000096
:101752000001000100010000000000000000000084
:101762000000000000000000000000000000000077
:101772000000000000000000000000000000000067
:101782000000000000000000000000000000000057
:101792000001000000000000000000000000000046
:1017A2000000000100000000000000000000000036
:1017B2000000000000010000000000000000000026
:1017C2000000000000000001000000000000000115
:1017D2000001000100010001000000000000000003
:1017E20000000000000000000000000000000000F7
:1017F20000000000000000000000000000000000E7
:1018020000000000000000000000000000000000D6
:1018120000010001000100000000000000000001C2
:1018220000000000000000010000000000000001B4
:1018320000010001000100000000000000000001A2
:101842000000000000000000000000000000000096
:101852000001000100010001000000000000000082
:101862000000000000000000000000000000000076
:101872000000000000000000000000000000000066
:101882000000000000000000000000000000000155
:101892000001000100010000000000000000000043
:1018A2000000000000000001000000000000000134
:1018B2000001000100010000000000000000000122
:1018C2000000000000000000000000000000000115
:1018D2000001000100010001000000000000000002
:1018E20000000000000000000000000000000000F6
:1018F20000000000000000000000000000000000E6
:1019020000000000000000000000000000000000D5
:1019120000000000000000000000000000000000C5
:1019220000000000000000010000000000000000B4
:1019320000010001000100010001000000000000A0
:101942000001000000000001000000000000000093
:101952000000000100000001000000000000000083
:101962000000000000010001000000000000000073
:101972000000000000000000000000000000000065
:101982000000000000000000000000000000000055
:101992000000000000000000000000000000000144
:1019A2000001000100010000000000000000000032
:1019B2000000000000000001000000000000000024
:1019C2000000000100010000000000000000000013
:1019D2000000000000000001000000000000000103
:1019E20000010001000100000000000000000000F2
:1019F20000000000000000000000000000000000E5
:101A020000000000000000000000000000000000D4
:101A120000010001000100010001000000000000BF
:101A220000010000000000000000000000000000B3
:101A320000000001000100010000000000000000A1
:101A42000000000000000000000100000000000093
:101A52000001000100010001000000000000000080
:101A62000000000000000000000000000000000074
:101A72000000000000000000000000000000000064
:101A82000000000000000000000000000000000054
:101A92000000000100010001000000000000000041
:101AA2000000000000010000000000000000000033
:101AB2000000000000010000000000000000000023
:101AC2000000000000010000000000000000000013
:101AD2000000000100010000000000000000000002
:101AE20000000000000000000000000000000000F4
:101AF20000000000000000000000000000000000E4
:101B020000000000000000000000000000000000D3
:101B120000000000000000000000000000000000C3
:101B220000010001000100000000000000000001AF
:101B320000000000000100010000000000000001A0
:101B42000000000100000001000000000000000190
:101B52000001000000000001000000000000000081
:101B62000001000100010000000000000000000070
:101B72000000000000000000000000000000000063
:101B82000000000000000000000000000000000053
:101B92000000000000000000000000000000000043
:101BA200000100010001000000000000000000012F
:101BB2000001000000000001000000000000000120
:101BC2000000000100000001000000000000000110
:101BD2000000000000010001000000000000000001
:101BE20000010001000100000000000000000000F0
:101BF20000000000000000000000000000000000E3
:101C020000000000000000000000000000000000D2
:101C120000000000000000000000000000000000C2
:101C220000010001000100000000000000000001AE
:101C320000000000000000010000000000000001A0
:101C4200000100010001000000000000000000018E
:101C52000000000000000000000000000000000082
:101C6200000100010001000100000000000000006E
:101C72000000000000000000000000000000000062
:101C82000000000000000000000000000000000052
:101C92000000000000000000000000000000000042
:101CA200000100010001000000000000000000012E
:101CB2000000000000000001000000000000000021
:101CC200000100010001000000000000000000010E
:101CD2000000000000000001000000000000000001
:101CE20000010001000100000000000000000000EF
:101CF20000000000000000000000000000000000E2
:101D020000000000000000000000000000000000D1
:101D120000000000000000000000000000000001C0
:101D220000010001000100010000000000000001AC
:101D320000000000000000000000000000000000A1
:101D42000001000000000000000000000000000090
:101D52000000000100000000000000000000000080
:101D62000000000000010000000000000000000070
:101D72000000000000000000000000000000000061
:101D82000000000000000000000000000000000051
:101D92000000000000000000000000000000000140
:101DA200000100010001000000000000000000002E
:101DB2000000000000000001000000000000000020
:101DC200000100010001000100000000000000010C
:101DD2000000000000000001000000000000000000
:101DE20000010001000100000000000000000000EE
:101DF20000000000000000000000000000000000E1
:101E020000000000000000000000000000000000D0
:101E120000000000000000000000000000000000C0
:101E220000010001000100010001000000000000AB
:101E3200000000000000000000010000000000009F
:101E4200000000010001000100010000000000008C
:101E5200000100000000000000000000000000007F
:101E6200000000010001000100010000000000006C
:101E72000000000000000000000000000000000060
:101E82000000000000000000000000000000000050
:101E92000000000000000000000000000000000040
:101EA200000100010000000000000000000000002E
:101EB200000100000001000000000000000000001E
:101EC200000100000000000100000000000000010D
:101ED20000010001000100010000000000000000FC
:101EE20000010000000000000000000000000000EF
:101EF20000000000000000000000000000000000E0
:101F020000000000000000000000000000000000CF
:101F120000000000000000000000000000000000BF
:101F220000010001000100010000000000000001AA
:101F3200000000000000000000000000000000009F
:101F4200000100010000000000000000000000018C
:101F5200000000000000000000000000000000007F
:101F6200000100010001000100000000000000006B
:101F7200000000000000000000000000000000005F
:101F8200000000000000000000000000000000004F
:101F9200000000000000000000000000000000003F
:101FA200000100010001000100000000000000012A
:101FB200000000000000000000000000000000001F
:101FC200000100010001000000000000000000000C
:101FD20000000000000000010000000000000001FD
:101FE20000010001000100010000000000000000EB
:101FF20000000000000000000000000000000000DF
:1020020000000000000000000000000000000000CE
:1020120000000000000000000000000000000000BE
:1020220000000001000100000000000000000000AC
:10203200000000010000000000000000000000009D
:10204200000000010000000000000000000000008D
:10205200000000010000000000000000000000007D
:10206200000100010001000000000000000000006B
:10207200000000000000000000000000002000211D
:102082000022002300240025002600270016001746
:1020920000180019001A001B001C001D000000009F
:1020A200001D028701B4016A02E501C301D7010DD7
:0220B2000A0022
:00000001FF
