:100000000C9435010C9466010C9466010C94660105
:100010000C9466010C9466010C9466010C946601C4
:100020000C9466010C9466010C9466010C946601B4
:100030000C9466010C9466010C9466010C946601A4
:100040000C9466010C9466010C9466010C94660194
:100050000C9466010C9466010C9466010C94A00546
:100060000C9466010C946A050C9440050C9466018E
:100070000C9466010C9466010C9466010C94660164
:100080000C9466010C9466010C9466010C94660154
:100090000C9466010C9466010C9466010C94660144
:1000A0000C9466010C9466010C9466010C94660134
:1000B0000C9466010C9466010C9466010C94660124
:1000C0000C9466010C9466010C9466010C94660114
:1000D0000C9466010C9466010C9466010C94660104
:1000E0000C9466010C9410030C941D020C940C03E8
:1000F0000C9414030C9402030C94D7010C94EE029C
:100100000C94EA050C94DF020C94B4010C940603E1
:100110000C94E3020C94D9020C94FE020C941A0382
:100120000C94E5010C94F8020C94EB020C948701FA
:100130000C94F4020C946A020C941E030C94E702D3
:100140000C94C3010C941903000020002300260026
:1001500029002C002F0032000001000003010601DD
:10016000090100000A0B02090C0D0E080703040127
:10017000000000000000000000000000000000007F
:10018000000000000000000000000000000012114C
:10019000100000000000000000000000000000004F
:1001A00000000000000000000000220025002800E0
:1001B0002B002E003100340002010000050108016F
:1001C0000B0100002100240027002A002D00300030
:1001D000330001010000040107010A0105050505BE
:1001E000070508080808020202020A0A08080404AF
:1001F00004040101010101010101030303030303DD
:100200000303040707070C0C0C0C0C0C0C0C02026B
:10021000020206060606060606060B0B0B0B0B0B68
:100220000B0B0102102020080810204010204080F5
:1002300002010201080402010102040810204080AA
:100240008040201008040201800402018040201038
:100250000804020108040201010204081020408081
:100260000102040810204080EA0511241FBECFEFD0
:10027000D1E2DEBFCDBF00E00CBF13E0A0E0B2E0F2
:10028000E0E8F7E100E00BBF02C007900D92A03B51
:10029000B107D9F728E0A0EBB3E001C01D92A2346A
:1002A000B207E1F711E0C5E3D1E000E006C0219715
:1002B0000109802FFE010E94B60BC433D10780E0F4
:1002C0000807A9F70E94C0060C94BE0B0C9400000E
:1002D00090E0FC01EE5DFD4F249184529E4FFC01A5
:1002E0008491882399F090E0880F991FFC01EE53C8
:1002F000FE4FA591B491FC01E855FE4F8591949174
:100300008FB7F894EC91E22BEC938FBF0895AF92E6
:10031000BF92CF92DF92EF92FF920F931F93CF93F2
:10032000DF936C017B018B01040F151FEB015E0154
:10033000AE18BF08C017D10759F06991D601ED91E9
:10034000FC910190F081E02DC6011995892B79F778
:10035000C501DF91CF911F910F91FF90EF90DF903A
:10036000CF90BF90AF900895FC01538D448D252F01
:1003700030E0842F90E0821B930B541710F0CF963F
:10038000089501970895FC01918D828D981761F071
:10039000A28DAE0FBF2FB11D5D968C91928D9F5F88
:1003A0009F73928F90E008958FEF9FEF0895FC0167
:1003B000918D828D981731F0828DE80FF11D858D1A
:1003C00090E008958FEF9FEF0895FC01918D228DAD
:1003D000892F90E0805C9F4F821B91098F73992732
:1003E000089589EB94E00E94E50121E0892B09F44E
:1003F00020E0822F0895FC01A48DA80FB92FB11D14
:10040000A35ABF4F2C91848D90E001968F7399274A
:10041000848FA689B7892C93A089B1898C91837028
:1004200080648C93938D848D981306C00288F38921
:10043000E02D80818F7D80830895EF92FF920F934E
:100440001F93CF93DF93EC0181E0888F9B8D8C8D80
:1004500098131AC0E889F989808185FF15C09FB774
:10046000F894EE89FF896083E889F9898081837037
:10047000806480839FBF81E090E0DF91CF911F91E6
:100480000F91FF90EF900895F62E0B8D10E00F5F07
:100490001F4F0F731127E02E8C8D8E110CC00FB6DD
:1004A00007FCFACFE889F989808185FFF5CFCE0175
:1004B0000E94FB01F1CFEB8DEC0FFD2FF11DE35AF4
:1004C000FF4FF0829FB7F8940B8FEA89FB898081F8
:1004D0008062CFCFCF93DF93EC01888D8823B9F072
:1004E000AA89BB89E889F9898C9185FD03C080813F
:1004F00086FD0DC00FB607FCF7CF8C9185FFF2CFBC
:10050000808185FFEDCFCE010E94FB01E9CFDF9115
:10051000CF91089580E090E0892B29F00E94F101AD
:1005200081110E94000080E090E0892B49F080E07A
:1005300090E0892B29F00E94000081110E940000A8
:1005400080E090E0892B49F080E090E0892B29F051
:100550000E94000081110E94000080E090E0892B41
:1005600049F080E090E0892B29F00E940000811181
:100570000C94000008958150823108F05AC0E82F91
:10058000F0E08827E953FD4F8F4F0C94B60BE7023C
:10059000EB02D902DF02E3021903EE02F402F802D1
:1005A000FE02020306030C031003190314031A03CB
:1005B0001E03809180008F77809380000895809142
:1005C00080008F7DF9CF80918000877FF5CF84B543
:1005D0008F7784BD089584B58F7DFBCF8091B00067
:1005E0008F778093B00008958091B0008F7DF9CF10
:1005F000809190008F778093900008958091900073
:100600008F7DF9CF80919000877FF5CF8091A000FA
:100610008F778093A00008958091A0008F7DF9CFFF
:100620008091A000877FF5CF809120018F77809304
:1006300020010895809120018F7DF9CF80912001C4
:10064000877FF5CFCF93DF93282F30E0F901EE5964
:10065000FE4F8491F901EE5DFD4FD491F901E45212
:10066000FE4FC491CC23A1F081110E94BB02EC2F5C
:10067000F0E0EE0FFF1FE85BFE4FA591B491EC9107
:10068000ED2381E090E009F480E0DF91CF910895BF
:1006900080E090E0FACF1F93CF93DF93282F30E0D4
:1006A000F901EE59FE4F8491F901EE5DFD4FD491B1
:1006B000F901E452FE4FC491CC23A9F0162F811109
:1006C0000E94BB02EC2FF0E0EE0FFF1FE855FE4F3B
:1006D000A591B4918FB7F894EC91111108C0D09501
:1006E000DE23DC938FBFDF91CF911F910895DE2B26
:1006F000F8CF3FB7F8948091B5039091B603A091DD
:10070000B703B091B80326B5A89B05C02F3F19F0D9
:100710000196A11DB11D3FBFBA2FA92F982F882781
:10072000BC01CD01620F711D811D911D42E0660F5C
:10073000771F881F991F4A95D1F708958F929F922E
:10074000AF92BF92CF92DF92EF92FF924B015C018A
:100750000E9479036B017C010E9479036C197D0969
:100760008E099F09683E734081059105A8F321E039
:10077000821A9108A108B10888EEC80E83E0D81E3D
:10078000E11CF11C81149104A104B10429F7FF902C
:10079000EF90DF90CF90BF90AF909F908F90089593
:1007A0002FB7F8946091B1037091B2038091B303B5
:1007B0009091B4032FBF089523E0880F991F2A95C5
:1007C000E1F7DC01A750BC4F88E0E5EAF2E00190D8
:1007D0000D928A95E1F70895CF92DF92EF92FF9202
:1007E0000F931F93CF93DF931F921F92CDB7DEB766
:1007F00069834A83880F991F00914008109141082E
:10080000000F111FEAEEF7E09F012A5E3740201724
:10081000310714F41192F8CF2981FC01E651F84F09
:1008200021838A81808360E080913E080E944B038F
:100830001016110604F501501109F801E651F84FA0
:10084000E080D0903C08C0903A0888E0F82E6E2DE9
:10085000661F6627661F8C2D0E944B03EE0C61E01D
:100860008D2D0E944B0360E08D2D0E944B03FA9466
:10087000F110EDCFDDCF61E080913E080F900F9039
:10088000DF91CF911F910F91FF90EF90DF90CF906C
:100890000C944B03EF92FF920F931F93CF937C0125
:1008A0008C0183E0000F111F8A95E1F70650184F65
:1008B000C1E0F80111928F0140E06C2FC7010E9446
:1008C000EC03CF5FC930A9F7CF911F910F91FF9033
:1008D000EF900895209140083091410812161306B8
:1008E000FCF488309105E0F468307105C8F420E824
:1008F00030E002C0359527956A95E2F7FC01E65194
:10090000F84F5089442349F0252B208B61E0680F74
:10091000408990E080E00C94EC0320952523F5CFEE
:100920000895CF92DF92EF92FF920F931F93CF9390
:10093000DF93209140083091410812161306ECF421
:1009400088309105D1F07C01D0E0C0E0062F10E0A6
:1009500087E0C82ED12CC6018C1B9D0BA80102C0BC
:10096000559547958A95E2F74170B701CE010E94EF
:100970006A042196C830D10571F7DF91CF911F919C
:100980000F91FF90EF90DF90CF900895EF92FF923C
:100990000F931F93CF93DF937C0110E000E0D0E032
:1009A000C0E06FEFCE010E9491042196C830D105BE
:1009B000C1F762E370E080E090E00E949E03D0E027
:1009C000C0E060E0CE010E9491042196C830D105BC
:1009D000C1F762E370E080E090E00E949E030F5F49
:1009E0001F4FE016F106D9F6DF91CF911F910F91BD
:1009F000FF90EF9008950F931F93CF93DF938C0197
:100A0000D0E0C0E0F80161918F01CE010E94910415
:100A10002196C830D105B1F7DF91CF911F910F9189
:100A20000895CF93DF9381E08093000289E994E0F9
:100A30000E94FB0484E090E09093DB078093DA0748
:100A400082E390E09093DD078093DC0788EC90E0F0
:100A50009093DF078093DE07E9EBF3E089EF93E003
:100A600011928E179F07E1F7D0E0C0E0CE010E94FF
:100A7000DC032196C431D105C9F7DF91CF910895E8
:100A80001F920F920FB60F9211240BB60F922F9355
:100A90003F934F935F936F937F938F939F93AF9306
:100AA000BF93EF93FF9389EB94E00E94FB01FF91CA
:100AB000EF91BF91AF919F918F917F916F915F91D6
:100AC0004F913F912F910F900BBE0F900FBE0F9043
:100AD0001F9018951F920F920FB60F9211240BB60C
:100AE0000F922F938F939F93EF93FF93E091C904FD
:100AF000F091CA048081E091CF04F091D00482FD8E
:100B00001DC090818091D2048F5F8F732091D30498
:100B1000821741F0E091D204F0E0E754FB4F958F4B
:100B20008093D204FF91EF919F918F912F910F901D
:100B30000BBE0F900FBE0F901F9018958081F2CFC3
:100B40001F920F920FB60F9211242F933F938F9302
:100B50009F93AF93BF938091B1039091B203A09103
:100B6000B303B091B4033091B00323E0230F2D37CA
:100B700058F50196A11DB11D2093B0038093B103D8
:100B80009093B203A093B303B093B4038091B503E1
:100B90009091B603A091B703B091B8030196A11D3F
:100BA000B11D8093B5039093B603A093B703B093A0
:100BB000B803BF91AF919F918F913F912F910F906B
:100BC0000FBE0F901F90189526E8230F0296A11DC7
:100BD000B11DD2CFCF93DF931092BC041092BB040F
:100BE00088EE93E0A0E0B0E08093BD049093BE0453
:100BF000A093BF04B093C00481EA93E09093BA0439
:100C00008093B90485EC90E09093C6048093C5046A
:100C100084EC90E09093C8048093C70480EC90E04B
:100C20009093CA048093C90481EC90E09093CC0423
:100C30008093CB0482EC90E09093CE048093CD041B
:100C400086EC90E09093D0048093CF041092D2046D
:100C50001092D3041092D4041092D504C3E3D0E0D0
:100C6000D0933B08C0933A0884E390E090933D080A
:100C700080933C0885E390E090933F0880933E0882
:100C800081E090E0909341088093400883E30E94C4
:100C9000680180913C080E94680180913E080E9492
:100CA000680161E080913E080E944B03D0933B08AD
:100CB000C0933A08EAEFF7E08AE398E011928E17C2
:100CC0009F07E1F7D0E0C0E0809140089091410893
:100CD000C817D90774F540E06FE0CE010E94EC031D
:100CE0008091400890914108C817D9072CF447E03B
:100CF0006BE0CE010E94EC0340E069E0CE010E946F
:100D0000EC038091400890914108C817D9071CF462
:100D1000CE010E944A048091400890914108C81772
:100D2000D9072CF440E06CE0CE010E94EC03219640
:100D3000CBCF1092E1071092E007EAE5F5E08AEDEB
:100D400097E06AE047E050E020ED37E0DF01762FE2
:100D50001D927A95E9F753834283358324833A962B
:100D60008E179F0799F70E94D003609356057093E2
:100D700057058093580590935905DF91CF910895B9
:100D8000CF93DF93CDB7DEB72C970FB6F894DEBFC5
:100D90000FBECDBF789484B5826084BD84B5816078
:100DA00084BD85B5826085BD85B5816085BD809136
:100DB0006E00816080936E001092810080918100AE
:100DC00082608093810080918100816080938100A6
:100DD000809180008160809380008091B100846068
:100DE0008093B1008091B00081608093B0008091C9
:100DF0009100826080939100809191008160809346
:100E00009100809190008160809390008091A1007A
:100E100082608093A1008091A10081608093A100F5
:100E20008091A00081608093A00080912101826068
:100E30008093210180912101816080932101809123
:100E4000200181608093200180917A0084608093EA
:100E50007A0080917A00826080937A0080917A0093
:100E6000816080937A0080917A00806880937A0014
:100E70001092C100E091C904F091CA0482E080831D
:100E8000E091C504F091C6041082E091C704F0918E
:100E9000C8048FEC80831092D104E091CD04F091CE
:100EA000CE0486E08083E091CB04F091CC04808175
:100EB00080618083E091CB04F091CC0480818860D4
:100EC0008083E091CB04F091CC04808180688083A2
:100ED000E091CB04F091CC0480818F7D8083809160
:100EE0004008909141081816190634F441E06CE06E
:100EF00090E080E00E94EC038091400890914108CE
:100F00001816190634F44FE06AE090E080E00E9481
:100F1000EC0380914008909141081816190624F4BA
:100F200090E080E00E944A040E941105F7E06F2ED5
:100F3000712C809100029DEAE92E92E0F92E811138
:100F4000D9C288E30E9422030197C9F58091DA078C
:100F50009091DB0702979CF10E94D0030091E20779
:100F60001091E3072091E4073091E507AB01BC0144
:100F7000401B510B620B730B8091DC079091DD07D6
:100F8000092E000CAA0BBB0B84179507A607B70701
:100F9000B0F48091DA079091DB07823091052CF054
:100FA00001979093DB078093DA070E94D003609348
:100FB000E2077093E3078093E4079093E50789E3E2
:100FC0000E9422030197C9F58091DA079091DB070F
:100FD00006979CF50E94D0030091E2071091E30769
:100FE0002091E4073091E507AB01BC01401B510B98
:100FF000620B730B8091DC079091DD07092E000CCA
:10100000AA0BBB0B84179507A607B707B0F480910E
:10101000DA079091DB07863091052CF401969093C6
:10102000DB078093DA070E94D0036093E207709396
:10103000E3078093E4079093E50786E30E94220389
:10104000019709F042C00E94D0030091E607109179
:10105000E7072091E8073091E907AB01BC01401B8D
:10106000510B620B730B8091DE079091DF07092E05
:10107000000CAA0BBB0B84179507A607B70728F52A
:10108000E9EFF3E010E000E080819181892B69F4C1
:1010900082819381892B49F484819581A681B781CE
:1010A000892B8A2B8B2B09F401C20F5F1F4F3896B7
:1010B0000431110549F70E94D0036093E60770934D
:1010C000E7078093E8079093E9070E94FB0A2AE06C
:1010D00030E040E050E00E94530B63307105810521
:1010E0009105E4F50E94D003009156051091570533
:1010F0002091580530915905601B710B820B930BA1
:10110000683E73408105910548F10E94FB0A28E082
:1011100030E040E050E00E94530BE9EBF3E030E0B8
:1011200020E041914111DBC1F901E754FC4F41E05E
:101130004083EAE0E29FA001E39F500D1124FA01F1
:10114000E65AFA4F718360837382628280ED97E082
:1011500095838483168217821086118686E0EBE9D8
:10116000F4E0ABEAB4E001900D928A95E1F780914A
:10117000DA079091DB07019720E430E0082E02C0E7
:10118000359527950A94E2F72093AA04A0EEB0E0E3
:1011900002C0B595A7958A95E2F7A093A90489EABC
:1011A00094E00E94FB0479EF872E73E0972E840170
:1011B000F12CE12C88E0F801DE01119601900D92EE
:1011C0008A95E1F7F801C280D380808191810097F0
:1011D00059F4C114D10441F44D815E816F81788549
:1011E000452B462B472BD1F041E0B6010E946A0403
:1011F000F8E0CF16D1040CF079C1D80112968D9188
:101200009C911397019613969C938E9312970E942C
:10121000D003F8016483758386839783FFEFEF1A09
:10122000FF0A085F1F4F24E1E216F10419F60AE5F0
:1012300015E069EBC62E63E0D62ED6018D916D01C7
:10124000882309F471C0F8010190F081E02DFA873C
:10125000E987D80112960D90BC91A02DBC87AB8771
:10126000F801E480F580268037804084518441E095
:10127000BD0189859A850E946A040E94D003AB0152
:10128000BC014219530964097509C701FF0CAA0B77
:10129000BB0B84179507A607B70708F045C0D80110
:1012A000AD90BC900E94FB0AF801E280F3800E949E
:1012B000FB0A22E030E040E050E00E94530BF1E0F6
:1012C000EF1AF1086E0D7F1DEAE5F5E0A9EBB3E03A
:1012D0008D91882351F080819181A816B90629F457
:1012E000828193816817790799F03A9623E0A93FA4
:1012F000B20771F7F801B182A082738362830E9402
:10130000D003D80116966D937D938D939C93199776
:1013100049855A854830510520F48B859C8597FF77
:1013200003C0F60131971082065F1F4F99EFC9166F
:1013300093E0D90609F081CF4AE5E42E45E0F42E8A
:1013400059EBA52E53E0B52ED5018D915D01882373
:1013500009F45AC0F7014081518182819381209123
:10136000DA073091DB07B9016F5F7F4F46175707E8
:1013700039F4E1E0BC01615071096230710508F097
:10138000E0E0B901615071094617570739F4F1E0FF
:10139000BC01615071096230710508F0F0E042173C
:1013A000530719F421E0019709F020E0E11104C08E
:1013B000F11102C0222341F10E94110586E090E064
:1013C0000E94C60435E0C32E32E0D32E07E010E0C1
:1013D000F801EE0FFF1FEC0DFD1D6081C301801BA6
:1013E000910B0E9491040150110990F76AEF70E08F
:1013F00080E090E00E949E0320E1C20ED11C35EAFD
:10140000C31632E0D30611F74AE0E40EF11C59EF9F
:10141000A51653E0B50609F097CF88E0F401DE0188
:10142000119601900D928A95E1F7D40112968D9153
:101430009C9113972D913C9149815A81452B51F4F0
:10144000009741F44D815E816F817885452B462B55
:10145000472B01F16AE575E0E9EBF3E041914423A4
:1014600091F0DB014D915C9111972417350759F4E8
:1014700012964D915C918417950729F4AF01415064
:101480005109DA011C92665F7F4F49EF53E04E1716
:101490005F0721F758E0850E911C89E994E08815D3
:1014A000990509F0BACF0E948A0243CDE090DA078D
:1014B000F090DB070E94D003E3E0000F111FEA95D4
:1014C000E1F7F801E750FC4FF182E08222E030E0E2
:1014D000338322836483758386839783ECCD2F5F68
:1014E0003F4F2034310509F01CCE38CEC7010E9491
:1014F000DC0394CE07E010E0F801EE0FFF1FEE0DC5
:10150000FF1D6081C301801B910B0E94910401505B
:10151000110990F788E30E9422030197C9F089E33B
:101520000E9422030197A1F086E30E942203019703
:1015300079F06AEF70E080E090E00E949E03A0E105
:10154000EA0EF11CBDE9EB16B3E0FB0699F6ABCF52
:101550001092000283E090E00E94C604A4CF8F9214
:101560009F92AF92BF92CF92DF92EF92FF92CF9372
:10157000DF93EC01688179818A819B816115710516
:101580008105910521F464E279ED8BE597E02DE189
:1015900033EF41E050E00E94530B49015A019B0197
:1015A000AC01A7EAB1E40E94720B6B017C01ACEEC6
:1015B000B4EFA50194010E94800BC60ED71EE81E51
:1015C000F91EF7FE06C081E0C81AD108E10880E8DC
:1015D000F80AC882D982EA82FB82C701B6019F77E6
:1015E000DF91CF91FF90EF90DF90CF90BF90AF90C1
:1015F0009F908F9008958F929F92AF92BF92CF92BB
:10160000DF92EF92FF92609101027091020280914D
:10161000030290910402611571058105910521F481
:1016200064E279ED8BE597E02DE133EF41E050E0A6
:101630000E94530B49015A019B01AC01A7EAB1E496
:101640000E94720B6B017C01ACEEB4EFA50194011A
:101650000E94800BC60ED71EE81EF91EF7FE06C0BC
:1016600081E0C81AD108E10880E8F80AC0920102B6
:10167000D0920202E0920302F0920402C701B60186
:101680009F77FF90EF90DF90CF90BF90AF909F90AB
:101690008F90089560930102709302028093030279
:1016A000909304020895052E97FB1EF400940E9467
:1016B0006A0B57FD07D00E94850B07FC03D04EF440
:1016C0000C946A0B50954095309521953F4F4F4FA4
:1016D0005F4F089590958095709561957F4F8F4FDE
:1016E0009F4F08950E94A70BA59F900DB49F900D4A
:1016F000A49F800D911D11240895B7FF0C94720BC7
:101700000E94720B821B930B0895A1E21A2EAA1B52
:10171000BB1BFD010DC0AA1FBB1FEE1FFF1FA217A1
:10172000B307E407F50720F0A21BB30BE40BF50B9E
:10173000661F771F881F991F1A9469F76095709527
:10174000809590959B01AC01BD01CF010895A29FAA
:10175000B001B39FC001A39F700D811D1124911D85
:10176000B29F700D811D1124911D0895EE0FFF1F72
:10177000881F8BBF0790F691E02D1994F894FFCF46
:10178000010100000000003C00400040004800440F
:1017900000380000000000380044007C0044004491
:1017A0000044000000000044006C00540044004469
:1017B000004400000000007C004000780040004031
:1017C000007C00000000000000000000000000009D
:1017D00000000000000000380044004400440044C1
:1017E0000038000000000044004400440044002889
:1017F000001000000000007C004000780040004025
:10180000007C0000000000300048004800700048E4
:101810000044000000000000000000000000000084
:101820000000000000000000000000000000003C7C
:101830000040003800040044003800000000007C34
:101840000010001000100010001000000000003810
:101850000044007C004400440044000000000030CC
:101860000048004800700048004400000000007C70
:101870000010001000100010001000000000000018
:101880000000000000000000000000000000004414
:1018900000640054004C0044004400000000007C40
:1018A0000040007800400040007C00000000000084
:1018B00000440054005400540038000000000000B0
:1018C0000000000000000000000000000000003CDC
:1018D000004000400048004400380000000000388C
:1018E0000044007C00440044004400000000004428
:1018F000006C005400440044004400000000007CE0
:101900000040007800400040007C00000000000023
:1019100000000000000000000000000000000000C7
:10192000001D028701B4016A02E501C301D701006D
:00000001FF
