:100000000C9435010C9466010C9466010C94660105
:100010000C9466010C9466010C9466010C946601C4
:100020000C9466010C9466010C9466010C946601B4
:100030000C9466010C9466010C9466010C946601A4
:100040000C9466010C9466010C9466010C94660194
:100050000C9466010C9466010C9466010C940B06DA
:100060000C9466010C94D5050C94AB050C946601B8
:100070000C9466010C9466010C9466010C94660164
:100080000C9466010C9466010C9466010C94660154
:100090000C9466010C9466010C9466010C94660144
:1000A0000C9466010C9466010C9466010C94660134
:1000B0000C9466010C9466010C9466010C94660124
:1000C0000C9466010C9466010C9466010C94660114
:1000D0000C9466010C9466010C9466010C94660104
:1000E0000C9466010C94B4010C940C030C9455060A
:1000F0000C94FE020C9406030C9410030C94F8026A
:100100000C946A020C94E7020C941A030C941403E6
:100110000C94E5010C941D020C94E3020C94EB0288
:100120000C94DF020C94C3010C94F4020C94D902D9
:100130000C9487010C9402030C941E030C94190375
:100140000C94EE020C94D70100002000230026003E
:1001500029002C002F0032000001000003010601DD
:10016000090100000A0B02090C0D0E080703040127
:10017000000000000000000000000000000000007F
:10018000000000000000000000000000000012114C
:10019000100000000000000000000000000000004F
:1001A00000000000000000000000220025002800E0
:1001B0002B002E003100340002010000050108016F
:1001C0000B0100002100240027002A002D00300030
:1001D000330001010000040107010A0105050505BE
:1001E000070508080808020202020A0A08080404AF
:1001F00004040101010101010101030303030303DD
:100200000303040707070C0C0C0C0C0C0C0C02026B
:10021000020206060606060606060B0B0B0B0B0B68
:100220000B0B0102102020080810204010204080F5
:1002300002010201080402010102040810204080AA
:100240008040201008040201800402018040201038
:100250000804020108040201010204081020408081
:100260000102040810204080550611241FBECFEF64
:10027000D1E2DEBFCDBF00E00CBF13E0A0E0B2E0F2
:10028000E0EDF8E100E00BBF02C007900D92A23B49
:10029000B107D9F728E0A2EBB3E001C01D92A43367
:1002A000B207E1F711E0C5E3D1E000E006C0219715
:1002B0000109802FFE010E945E0CC433D10780E04B
:1002C0000807A9F70E942B070C94660C0C940000F9
:1002D00090E0FC01EE5DFD4F249184529E4FFC01A5
:1002E0008491882399F090E0880F991FFC01EE53C8
:1002F000FE4FA591B491FC01E855FE4F8591949174
:100300008FB7F894EC91E22BEC938FBF0895AF92E6
:10031000BF92CF92DF92EF92FF920F931F93CF93F2
:10032000DF936C017B018B01040F151FEB015E0154
:10033000AE18BF08C017D10759F06991D601ED91E9
:10034000FC910190F081E02DC6011995892B79F778
:10035000C501DF91CF911F910F91FF90EF90DF903A
:10036000CF90BF90AF900895FC01538D448D252F01
:1003700030E0842F90E0821B930B541710F0CF963F
:10038000089501970895FC01918D828D981761F071
:10039000A28DAE0FBF2FB11D5D968C91928D9F5F88
:1003A0009F73928F90E008958FEF9FEF0895FC0167
:1003B000918D828D981731F0828DE80FF11D858D1A
:1003C00090E008958FEF9FEF0895FC01918D228DAD
:1003D000892F90E0805C9F4F821B91098F73992732
:1003E00008958BEA94E00E94E50121E0892B09F44D
:1003F00020E0822F0895FC01A48DA80FB92FB11D14
:10040000A35ABF4F2C91848D90E001968F7399274A
:10041000848FA689B7892C93A089B1898C91837028
:1004200080648C93938D848D981306C00288F38921
:10043000E02D80818F7D80830895EF92FF920F934E
:100440001F93CF93DF93EC0181E0888F9B8D8C8D80
:1004500098131AC0E889F989808185FF15C09FB774
:10046000F894EE89FF896083E889F9898081837037
:10047000806480839FBF81E090E0DF91CF911F91E6
:100480000F91FF90EF900895F62E0B8D10E00F5F07
:100490001F4F0F731127E02E8C8D8E110CC00FB6DD
:1004A00007FCFACFE889F989808185FFF5CFCE0175
:1004B0000E94FB01F1CFEB8DEC0FFD2FF11DE35AF4
:1004C000FF4FF0829FB7F8940B8FEA89FB898081F8
:1004D0008062CFCFCF93DF93EC01888D8823B9F072
:1004E000AA89BB89E889F9898C9185FD03C080813F
:1004F00086FD0DC00FB607FCF7CF8C9185FFF2CFBC
:10050000808185FFEDCFCE010E94FB01E9CFDF9115
:10051000CF91089580E090E0892B29F00E94F101AD
:1005200081110E94000080E090E0892B49F080E07A
:1005300090E0892B29F00E94000081110E940000A8
:1005400080E090E0892B49F080E090E0892B29F051
:100550000E94000081110E94000080E090E0892B41
:1005600049F080E090E0892B29F00E940000811181
:100570000C94000008958150823108F05AC0E82F91
:10058000F0E08827E953FD4F8F4F0C945E0CE70293
:10059000EB02D902DF02E3021903EE02F402F802D1
:1005A000FE02020306030C031003190314031A03CB
:1005B0001E03809180008F77809380000895809142
:1005C00080008F7DF9CF80918000877FF5CF84B543
:1005D0008F7784BD089584B58F7DFBCF8091B00067
:1005E0008F778093B00008958091B0008F7DF9CF10
:1005F000809190008F778093900008958091900073
:100600008F7DF9CF80919000877FF5CF8091A000FA
:100610008F778093A00008958091A0008F7DF9CFFF
:100620008091A000877FF5CF809120018F77809304
:1006300020010895809120018F7DF9CF80912001C4
:10064000877FF5CFCF93DF93282F30E0F901EE5964
:10065000FE4F8491F901EE5DFD4FD491F901E45212
:10066000FE4FC491CC23A1F081110E94BB02EC2F5C
:10067000F0E0EE0FFF1FE85BFE4FA591B491EC9107
:10068000ED2381E090E009F480E0DF91CF910895BF
:1006900080E090E0FACF1F93CF93DF93282F30E0D4
:1006A000F901EE59FE4F8491F901EE5DFD4FD491B1
:1006B000F901E452FE4FC491CC23A9F0162F811109
:1006C0000E94BB02EC2FF0E0EE0FFF1FE855FE4F3B
:1006D000A591B4918FB7F894EC91111108C0D09501
:1006E000DE23DC938FBFDF91CF911F910895DE2B26
:1006F000F8CF863308F0865320917B00982F9870AE
:10070000277F922B90937B008770806480937C007E
:1007100080917A00806480937A0080917A0086FDCF
:10072000FCCF809178009091790008953FB7F894BC
:100730008091B7039091B803A091B903B091BA0327
:1007400026B5A89B05C02F3F19F00196A11DB11D2C
:100750003FBFBA2FA92F982F8827BC01CD01620F68
:10076000711D811D911D42E0660F771F881F991F23
:100770004A95D1F708958F929F92AF92BF92CF92F0
:10078000DF92EF92FF924B015C010E9496036B0196
:100790007C010E9496036C197D098E099F09683EB1
:1007A000734081059105A8F321E0821A9108A10800
:1007B000B10888EEC80E83E0D81EE11CF11C81143C
:1007C0009104A104B10429F7FF90EF90DF90CF903E
:1007D000BF90AF909F908F9008952FB7F89460913D
:1007E000B3037091B4038091B5039091B6032FBF0A
:1007F000089523E0880F991F2A95E1F7DC01A550A1
:10080000BC4F88E0E5EAF2E001900D928A95E1F7AD
:100810000895CF92DF92EF92FF920F931F93CF93A1
:10082000DF931F921F92CDB7DEB769834A83880F8B
:10083000991F0091320810913308000F111FECED41
:10084000F7E09F012C5D37402017310714F4119217
:10085000F8CF2981FC01E452F84F21838A818083FB
:1008600060E0809130080E944B031016110604F5D9
:1008700001501109F801E452F84FE080D0902E08A1
:10088000C0902C0888E0F82E6E2D661F6627661F24
:100890008C2D0E944B03EE0C61E08D2D0E944B03CA
:1008A00060E08D2D0E944B03FA94F110EDCFDDCF67
:1008B00061E0809130080F900F90DF91CF911F91F0
:1008C0000F91FF90EF90DF90CF900C944B03EF923D
:1008D000FF920F931F93CF937C018C0183E0000F55
:1008E000111F8A95E1F70451184FC1E0F8011192E8
:1008F0008F0140E06C2FC7010E940904CF5FC9300F
:10090000A9F7CF911F910F91FF90EF90089520913B
:1009100032083091330812161306FCF48830910522
:10092000E0F468307105C8F420E830E002C0359585
:1009300027956A95E2F7FC01E452F84F5089442369
:1009400049F0252B208B61E0680F408990E080E022
:100950000C94090420952523F5CF0895CF92DF92BA
:10096000EF92FF920F931F93CF93DF932091320862
:100970003091330812161306ECF488309105D1F04B
:100980007C01D0E0C0E0062F10E087E0C82ED12C1B
:10099000C6018C1B9D0BA80102C0559547958A95F1
:1009A000E2F74170B701CE010E9487042196C8305A
:1009B000D10571F7DF91CF911F910F91FF90EF90CB
:1009C000DF90CF900895EF92FF920F931F93CF93F4
:1009D000DF937C0110E000E0D0E0C0E06FEFCE01DB
:1009E0000E94AE042196C830D105C1F762E370E0E1
:1009F00080E090E00E94BB03D0E0C0E060E0CE0168
:100A00000E94AE042196C830D105C1F762E370E0C0
:100A100080E090E00E94BB030F5F1F4FE016F106DD
:100A2000D9F6DF91CF911F910F91FF90EF9008952C
:100A30000F931F93CF93DF938C01D0E0C0E0F801B8
:100A400061918F01CE010E94AE042196C830D1057C
:100A5000B1F7DF91CF911F910F910895CF93DF935D
:100A600081E0809300028BE994E00E94180584E005
:100A700090E09093CD078093CC0782E390E0909331
:100A8000CF078093CE0788EC90E09093D1078093B6
:100A9000D007EBEBF3E08BEF93E011928E179F07FB
:100AA000E1F7D0E0C0E0CE010E94F9032196C43105
:100AB000D105C9F7DF91CF9108958F929F92AF92A0
:100AC000BF920F931F93CF93DF93CDB7DEB7A1975C
:100AD0000FB6F894DEBF0FBECDBF19A2423008F4A6
:100AE0004AE08E010F5D1F4F842E912CB12CA12C5A
:100AF000A50194010E942D0CE62FB901CA01EA302C
:100B000044F5E05DD801EE938D01232B242B252B9A
:100B100079F790E080E0109769F0FD0101900020E6
:100B2000E9F73197AF014A1B5B0BBD018BEA94E0FB
:100B30000E948701A1960FB6F894DEBF0FBECDBF0D
:100B4000DF91CF911F910F91BF90AF909F908F90A9
:100B50000895E95CD7CF1F920F920FB60F92112420
:100B60000BB60F922F933F934F935F936F937F93A7
:100B70008F939F93AF93BF93EF93FF938BEA94E090
:100B80000E94FB01FF91EF91BF91AF919F918F91D7
:100B90007F916F915F914F913F912F910F900BBE7D
:100BA0000F900FBE0F901F9018951F920F920FB6C7
:100BB0000F9211240BB60F922F938F939F93EF9365
:100BC000FF93E091BB04F091BC048081E091C104EB
:100BD000F091C20482FD1DC090818091C4048F5F9A
:100BE0008F732091C504821741F0E091C404F0E0B6
:100BF000E555FB4F958F8093C404FF91EF919F9132
:100C00008F912F910F900BBE0F900FBE0F901F90E2
:100C100018958081F2CF1F920F920FB60F92112478
:100C20002F933F938F939F93AF93BF938091B30381
:100C30009091B403A091B503B091B6033091B20383
:100C400023E0230F2D3758F50196A11DB11D2093E8
:100C5000B2038093B3039093B403A093B503B0930E
:100C6000B6038091B7039091B803A091B903B091F6
:100C7000BA030196A11DB11D8093B7039093B803E9
:100C8000A093B903B093BA03BF91AF919F918F9195
:100C90003F912F910F900FBE0F901F90189526E84F
:100CA000230F0296A11DB11DD2CFCF93DF931092D7
:100CB000AE041092AD0488EE93E0A0E0B0E0809323
:100CC000AF049093B004A093B104B093B20481EA4E
:100CD00093E09093AC048093AB0485EC90E0909308
:100CE000B8048093B70484EC90E09093BA048093A6
:100CF000B90480EC90E09093BC048093BB0481EC39
:100D000090E09093BE048093BD0482EC90E09093B9
:100D1000C0048093BF0486EC90E09093C20480935B
:100D2000C1041092C4041092C5041092C60410921B
:100D3000C704C3E3D0E0D0932D08C0932C0884E30C
:100D400090E090932F0880932E0885E390E0909395
:100D500031088093300881E090E0909333088093CD
:100D6000320883E30E94680180912E080E94680186
:100D7000809130080E94680161E0809130080E94F3
:100D80004B03D0932D08C0932C08ECEEF7E08CE2D7
:100D900098E011928E179F07E1F7D0E0C0E08091B4
:100DA000320890913308C817D90774F540E06FE016
:100DB000CE010E9409048091320890913308C8172F
:100DC000D9072CF447E06BE0CE010E94090440E013
:100DD00069E0CE010E9409048091320890913308A5
:100DE000C817D9071CF4CE010E946704809132080D
:100DF00090913308C817D9072CF440E06CE0CE017D
:100E00000E9409042196CBCF1092D3071092D207EB
:100E1000ECE4F5E08CEC97E06AE047E050E020ED90
:100E200037E0DF01762F1D927A95E9F753834283ED
:100E3000358324833A968E179F0799F70E94ED0316
:100E4000609348057093490580934A0590934B053C
:100E5000DF91CF910895CF93DF93CDB7DEB72C9775
:100E60000FB6F894DEBF0FBECDBF789484B5826014
:100E700084BD84B5816084BD85B5826085BD85B53E
:100E8000816085BD80916E00816080936E001092BC
:100E90008100809181008260809381008091810037
:100EA00081608093810080918000816080938000C8
:100EB0008091B10084608093B1008091B000816026
:100EC0008093B00080919100826080939100809126
:100ED0009100816080939100809190008160809367
:100EE00090008091A10082608093A1008091A10078
:100EF00081608093A1008091A00081608093A00018
:100F00008091210182608093210180912101816083
:100F10008093210180912001816080932001809144
:100F20007A00846080937A0080917A008260809356
:100F30007A0080917A00816080937A0080917A00B3
:100F4000806880937A001092C100E091BB04F09118
:100F5000BC0482E08083E091B704F091B804108271
:100F6000E091B904F091BA048FEC80831092C3042D
:100F7000E091BF04F091C00486E08083E091BD045D
:100F8000F091BE04808180618083E091BD04F09186
:100F9000BE04808188608083E091BD04F091BE042E
:100FA000808180688083E091BD04F091BE048081DF
:100FB0008F7D80838091320890913308181619062E
:100FC00034F441E06CE090E080E00E9409048091FC
:100FD0003208909133081816190634F44FE06AE08D
:100FE00090E080E00E9409048091320890913308DB
:100FF0001816190624F490E080E00E9467040E940D
:101000002E05F7E06F2E712C87E30E9479036C01A7
:10101000990FEE08FF084AE0C701B601F7FE0DC0C0
:101020006DE28BEA94E00E941D0266277727CB01D0
:101030006C197D098E099F094AE00E945D0542E016
:1010400050E06FEA73E08BEA94E00E94870187E347
:101050000E9479032091320830913308892B09F0DE
:10106000C2C241E0121613060CF4C2C28091000203
:101070009DEAE92E92E0F92E8111E4C288E30E94F4
:1010800022030197C9F58091CC079091CD07029773
:101090009CF10E94ED030091D4071091D507209197
:1010A000D6073091D707AB01BC01401B510B620B37
:1010B000730B8091CE079091CF07092E000CAA0BDD
:1010C000BB0B84179507A607B707B0F48091CC0730
:1010D0009091CD07823091052CF001979093CD0728
:1010E0008093CC070E94ED036093D4077093D507DB
:1010F0008093D6079093D70789E30E942203019734
:10110000C9F58091CC079091CD0706979CF50E9478
:10111000ED030091D4071091D5072091D6073091A7
:10112000D707AB01BC01401B510B620B730B8091C5
:10113000CE079091CF07092E000CAA0BBB0B84178A
:101140009507A607B707B0F48091CC079091CD071B
:10115000863091052CF401969093CD078093CC07AF
:101160000E94ED036093D4077093D5078093D60750
:101170009093D70786E30E942203019709F042C0AB
:101180000E94ED030091D8071091D9072091DA074A
:101190003091DB07AB01BC01401B510B620B730BA1
:1011A0008091D0079091D107092E000CAA0BBB0BA0
:1011B00084179507A607B70728F5EBEFF3E010E0D3
:1011C00000E080819181892B69F482819381892B50
:1011D00049F484819581A681B781892B8A2B8B2B39
:1011E00009F40CC20F5F1F4F38960431110549F7FF
:1011F0000E94ED036093D8077093D9078093DA07B4
:101200009093DB070E94A30B2AE030E040E050E01F
:101210000E94FB0B6330710581059105E4F50E9486
:10122000ED03009148051091490520914A05309140
:101230004B05601B710B820B930B683E734081055D
:10124000910548F10E94A30B28E030E040E050E017
:101250000E94FB0BEBEBF3E030E020E04191411109
:10126000E6C1F901E554FC4F41E04083EAE0E29F2A
:10127000A001E39F500D1124FA01E45BFA4F718342
:1012800060837382628280ED97E095838483168207
:1012900017821086118688E0EBE9F4E0A3EAB4E057
:1012A00001900D928A95E1F78091CC079091CD073E
:1012B000019720E430E0082E02C0359527950A9466
:1012C000E2F72093A40460EE70E002C07595679584
:1012D0008A95E2F76093A30483EA94E00E941805DC
:1012E0007BEF872E73E0972E8401F12CE12C88E0B0
:1012F000F801DE01119601900D928A95E1F7D8016F
:101300001296CD90DC9013978D919C91009759F493
:10131000C114D10441F44D815E816F817885452BE4
:10132000462B472BC1F041E0B6010E948704B8E08C
:10133000CB16D1040CF082C1F80182819381019611
:10134000938382830E94ED03D80114966D937D935D
:101350008D939C931797BFEFEB1AFB0A085F1F4F03
:10136000E4E1EE16F10419F60CE415E06BEBC62E81
:1013700063E0D62ED6018D916D01882309F471C0EA
:10138000F8010190F081E02DFC87EB87D8011296DF
:101390000D90BC91A02DBA87A987F801E480F58053
:1013A000268037804084518441E0BD018B859C8537
:1013B0000E9487040E94ED03AB01BC01421953094E
:1013C00064097509C701FF0CAA0BBB0B84179507AD
:1013D000A607B70708F045C0D801AD90BC900E94A1
:1013E000A30BF801E280F3800E94A30B22E030E01F
:1013F00040E050E00E94FB0BF1E0EF1AF1086E0DA7
:101400007F1DECE4F5E0ABEBB3E08D91882351F068
:1014100080819181A816B90629F482819381681789
:10142000790799F03A9623E0AB3FB20771F7F801DC
:10143000B182A082738362830E94ED03D801169665
:101440006D937D938D939C9319976B857C85683004
:10145000710520F489859A8597FF03C0F6013197BD
:101460001082065F1F4F9BEFC91693E0D90609F063
:1014700081CF4CE4E42E45E0F42E5BEBA52E53E047
:10148000B52ED5018D915D01882309F45AC0F7016D
:1014900040815181828193812091CC073091CD0789
:1014A000B9016F5F7F4F4617570739F4E1E0BC0180
:1014B000615071096230710508F0E0E0B9016150D6
:1014C00071094617570739F4F1E0BC016150710901
:1014D0006230710508F0F0E04217530719F421E07B
:1014E000019709F020E0E11104C0F11102C02223AC
:1014F00041F10E942E0586E090E00E94E30435E071
:10150000C32E32E0D32E07E010E0F801EE0FFF1FEC
:10151000EC0DFD1D6081C301801B910B0E94AE0488
:101520000150110990F76AEF70E080E090E00E94AE
:10153000BB0320E1C20ED11C65EA72E06C157D058B
:1015400011F77AE0E70EF11C8BEFA81683E0B806DE
:1015500009F097CF2BE934E088E0F401DE01119621
:1015600001900D928A95E1F7D40112968D919C918C
:1015700013974D915C9169817A81672B51F40097A3
:1015800041F4CD80DE80EF80F884CD28CE28CF28AE
:1015900001F10CE415E0EBEBF3E06191662391F0CF
:1015A000D8016D917C9111974617570759F41296FF
:1015B0006D917C916817790729F4BF016150710919
:1015C000DB011C92065F1F4F6BEF73E06E177F0706
:1015D00021F778E0870E911C2815390509F0BCCF5A
:1015E0000E948A0211CD121613060CF03FCD40E086
:1015F0006CE090E080E00E94090438CDE090CC07D8
:10160000F090CD070E94ED03E3E0000F111FEA9573
:10161000E1F7F801E550FC4FF182E08222E030E092
:10162000338322836483758386839783E1CD2F5F21
:101630003F4F2034310509F011CE2DCEC7010E9455
:10164000F90389CE07E010E0F801EE0FFF1FEE0D61
:10165000FF1D6081C301801B910B0E94AE040150ED
:10166000110990F788E30E9422030197C9F089E3EA
:101670000E9422030197A1F086E30E9422030197B2
:1016800079F06AEF70E080E090E00E94BB0390E1A7
:10169000E90EF11CADE9B3E0AE15BF0599F6A0CF98
:1016A0001092000283E090E00E94E30499CF8F92B1
:1016B0009F92AF92BF92CF92DF92EF92FF92CF9321
:1016C000DF93EC01688179818A819B8161157105C5
:1016D0008105910521F464E279ED8BE597E02DE138
:1016E00033EF41E050E00E94FB0B49015A019B019E
:1016F000AC01A7EAB1E40E941A0C6B017C01ACEECC
:10170000B4EFA50194010E94280CC60ED71EE81E56
:10171000F91EF7FE06C081E0C81AD108E10880E88A
:10172000F80AC882D982EA82FB82C701B6019F7794
:10173000DF91CF91FF90EF90DF90CF90BF90AF906F
:101740009F908F9008958F929F92AF92BF92CF9269
:10175000DF92EF92FF9260910102709102028091FC
:10176000030290910402611571058105910521F430
:1017700064E279ED8BE597E02DE133EF41E050E055
:101780000E94FB0B49015A019B01AC01A7EAB1E49D
:101790000E941A0C6B017C01ACEEB4EFA501940120
:1017A0000E94280CC60ED71EE81EF91EF7FE06C0C2
:1017B00081E0C81AD108E10880E8F80AC092010265
:1017C000D0920202E0920302F0920402C701B60135
:1017D0009F77FF90EF90DF90CF90BF90AF909F905A
:1017E0008F90089560930102709302028093030228
:1017F000909304020895052E97FB1EF400940E9416
:10180000120C57FD07D00E942D0C07FC03D04EF49C
:101810000C94120C50954095309521953F4F4F4FA9
:101820005F4F089590958095709561957F4F8F4F8C
:101830009F4F08950E944F0CA59F900DB49F900D4F
:10184000A49F800D911D11240895B7FF0C941A0CCC
:101850000E941A0C821B930B0895A1E21A2EAA1B58
:10186000BB1BFD010DC0AA1FBB1FEE1FFF1FA21750
:10187000B307E407F50720F0A21BB30BE40BF50B4D
:10188000661F771F881F991F1A9469F760957095D6
:10189000809590959B01AC01BD01CF010895A29F59
:1018A000B001B39FC001A39F700D811D1124911D34
:1018B000B29F700D811D1124911D0895EE0FFF1F21
:1018C000881F8BBF0790F691E02D1994F894FFCFF5
:1018D000010100000000003C0040004000480044BE
:1018E00000380000000000380044007C0044004440
:1018F0000044000000000044006C00540044004418
:10190000004400000000007C0040007800400040DF
:10191000007C00000000000000000000000000004B
:10192000000000000000003800440044004400446F
:101930000038000000000044004400440044002837
:10194000001000000000007C0040007800400040D3
:10195000007C000000000030004800480070004893
:101960000044000000000000000000000000000033
:101970000000000000000000000000000000003C2B
:101980000040003800040044003800000000007CE3
:1019900000100010001000100010000000000038BF
:1019A0000044007C0044004400440000000000307B
:1019B0000048004800700048004400000000007C1F
:1019C00000100010001000100010000000000000C7
:1019D00000000000000000000000000000000044C3
:1019E00000640054004C0044004400000000007CEF
:1019F0000040007800400040007C00000000000033
:101A0000004400540054005400380000000000005E
:101A10000000000000000000000000000000003C8A
:101A2000004000400048004400380000000000383A
:101A30000044007C004400440044000000000044D6
:101A4000006C005400440044004400000000007C8E
:101A50000040007800400040007C000000000000D2
:101A60000000000000000000000000000000000076
:101A7000001D028701B4016A02E501C301D7010D0F
:021A80000A005A
:00000001FF
