:100000000C9428010C9459010C9459010C94590139
:100010000C9459010C9459010C9459010C945901F8
:100020000C9459010C9459010C9459010C945901E8
:100030000C9459010C9459010C9459010C945901D8
:100040000C9459010C9459010C9459010C945901C8
:100050000C9459010C9459010C9459010C94990475
:100060000C9459010C9463040C9439040C945901B8
:100070000C9459010C9459010C9459010C94590198
:100080000C9459010C9459010C9459010C94590188
:100090000C9459010C9459010C9459010C94590178
:1000A0000C9459010C9459010C9459010C94590168
:1000B0000C9459010C9459010C9459010C94590158
:1000C0000C9459010C9459010C9459010C94590148
:1000D0000C9459010C9459010C9459010C94590138
:1000E0000C9459010C9404030C9422030C943403D3
:1000F0000C94F9020C945D020C94E3020C94260318
:100100000C94D8010C9410020C94F5020C94DE02AD
:100110000C94B6010C94CA010C940E030C941803B1
:100120000C9414030C9401030C941C030C94FD0216
:100130000C947A010C942A030C94A7010C943003BC
:100140000C940A030C94E30400000A0B02090C0D42
:100150000E0807030401000000000000000000007A
:10016000000000000000000000000000000000008F
:10017000000000001211100000000000000000004C
:10018000000000000000000000000000000000006F
:100190002200250028002B002E003100340002012F
:1001A0000000050108010B010000210024002700C8
:1001B0002A002D0030003300010100000401070176
:1001C0000A010505050507050808080802020202DC
:1001D0000A0A0808040404040101010101010101E3
:1001E0000303030303030303040707070C0C0C0CAE
:1001F0000C0C0C0C02020202060606060606060697
:100200000B0B0B0B0B0B0B0B010210202008081023
:100210002040102040800201020108040201010276
:10022000040810204080804020100804020180044F
:1002300002018040201008040201080402010102AA
:100240000408102040800102040810204080E304CC
:1002500011241FBECFEFD1E2DEBFCDBF00E00CBF47
:1002600014E0A0E0B2E0E8ECFFE000E00BBF02C069
:1002700007900D92A233B107D9F725E0A2E3B4E0CD
:1002800001C01D92AC3BB207E1F711E0C8E2D1E03A
:1002900000E006C021970109802FFE010E94DA07C5
:1002A000C732D10780E00807A9F70E9494050C9493
:1002B000E2070C94000090E0FC01E85FFD4F249100
:1002C0008E539E4FFC018491882399F090E0880F13
:1002D000991FFC01E855FE4FA591B491FC01E2572E
:1002E000FE4F859194918FB7F894EC91E22BEC93AB
:1002F0008FBF0895AF92BF92CF92DF92EF92FF929D
:100300000F931F93CF93DF936C017B018B01040F3D
:10031000151FEB015E01AE18BF08C017D10759F0D9
:100320006991D601ED91FC910190F081E02DC6011B
:100330001995892B79F7C501DF91CF911F910F9105
:10034000FF90EF90DF90CF90BF90AF900895FC01A9
:10035000538D448D252F30E0842F90E0821B930B2A
:10036000541710F0CF96089501970895FC01918DD0
:10037000828D981761F0A28DAE0FBF2FB11D5D96D3
:100380008C91928D9F5F9F73928F90E008958FEF75
:100390009FEF0895FC01918D828D981731F0828D29
:1003A000E80FF11D858D90E008958FEF9FEF089580
:1003B000FC01918D228D892F90E0805C9F4F821BE4
:1003C00091098F739927089587EC94E00E94D801D2
:1003D00021E0892B09F420E0822F0895FC01A48DEF
:1003E000A80FB92FB11DA35ABF4F2C91848D90E057
:1003F00001968F739927848FA689B7892C93A0893A
:10040000B1898C91837080648C93938D848D9813C3
:1004100006C00288F389E02D80818F7D8083089556
:10042000EF92FF920F931F93CF93DF93EC0181E044
:10043000888F9B8D8C8D98131AC0E889F9898081EB
:1004400085FF15C09FB7F894EE89FF896083E8891E
:10045000F98980818370806480839FBF81E090E010
:10046000DF91CF911F910F91FF90EF900895F62E9D
:100470000B8D10E00F5F1F4F0F731127E02E8C8D37
:100480008E110CC00FB607FCFACFE889F98980817C
:1004900085FFF5CFCE010E94EE01F1CFEB8DEC0F81
:1004A000FD2FF11DE35AFF4FF0829FB7F8940B8F99
:1004B000EA89FB8980818062CFCFCF93DF93EC0103
:1004C000888D8823B9F0AA89BB89E889F9898C913C
:1004D00085FD03C0808186FD0DC00FB607FCF7CFF8
:1004E0008C9185FFF2CF808185FFEDCFCE010E94F8
:1004F000EE01E9CFDF91CF91089580E090E0892B64
:1005000029F00E94E40181110E94000080E090E047
:10051000892B49F080E090E0892B29F00E940000AF
:1005200081110E94000080E090E0892B49F080E07A
:1005300090E0892B29F00E94000081110E940000A8
:1005400080E090E0892B49F080E090E0892B29F051
:100550000E94000081110C9400000895282F30E0C3
:10056000F901E85BFE4F9491F901E85FFD4F44917A
:100570002E533E4FF9012491222309F435C09923CB
:1005800011F191509231F8F4E92FF0E08827E4530B
:10059000FD4F8F4F0C94DA07FD020103DE02F502D6
:1005A000F902E30204030A030E03140318031C03F5
:1005B00022032603E3022A033003340380918000E0
:1005C0008F7780938000E22FF0E0EE0FFF1FE2575D
:1005D000FE4FA591B4918FB7F894EC91611148C08A
:1005E00040954E234C938FBF0895809180008F7D5E
:1005F000E8CF80918000877FE4CF84B58F7784BD7A
:10060000E2CF84B58F7DFBCF8091B0008F77809350
:10061000B000D9CF8091B0008F7DF9CF809190004C
:100620008F7780939000CFCF809190008F7DF9CF0E
:1006300080919000877FF5CF8091A0008F77809385
:10064000A000C1CF8091A0008F7DF9CF8091A00044
:10065000877FF5CF809120018F7780932001B3CFE2
:10066000809120018F7DF9CF80912001877FF5CF88
:100670004E2BB8CF3FB7F894809133049091340457
:10068000A0913504B091360426B5A89B05C02F3F34
:1006900019F00196A11DB11D3FBFBA2FA92F982FA8
:1006A0008827BC01CD01620F711D811D911D42E0A3
:1006B000660F771F881F991F4A95D1F70895CF922B
:1006C000DF92EF92FF920E943A036B017C010E943D
:1006D0003A036C197D098E099F09683E73408105B4
:1006E0009105A8F3FF90EF90DF90CF9008950F93BE
:1006F0001F93CF93DF93C0E1D4E000E012E0888144
:10070000229660E00E94AE02F80180810E5F1F4FCA
:1007100061E00E94AE02F4E0C032DF0781F7DF91B2
:10072000CF911F910F910895CF92DF92EF92FF9298
:100730000F931F93CF93DF931F921F92CDB7DEB716
:1007400069834A83880F991F0091BA051091BB05F0
:10075000000F111FE4E6F5E09F01245635402017F5
:10076000310714F41192F8CF2981FC01EC59FA4FAA
:1007700021838A81808360E08091B8050E94AE0267
:100780001016110604F501501109F801EC59FA4F41
:10079000E080D090B605C090B40588E0F82E6E2DAC
:1007A000661F6627661F8C2D0E94AE02EE0C61E06C
:1007B0008D2D0E94AE0260E08D2D0E94AE02FA9453
:1007C000F110EDCFDDCF61E08091B8050F900F9073
:1007D000DF91CF911F910F91FF90EF90DF90CF901D
:1007E0000C94AE02EF92FF920F931F93CF937C0174
:1007F0008C0183E0000F111F8A95E1F70C581A4F06
:10080000C1E0F80111928F0140E06C2FC7010E94F6
:100810009403CF5FC930A9F7CF911F910F91FF903B
:10082000EF9008952091BA053091BB05121613067A
:10083000FCF488309105E1F068307105C9F020E8DA
:1008400030E002C0359527956A95E2F7FC01EC5936
:10085000FA4F5089442349F0252B208B61E0680F23
:10086000408990E080E00C94940320952523F5CFF7
:1008700008951F920F920FB60F9211240BB60F928C
:100880002F933F934F935F936F937F938F939F9398
:10089000AF93BF93EF93FF9387EC94E00E94EE0138
:1008A000FF91EF91BF91AF919F918F917F916F9148
:1008B0005F914F913F912F910F900BBE0F900FBE04
:1008C0000F901F9018951F920F920FB60F92112440
:1008D0000BB60F922F938F939F93EF93FF93E0911B
:1008E000D704F091D8048081E091DD04F091DE041A
:1008F00082FD1DC090818091E0048F5F8F732091F5
:10090000E104821741F0E091E004F0E0E953FB4F8D
:10091000958F8093E004FF91EF919F918F912F919C
:100920000F900BBE0F900FBE0F901F9018958081F7
:10093000F2CF1F920F920FB60F9211242F933F9375
:100940008F939F93AF93BF93809137049091380416
:10095000A0913904B0913A043091320423E0230F7E
:100960002D3758F50196A11DB11D209332048093B7
:10097000370490933804A0933904B0933A048091DB
:10098000330490913404A0913504B091360401965B
:10099000A11DB11D8093330490933404A0933504BA
:1009A000B0933604BF91AF919F918F913F912F915A
:1009B0000F900FBE0F901F90189526E8230F0296F8
:1009C000A11DB11DD2CFCF93DF931092CA04109214
:1009D000C90488EE93E0A0E0B0E08093CB0490934C
:1009E000CC04A093CD04B093CE0484E294E0909321
:1009F000C8048093C70485EC90E09093D40480935E
:100A0000D30484EC90E09093D6048093D50480ECDA
:100A100090E09093D8048093D70481EC90E0909379
:100A2000DA048093D90482EC90E09093DC04809304
:100A3000DB0486EC90E09093DE048093DD0410925A
:100A4000E0041092E1041092E2041092E304CBE07F
:100A5000D0E0D093B505C093B4058DE090E09093BD
:100A6000B7058093B6058AE090E09093B90580932E
:100A7000B80581E090E09093BB058093BA058BE0C8
:100A80000E945B018091B6050E945B018091B805D0
:100A90000E945B0161E08091B8050E94AE02D09394
:100AA000B505C093B405E4E7F5E0119285E0E43BB9
:100AB000F807D9F7D0E0C0E08091BA059091BB0566
:100AC000C817D90774F540E06FE0CE010E94940387
:100AD0008091BA059091BB05C817D9072CF447E05F
:100AE0006BE0CE010E94940340E069E0CE010E94D9
:100AF00094038091BA059091BB05C817D9071CF4DF
:100B0000CE010E94F2038091BA059091BB05C817EF
:100B1000D9072CF440E06CE0CE010E9494032196AA
:100B2000CBCFDF91CF910895CF93DF9300D000D04A
:100B30001F921F92CDB7DEB7789484B5826084BDD2
:100B400084B5816084BD85B5826085BD85B58160D1
:100B500085BD80916E00816080936E00109281004F
:100B6000809181008260809381008091810081600A
:100B700080938100809180008160809380008091CB
:100B8000B10084608093B1008091B0008160809357
:100B9000B0008091910082608093910080919100DB
:100BA000816080939100809190008160809390009B
:100BB0008091A10082608093A1008091A10081605A
:100BC0008093A1008091A00081608093A00080911B
:100BD00021018260809321018091210181608093B5
:100BE00021018091200181608093200180917A0011
:100BF000846080937A0080917A00826080937A008A
:100C000080917A00816080937A0080917A00806878
:100C100080937A001092C100E091D704F091D8043B
:100C200082E08083E091D304F091D4041082E091BB
:100C3000D504F091D6048FEC80831092DF04E0910C
:100C4000DB04F091DC0486E08083E091D904F0912C
:100C5000DA04808180618083E091D904F091DA0424
:100C6000808188608083E091D904F091DA048081EA
:100C700080688083E091D904F091DA0480818F7DCF
:100C800080838091BA059091BB051816190634F43B
:100C900041E06CE090E080E00E9494038091BA050E
:100CA0009091BB051816190634F444E06AE090E010
:100CB00080E00E9494038091BA059091BB051816BC
:100CC000190624F490E080E00E94F20300E012E0B4
:100CD00020E134E03A832983E981FA8180813296E8
:100CE000FA83E9830E945B01F80180810E5F1F4F48
:100CF0000E945B0129813A812052344069F70E94A9
:100D000077032FB7F8948091370490913804A0911D
:100D10003904B0913A042FBF8093BB049093BC0474
:100D2000A093BD04B093BE042FB7F894809137040C
:100D300090913804A0913904B0913A042FBF809368
:100D4000C3049093C404A093C504B093C6048FB7A2
:100D5000F8948090370490903804A0903904B090B3
:100D60003A048FBF8092BF049092C004A092C10445
:100D7000B092C204E0E9F2E0FC83EB8320E133E0CF
:100D80003E832D8360E9262E63E0362E80E194E0D9
:100D90009A83898318861F82E981FA81808132963D
:100DA000FA83E98361E00E94AE020F811885000F8B
:100DB000111FF12CE12C4090BB045090BC046090BA
:100DC000BD047090BE048091C3049091C404A091AE
:100DD000C504B091C604481659066A067B0650F44D
:100DE000F801E057FC4F80819181F801E55CFB4FF1
:100DF00091838083D301C20188519C4FAF4FBF4F75
:100E000088159905AA05BB05E0F4F801E05FFC4FE1
:100E100080819181F801E55CFB4F91838083F7012C
:100E2000EE0FFF1FE20DF31D41E080819181892BC0
:100E300009F440E06F817885C7010E9412040E9486
:100E40005F03D301C2018053984FAF4FBF4F881546
:100E50009905AA05BB05F0F4F801E057FD4F808124
:100E60009181F801E55CFB4F91838083F701EE0FE0
:100E7000FF1F2D813E81E20FF31F41E080819181B0
:100E8000892B09F440E06F817885C7010E94120424
:100E90000E945F0338EB430E3BE0531E611C711C44
:100EA000481459046A047B04F0F4F801E05FFD4F34
:100EB00080819181F801E55CFB4F91838083F7018C
:100EC000EE0FFF1F8B819C81E80FF91F41E08081AD
:100ED0009181892B09F440E06F817885C7010E94D8
:100EE00012040E945F039FEFE91AF90A005F1F4F87
:100EF000E8E0EE16F10409F05ECF8BE3C82E84E043
:100F0000D82E90E1E92E94E0F92EF7017080F2E0FE
:100F1000EF0EF11C61E0872D0E94AE0210E000E0B0
:100F2000F601E00FF11F80819181019739F460E0B3
:100F3000F801E050FE4F80810E94AE020E5F1F4F0D
:100F40000031110569F70E945F0360E0872D0E9460
:100F5000AE0200E012E0F80180810E5F1F4F61E0F9
:100F60000E94AE0220E132E020173107A1F730E104
:100F7000C30ED11C80E2E81684E0F80631F60E9428
:100F80007703EF81F8853196F887EF832B813C81D9
:100F9000205F3F4F3C832B838D819E8140969E83B3
:100FA0008D8390E1290E311C389709F0F5CE0E940F
:100FB0007D02BACEEE0FFF1F881F8BBF0790F69100
:080FC000E02D1994F894FFCF15
:100FC8002E002F003000310032003300340035008D
:100FD8000000010001000100010001000100000003
:100FE80001000100010001000100010001000100F1
:100FF80001000100000000000000000001000100E5
:1010080001000100000000000000000000000000D6
:1010180001000100000000000000000000000000C6
:1010280001000100000000000000000001000100B4
:1010380001000100010001000100010001000100A0
:101048000000010001000100010001000100000092
:101058000100010001000100010001000100010080
:101068000100010001000100010001000100010070
:101078000100010000000000000000000100010064
:101088000100010001000100010001000100010050
:101098000100010001000100010001000100010040
:1010A8000100010000000000000000000100010034
:1010B8000100010000000000000000000100010024
:1010C8000100010000000000000000000100010014
:1010D8000000010001000100010001000100000002
:1010E80001000100010001000100010001000100F0
:1010F80001000100000000000000000001000100E4
:1011080001000100010001000100010001000100CF
:1011180000000100010001000100010001000100C0
:1011280000000100010001000000000001000100B2
:1011380001000100010000000000000001000100A2
:101148000100010000000000000000000100010093
:101158000000010001000100010001000100010080
:10116800010001000100010001000100010001006F
:101178000100010000000000000000000100010063
:101188000100010000000000000000000100010053
:10119800010001000100010001000100010001003F
:1011A8000000010001000100010001000100010030
:1011B8000000000000000000000000000100010025
:1011C8000000000000000000000000000100010015
:1011D80016001700180019001A001B001C001D003B
:1011E8000000000010027A01A7015D02D801B601D3
:0211F800CA012A
:00000001FF
