:020000040000FA
:100000000C9428010C9459010C9459010C94590139
:100010000C9459010C9459010C9459010C945901F8
:100020000C9459010C9459010C9459010C945901E8
:100030000C9459010C9459010C9459010C945901D8
:100040000C9459010C9459010C9459010C945901C8
:100050000C9459010C9459010C9459010C94990475
:100060000C9459010C9463040C9439040C945901B8
:100070000C9459010C9459010C9459010C94590198
:100080000C9459010C9459010C9459010C94590188
:100090000C9459010C9459010C9459010C94590178
:1000A0000C9459010C9459010C9459010C94590168
:1000B0000C9459010C9459010C9459010C94590158
:1000C0000C9459010C9459010C9459010C94590148
:1000D0000C9459010C9459010C9459010C94590138
:1000E0000C9459010C9426030C94E3040C947A01AB
:1000F0000C94F9020C94F5020C94FD020C9430035C
:100100000C942A030C9422030C94DE020C9410022B
:100110000C9404030C94CA010C945D020C94A70186
:100120000C9401030C94B6010C941C030C940E0364
:100130000C94E3020C9418030C94D8010C9414034F
:100140000C940A030C94340300000A0B02090C0DF2
:100150000E0807030401000000000000000000007A
:10016000000000000000000000000000000000008F
:10017000000000001211100000000000000000004C
:10018000000000000000000000000000000000006F
:100190002200250028002B002E003100340002012F
:1001A0000000050108010B010000210024002700C8
:1001B0002A002D0030003300010100000401070176
:1001C0000A010505050507050808080802020202DC
:1001D0000A0A0808040404040101010101010101E3
:1001E0000303030303030303040707070C0C0C0CAE
:1001F0000C0C0C0C02020202060606060606060697
:100200000B0B0B0B0B0B0B0B010210202008081023
:100210002040102040800201020108040201010276
:10022000040810204080804020100804020180044F
:1002300002018040201008040201080402010102AA
:100240000408102040800102040810204080E304CC
:1002500011241FBECFEFD1E2DEBFCDBF00E00CBF47
:1002600019E0A0E0B2E0E0ECF3E100E00BBF02C077
:1002700007900D92A23BB107D9F72BE0A2EBB9E0B2
:1002800001C01D92AC33B207E1F711E0C8E2D1E042
:1002900000E006C021970109802FFE010E94D609C7
:1002A000C732D10780E00807A9F70E9494050C9493
:1002B000DE090C94000090E0FC01E85FFD4F249102
:1002C0008E539E4FFC018491882399F090E0880F13
:1002D000991FFC01E855FE4FA591B491FC01E2572E
:1002E000FE4F859194918FB7F894EC91E22BEC93AB
:1002F0008FBF0895AF92BF92CF92DF92EF92FF929D
:100300000F931F93CF93DF936C017B018B01040F3D
:10031000151FEB015E01AE18BF08C017D10759F0D9
:100320006991D601ED91FC910190F081E02DC6011B
:100330001995892B79F7C501DF91CF911F910F9105
:10034000FF90EF90DF90CF90BF90AF900895FC01A9
:10035000538D448D252F30E0842F90E0821B930B2A
:10036000541710F0CF96089501970895FC01918DD0
:10037000828D981761F0A28DAE0FBF2FB11D5D96D3
:100380008C91928D9F5F9F73928F90E008958FEF75
:100390009FEF0895FC01918D828D981731F0828D29
:1003A000E80FF11D858D90E008958FEF9FEF089580
:1003B000FC01918D228D892F90E0805C9F4F821BE4
:1003C00091098F739927089587E49AE00E94D801D4
:1003D00021E0892B09F420E0822F0895FC01A48DEF
:1003E000A80FB92FB11DA35ABF4F2C91848D90E057
:1003F00001968F739927848FA689B7892C93A0893A
:10040000B1898C91837080648C93938D848D9813C3
:1004100006C00288F389E02D80818F7D8083089556
:10042000EF92FF920F931F93CF93DF93EC0181E044
:10043000888F9B8D8C8D98131AC0E889F9898081EB
:1004400085FF15C09FB7F894EE89FF896083E8891E
:10045000F98980818370806480839FBF81E090E010
:10046000DF91CF911F910F91FF90EF900895F62E9D
:100470000B8D10E00F5F1F4F0F731127E02E8C8D37
:100480008E110CC00FB607FCFACFE889F98980817C
:1004900085FFF5CFCE010E94EE01F1CFEB8DEC0F81
:1004A000FD2FF11DE35AFF4FF0829FB7F8940B8F99
:1004B000EA89FB8980818062CFCFCF93DF93EC0103
:1004C000888D8823B9F0AA89BB89E889F9898C913C
:1004D00085FD03C0808186FD0DC00FB607FCF7CFF8
:1004E0008C9185FFF2CF808185FFEDCFCE010E94F8
:1004F000EE01E9CFDF91CF91089580E090E0892B64
:1005000029F00E94E40181110E94000080E090E047
:10051000892B49F080E090E0892B29F00E940000AF
:1005200081110E94000080E090E0892B49F080E07A
:1005300090E0892B29F00E94000081110E940000A8
:1005400080E090E0892B49F080E090E0892B29F051
:100550000E94000081110C9400000895282F30E0C3
:10056000F901E85BFE4F9491F901E85FFD4F44917A
:100570002E533E4FF9012491222309F435C09923CB
:1005800011F191509231F8F4E92FF0E08827E4530B
:10059000FD4F8F4F0C94D609FD020103DE02F502D8
:1005A000F902E30204030A030E03140318031C03F5
:1005B00022032603E3022A033003340380918000E0
:1005C0008F7780938000E22FF0E0EE0FFF1FE2575D
:1005D000FE4FA591B4918FB7F894EC91611148C08A
:1005E00040954E234C938FBF0895809180008F7D5E
:1005F000E8CF80918000877FE4CF84B58F7784BD7A
:10060000E2CF84B58F7DFBCF8091B0008F77809350
:10061000B000D9CF8091B0008F7DF9CF809190004C
:100620008F7780939000CFCF809190008F7DF9CF0E
:1006300080919000877FF5CF8091A0008F77809385
:10064000A000C1CF8091A0008F7DF9CF8091A00044
:10065000877FF5CF809120018F7780932001B3CFE2
:10066000809120018F7DF9CF80912001877FF5CF88
:100670004E2BB8CF3FB7F8948091B3099091B4094D
:10068000A091B509B091B60926B5A89B05C02F3F2A
:1006900019F00196A11DB11D3FBFBA2FA92F982FA8
:1006A0008827BC01CD01620F711D811D911D42E0A3
:1006B000660F771F881F991F4A95D1F70895CF922B
:1006C000DF92EF92FF920E943A036B017C010E943D
:1006D0003A036C197D098E099F09683E73408105B4
:1006E0009105A8F3FF90EF90DF90CF9008950F93BE
:1006F0001F93CF93DF93C0E9D9E000E012E0888137
:10070000229660E00E94AE02F80180810E5F1F4FCA
:1007100061E00E94AE02F9E0C03ADF0781F7DF91A5
:10072000CF911F910F910895CF92DF92EF92FF9298
:100730000F931F93CF93DF931F921F92CDB7DEB716
:1007400069834A83880F991F00913A0B10913B0BE4
:10075000000F111FE4EEFAE09F01245E3A402017DB
:10076000310714F41192F8CF2981FC01EC51F54FB7
:1007700021838A81808360E08091380B0E94AE02E1
:100780001016110604F501501109F801EC51F54F4E
:10079000E080D090360BC090340B88E0F82E6E2DA0
:1007A000661F6627661F8C2D0E94AE02EE0C61E06C
:1007B0008D2D0E94AE0260E08D2D0E94AE02FA9453
:1007C000F110EDCFDDCF61E08091380B0F900F90ED
:1007D000DF91CF911F910F91FF90EF90DF90CF901D
:1007E0000C94AE02EF92FF920F931F93CF937C0174
:1007F0008C0183E0000F111F8A95E1F70C50154F13
:10080000C1E0F80111928F0140E06C2FC7010E94F6
:100810009403CF5FC930A9F7CF911F910F91FF903B
:10082000EF90089520913A0B30913B0B121613066E
:10083000FCF488309105E1F068307105C9F020E8DA
:1008400030E002C0359527956A95E2F7FC01EC513E
:10085000F54F5089442349F0252B208B61E0680F28
:10086000408990E080E00C94940320952523F5CFF7
:1008700008951F920F920FB60F9211240BB60F928C
:100880002F933F934F935F936F937F938F939F9398
:10089000AF93BF93EF93FF9387E49AE00E94EE013A
:1008A000FF91EF91BF91AF919F918F917F916F9148
:1008B0005F914F913F912F910F900BBE0F900FBE04
:1008C0000F901F9018951F920F920FB60F92112440
:1008D0000BB60F922F938F939F93EF93FF93E0911B
:1008E000570AF091580A8081E0915D0AF0915E0A02
:1008F00082FD1DC090818091600A8F5F8F7320916F
:10090000610A821741F0E091600AF0E0E95BF54F7F
:10091000958F8093600AFF91EF919F918F912F9116
:100920000F900BBE0F900FBE0F901F9018958081F7
:10093000F2CF1F920F920FB60F9211242F933F9375
:100940008F939F93AF93BF938091B7099091B8090C
:10095000A091B909B091BA093091B20923E0230FEF
:100960002D3758F50196A11DB11D2093B209809332
:10097000B7099093B809A093B909B093BA098091C7
:10098000B3099091B409A091B509B091B609019647
:10099000A11DB11D8093B3099093B409A093B5092B
:1009A000B093B609BF91AF919F918F913F912F91D5
:1009B0000F900FBE0F901F90189526E8230F0296F8
:1009C000A11DB11DD2CFCF93DF9310924A0A10928E
:1009D000490A88EE93E0A0E0B0E080934B0A909340
:1009E0004C0AA0934D0AB0934E0A84EA99E0909382
:1009F000480A8093470A85EC90E09093540A8093CC
:100A0000530A84EC90E09093560A8093550A80EC48
:100A100090E09093580A8093570A81EC90E090936D
:100A20005A0A8093590A82EC90E090935C0A809372
:100A30005B0A86EC90E090935E0A80935D0A1092C8
:100A4000600A1092610A1092620A1092630ACBE067
:100A5000D0E0D093350BC093340B8DE090E09093B1
:100A6000370B8093360B8AE090E09093390B80939C
:100A7000380B81E090E090933B0B80933A0B8BE036
:100A80000E945B018091360B0E945B018091380BC4
:100A90000E945B0161E08091380B0E94AE02D0930E
:100AA000350BC093340BE4EFFAE011928BE0E433A2
:100AB000F807D9F7D0E0C0E080913A0B90913B0B5A
:100AC000C817D90774F540E06FE0CE010E94940387
:100AD00080913A0B90913B0BC817D9072CF447E053
:100AE0006BE0CE010E94940340E069E0CE010E94D9
:100AF000940380913A0B90913B0BC817D9071CF4D3
:100B0000CE010E94F20380913A0B90913B0BC817E3
:100B1000D9072CF440E06CE0CE010E9494032196AA
:100B2000CBCFDF91CF910895CF93DF9300D000D04A
:100B30001F921F92CDB7DEB7789484B5826084BDD2
:100B400084B5816084BD85B5826085BD85B58160D1
:100B500085BD80916E00816080936E00109281004F
:100B6000809181008260809381008091810081600A
:100B700080938100809180008160809380008091CB
:100B8000B10084608093B1008091B0008160809357
:100B9000B0008091910082608093910080919100DB
:100BA000816080939100809190008160809390009B
:100BB0008091A10082608093A1008091A10081605A
:100BC0008093A1008091A00081608093A00080911B
:100BD00021018260809321018091210181608093B5
:100BE00021018091200181608093200180917A0011
:100BF000846080937A0080917A00826080937A008A
:100C000080917A00816080937A0080917A00806878
:100C100080937A001092C100E091570AF091580A2F
:100C200082E08083E091530AF091540A1082E091AF
:100C3000550AF091560A8FEC808310925F0AE0917A
:100C40005B0AF0915C0A86E08083E091590AF0919A
:100C50005A0A808180618083E091590AF0915A0A92
:100C6000808188608083E091590AF0915A0A8081DE
:100C700080688083E091590AF0915A0A80818F7DC3
:100C8000808380913A0B90913B0B1816190634F42F
:100C900041E06CE090E080E00E94940380913A0B88
:100CA00090913B0B1816190634F444E06AE090E08A
:100CB00080E00E94940380913A0B90913B0B1816B0
:100CC000190624F490E080E00E94F20300E012E0B4
:100CD00020E939E03A832983E981FA8180813296DB
:100CE000FA83E9830E945B01F80180810E5F1F4F48
:100CF0000E945B0129813A81205A394069F70E949C
:100D000077032FB7F8948091B7099091B809A09113
:100D1000B909B091BA092FBF80933B0A90933C0A5E
:100D2000A0933D0AB0933E0A2FB7F8948091B7097B
:100D30009091B809A091B909B091BA092FBF8093D9
:100D4000430A9093440AA093450AB093460A8FB78A
:100D5000F8948090B7099090B809A090B909B09024
:100D6000BA098FBF80923F0A9092400AA092410A2E
:100D7000B092420AEBEBF9E0FC83EB8320E939E027
:100D80003A8329831E821D8218861F82E981FA8197
:100D900080813296FA83E98361E00E94AE020F817E
:100DA0001885000F111F2D803E80EB80FC80D12C18
:100DB000C12C40903B0A50903C0A60903D0A7090D4
:100DC0003E0A8091430A9091440AA091450AB0914D
:100DD000460A481659066A067B0640F4F801E05FA9
:100DE000F64F80819181F70191838083D301C20105
:100DF00088519C4FAF4FBF4F88159905AA05BB0579
:100E0000C0F4F801E057F74F80819181F701918399
:100E1000808341E0F101E05FF64F80819181892B71
:100E200009F440E06F817885C6010E9412040E9497
:100E30005F03D301C2018053984FAF4FBF4F881556
:100E40009905AA05BB05C0F4F801E05FF74F808162
:100E50009181F7019183808341E0F101E057F74FE1
:100E600080819181892B09F440E06F817885C601EA
:100E70000E9412040E945F03D301C2018854944F60
:100E8000AF4FBF4F88159905AA05BB05C0F4F801FF
:100E9000E057F84F80819181F7019183808341E091
:100EA000F101E05FF74F80819181892B09F440E0E7
:100EB0006F817885C6010E9412040E945F03D301EE
:100EC000C2018056904FAF4FBF4F88159905AA05B4
:100ED000BB05C0F4F801E05FF84F80819181F70114
:100EE0009183808341E0F101E057F84F8081918147
:100EF000892B09F440E06F817885C6010E941204B5
:100F00000E945F03D301C20188579C4EAF4FBF4F71
:100F100088159905AA05BB05C0F4F801E057F94FFB
:100F200080819181F7019183808341E0F101E05F4D
:100F3000F84F80819181892B09F440E06F81788599
:100F4000C6010E9412040E945F03D301C2018059AE
:100F5000984EAF4FBF4F88159905AA05BB05C0F441
:100F6000F801E05FF94F80819181F70191838083DF
:100F700041E0F101E057F94F80819181892B09F41B
:100F800040E06F817885C6010E9412040E945F03D1
:100F9000D301C201885A944EAF4FBF4F88159905AF
:100FA000AA05BB05C0F4F801E057F74F8081918195
:100FB000F7019183808341E0F101E05FF94F808187
:100FC0009181892B09F440E06F817885C6010E94E8
:100FD00012040E945F03D301C201805C904EAF4FA8
:100FE000BF4F88159905AA05BB05C0F4F801E05765
:100FF000FA4F80819181F7019183808341E0F10173
:10100000E057F74F80819181892B09F440E06F818F
:101010007885C6010E9412040E945F03D301C201B9
:10102000885D9C4DAF4FBF4F88159905AA05BB053C
:10103000C0F4F801E05FFA4F80819181F70191835C
:10104000808341E0F101E057FA4F80819181892B43
:1010500009F440E06F817885C6010E9412040E9465
:101060005F03D301C201805F984DAF4FBF4F88151A
:101070009905AA05BB05C0F4F801E057F84F808137
:101080009181F7019183808341E0F101E05FFA4FA4
:1010900080819181892B09F440E06F817885C601B8
:1010A0000E9412040E945F03D301C2018850954D33
:1010B000AF4FBF4F88159905AA05BB05C0F4F801CD
:1010C000E057FB4F80819181F7019183808341E05C
:1010D000F101E057F84F80819181892B09F440E0BC
:1010E0006F817885C6010E9412040E945F03D301BC
:1010F000C2018052914DAF4FBF4F88159905AA0587
:10110000BB05C0F4F801E05FFB4F80819181F701DE
:101110009183808341E0F101E057FB4F8081918111
:10112000892B09F440E06F817885C6010E94120482
:101130000E945F03D301C20188539D4CAF4FBF4F44
:1011400088159905AA05BB05C0F4F801E057FC4FC6
:1011500080819181F7019183808341E0F101E05F1B
:10116000FB4F80819181892B09F440E06F81788564
:10117000C6010E9412040E945F03D301C201805580
:10118000994CAF4FBF4F88159905AA05BB05C0F410
:10119000F801E057FC4F80819181F70191838083B2
:1011A00041E0F101E057FC4F80819181892B09F4E6
:1011B00040E06F817885C6010E9412040E945F039F
:1011C000D301C2018856954CAF4FBF4F8815990582
:1011D000AA05BB05C0F4F801E05FFC4F8081918156
:1011E000F7019183808341E0F101E057FC4F80815A
:1011F0009181892B09F440E06F817885C6010E94B6
:1012000012040E945F03D301C2018058914CAF4F7A
:10121000BF4F88159905AA05BB05C0F4F801E05732
:10122000FA4F80819181F7019183808341E0F10140
:10123000E05FFC4F80819181892B09F440E06F8150
:101240007885C6010E9412040E945F03D301C20187
:1012500088599D4BAF4FBF4F88159905AA05BB050F
:10126000C0F4F801E057FD4F80819181F70191832F
:10127000808341E0F101E057FA4F80819181892B11
:1012800009F440E06F817885C6010E9412040E9433
:101290005F03F0E54F0EF6E45F1E611C711C4814FD
:1012A00059046A047B04C0F4F801E05FF64F8081C2
:1012B0009181F7019183808341E0F101E05FFD4F6F
:1012C00080819181892B09F440E06F817885C60186
:1012D0000E9412040E945F03FFEFCF1ADF0A20E191
:1012E000E20EF11C005F1F4F32E0230E311C88E03C
:1012F000C816D10409F05DCD8BEBC82E89E0D82E3D
:1013000090E9E92E99E0F92EF7017080F2E0EF0EF6
:10131000F11C61E0872D0E94AE0210E000E0F601B2
:10132000E00FF11F80819181019739F460E0F801AD
:10133000E050FE4F80810E94AE020E5F1F4F0031D1
:10134000110569F70E945F0360E0872D0E94AE02DD
:1013500000E012E0F80180810E5F1F4F61E00E9403
:10136000AE0220E132E020173107A1F730E1C30ED1
:10137000D11C80EAE81689E0F80631F60E9477036E
:10138000EF81F8853196F887EF832B813C812E5FC2
:101390003F4F3C832B838D819E8140969E838D831E
:1013A000389709F0F3CC0E947D02BECCEE0FFF1FF0
:1013B000881F8BBF0790F691E02D1994F894FFCF0A
:1013C0002E002F0030003100320033003400350091
:1013D000000000000000000000000000000000000D
:1013E00000000000000001000100000000000000FB
:1013F00000000100010000000000010001000000E9
:1014000000000100010000000000010001000000D8
:1014100000000100010001000100010001000000C6
:1014200000000100010000000000010001000000B8
:1014300000000100010000000000010001000000A8
:101440000000010001000000000001000100000098
:10145000000000000000000000000000000000008C
:101460000000010001000000000000000100010078
:101470000000010001000100000000000100010067
:101480000000010001000100010001000100010055
:101490000000010001000000000001000100010047
:1014A0000000010001000000000000000100010038
:1014B0000000010001000000000000000100010028
:1014C0000000010001000000000000000100010018
:1014D000000000000000000000000000000000000C
:1014E00000000000010001000100010000000000F8
:1014F00000000000000001000100000000000000EA
:1015000000000000000001000100000000000000D9
:1015100000000000000001000100000000000000C9
:1015200000000000000001000100000000000000B9
:1015300000000000000001000100000000000000A9
:101540000000000001000100010001000000000097
:10155000000000000000000000000000000000008B
:101560000000000001000100010001000000000077
:101570000000010001000000000001000100000067
:101580000000010001000000000000000000000059
:101590000000010001000000000000000000000049
:1015A0000000010001000000000000000000000039
:1015B0000000010001000000000001000100000027
:1015C0000000000001000100010001000000000017
:1015D000000000000000000000000000000000000B
:1015E00000000100010001000100010001000000F5
:1015F00000000100010000000000000000000000E9
:1016000000000100010000000000000000000000D8
:1016100000000100010001000100010000000000C5
:1016200000000100010000000000000000000000B8
:1016300000000100010000000000000000000000A8
:101640000000010001000100010001000100000094
:10165000000000000000000000000000000000008A
:101660000000000001000100010001000000000076
:101670000000010001000000000001000100000066
:101680000000010001000000000000000000000058
:101690000000000001000100010001000000000046
:1016A0000000000000000000000001000100000038
:1016B0000000010001000000000001000100000026
:1016C0000000000001000100010000000000000017
:1016D000000000000000000000000000000000000A
:1016E00000000000000000000100010000000000F8
:1016F00000000000000001000100010000000000E7
:1017000000000000010000000100010000000000D6
:1017100000000100000000000100010000000000C6
:1017200000000100010001000100010001000000B3
:1017300000000000000000000100010000000000A7
:101740000000000000000000010001000000000097
:101750000000000000000000000000000000000089
:101760000000000001000100010001000000000075
:101770000000010001000000000001000100000065
:101780000000010001000000000001000100000055
:101790000000010001000000000001000100000045
:1017A0000000010001000000000001000100000035
:1017B0000000010001000000000001000000000026
:1017C0000000000001000100010001000000000015
:1017D0000000000000000000000000000000000009
:1017E00000000100010000000000010001000000F5
:1017F00000000100010000000000010001000000E5
:1018000000000100010000000000010001000000D4
:1018100000000100010000000000010001000000C4
:1018200000000100010000000000010001000000B4
:1018300000000100010000000000010001000000A4
:101840000000000001000100010001000100000093
:101850000000000000000000000000000000000088
:101860000000010001000100010001000000000073
:101870000000010001000000000001000100000064
:101880000000010001000000000001000100000054
:101890000000010001000100010001000000000043
:1018A0000000010001000100010000000000000034
:1018B0000000010001000000010001000000000024
:1018C0000000010001000000000001000100000014
:1018D0000000000000000000000000000000000008
:1018E00000000000010001000100010000000000F4
:1018F00000000100010000000000010001000000E4
:1019000000000100010000000000000000000000D5
:1019100000000100010000000000000000000000C5
:1019200000000100010000000100010001000000B2
:1019300000000100010000000000010001000000A3
:101940000000000001000100010000000000000094
:101950000000000000000000000000000000000087
:101960000000000000000000000000000000000077
:101970000000000000000000000000000000000067
:101980000000010001000100010001000100000051
:101990000000010001000100010001000100000041
:1019A0000000000000000000000000000000000037
:1019B0000000000000000000000000000000000027
:1019C0000000000000000000000000000000000017
:1019D0000000000000000000000000000000000007
:1019E00000000000000000000100000000000000F6
:1019F00000000000000001000100000000000000E5
:101A000000000000010001000100000000000000D3
:101A100000000000000001000100000000000000C4
:101A200000000000000001000100000000000000B4
:101A300000000000000001000100000000000000A4
:101A40000000010001000100010001000100000090
:101A50000000000000000000000000000000000086
:101A60000000010001000100010001000000000071
:101A70000000010001000000000001000100000062
:101A80000000010001000000000001000100000052
:101A90000000010001000000000001000100000042
:101AA0000000010001000100010001000000000031
:101AB0000000010001000000000000000000000024
:101AC0000000010001000000000000000000000014
:101AD0000000000000000000000000000000000006
:101AE00000000000000000000000000000000000F6
:101AF00000000000010001000000010001000000E2
:101B000000000000000001000100010000000000D2
:101B100000000100010001000100010001000100BE
:101B200000000000000001000100010000000000B2
:101B300000000000010001000000010001000000A1
:101B40000000000000000000000000000000000095
:101B500016001700180019001A001B001C001D00B9
:101B60000000000010027A01A7015D02D801B60151
:021B7000CA01A8
:10E000000D9489F10D94B2F10D94B2F10D94B2F129
:10E010000D94B2F10D94B2F10D94B2F10D94B2F1F0
:10E020000D94B2F10D94B2F10D94B2F10D94B2F1E0
:10E030000D94B2F10D94B2F10D94B2F10D94B2F1D0
:10E040000D94B2F10D94B2F10D94B2F10D94B2F1C0
:10E050000D94B2F10D94B2F10D94B2F10D94B2F1B0
:10E060000D94B2F10D94B2F10D94B2F10D94B2F1A0
:10E070000D94B2F10D94B2F10D94B2F10D94B2F190
:10E080000D94B2F10D94B2F10D94B2F10D94B2F180
:10E090000D94B2F10D94B2F10D94B2F10D94B2F170
:10E0A0000D94B2F10D94B2F10D94B2F10D94B2F160
:10E0B0000D94B2F10D94B2F10D94B2F10D94B2F150
:10E0C0000D94B2F10D94B2F10D94B2F10D94B2F140
:10E0D0000D94B2F10D94B2F10D94B2F10D94B2F130
:10E0E0000D94B2F141546D656761323536300041AF
:10E0F000726475696E6F206578706C6F72657220DE
:10E1000073746B3530305632206279204D4C530099
:10E11000426F6F746C6F616465723E004875683F52
:10E1200000436F6D70696C6564206F6E203D200048
:10E130004350552054797065202020203D20005FF9
:10E140005F4156525F415243485F5F3D2000415658
:10E1500052204C696243205665723D20004743437C
:10E160002056657273696F6E203D20004350552024
:10E1700049442020202020203D20004C6F7720663D
:10E18000757365202020203D20004869676820665F
:10E190007573652020203D200045787420667573D6
:10E1A00065202020203D20004C6F636B2066757336
:10E1B000652020203D20004D617220203720323024
:10E1C000313300312E362E3800342E332E350056A2
:10E1D00023202020414444522020206F7020636F70
:10E1E00064652020202020696E73747275637469E1
:10E1F0006F6E2061646472202020496E74657272B3
:10E20000757074006E6F20766563746F7200726A49
:10E210006D702020006A6D70200057686174207056
:10E220006F72743A00506F7274206E6F7420737541
:10E2300070706F72746564004D7573742062652030
:10E2400061206C6574746572002000577269747483
:10E25000696E672045450052656164696E672045B7
:10E26000450045452065727220636E743D00504F35
:10E27000525400303D5A65726F2061646472003FF1
:10E280003D43505520737461747300403D454550C3
:10E29000524F4D207465737400423D426C696E6B41
:10E2A000204C454400453D44756D70204545505215
:10E2B0004F4D00463D44756D7020464C415348001B
:10E2C000483D48656C70004C3D4C69737420492F83
:10E2D0004F20506F72747300513D51756974005234
:10E2E0003D44756D702052414D00563D73686F7707
:10E2F00020696E7465727275707420566563746FF0
:10E30000727300593D506F727420626C696E6B00BD
:10E310002A0011241FBECFEFD1E2DEBFCDBF01E046
:10E320000CBF12E0A0E0B2E0EEE1FDEF03E00BBFB6
:10E3300002C007900D92A030B107D9F712E0A0E01B
:10E34000B2E001C01D92AE30B107E1F70F9460F367
:10E350000D948DFE01E20EBF0FEF0DBF11241FBE05
:10E360000D9460F30D9400F020E030E040ED57E0B4
:10E3700005C0FA013197F1F72F5F3F4F2817390792
:10E38000C0F308959C01260F311DC901A0E0B0E043
:10E390002F5F3F4FABBFFC018791882361F08093D3
:10E3A000C6008091C00086FFFCCF8091C0008064D1
:10E3B0008093C000EACF08958DE08093C6008091DD
:10E3C000C00086FFFCCF8091C00080648093C000B5
:10E3D0008AE08093C6008091C00086FFFCCF8091C8
:10E3E000C00080648093C00008950F94C2F10F9420
:10E3F000DCF10895FC019081992359F09093C600B7
:10E400008091C00086FFFCCF8091C0008064809323
:10E41000C0003196992379F70895282F982F929567
:10E420009F70892F805D8A3308F0895F8093C600D2
:10E430008091C00086FFFCCF8091C00080648093F3
:10E44000C000822F8F70982F905D9A3308F0995FEB
:10E450009093C6008091C00086FFFCCF8091C000E1
:10E4600080648093C00008959C01FB01853691056E
:10E470001CF46330710594F0C90164E670E00F94F8
:10E480002EFE605D7F4F6093C6008091C00086FFC6
:10E49000FCCF8091C00080648093C0002B30310598
:10E4A00014F43297B4F0C90164E670E00F942EFEC4
:10E4B0006AE070E00F942EFE605D7F4F6093C600AF
:10E4C0008091C00086FFFCCF8091C0008064809363
:10E4D000C000C9016AE070E00F942EFEC0968093E0
:10E4E000C6008091C00086FFFCCF8091C000806490
:10E4F0008093C00008951F93182F8EE692EE60E07F
:10E500000F94C2F11093C6008091C00086FFFCCF2B
:10E510008091C00080648093C0000F94DCF11F9153
:10E5200008952F923F924F925F926F927F928F92B7
:10E530009F92AF92BF92CF92DF92EF92FF920F9392
:10E540001F93DF93CF93CDB7DEB762970FB6F894E2
:10E55000DEBF0FBECDBF382E622ECA01DB015C01CB
:10E560006D01772420E2222E2E010894411C511CBB
:10E570008BC081E0A81680E0B80681E0C80680E084
:10E58000D80628F0C601AA27BB270F940DF2BB2797
:10E59000AD2D9C2D8B2D0F940DF28A2D0F940DF225
:10E5A0002092C6008091C00086FFFCCF8091C00001
:10E5B00080648093C0009DE29093C6008091C0006B
:10E5C00086FFFCCF8091C00080648093C0002092C1
:10E5D000C6008091C00086FFFCCF8091C00080649F
:10E5E0008093C00019828601750188249924A1E0D6
:10E5F0003A1651F03A1620F0B2E03B1661F409C029
:10E600000BBFF701779007C0C7010F9477FE782EF4
:10E6100002C0F7017080872D0F940DF22092C60082
:10E620008091C00086FFFCCF8091C0008064809301
:10E63000C000872D8052F401EF70F0708F3520F408
:10E64000E40DF51D708204C0E40DF51D8EE280839B
:10E650000894E11CF11C011D111D0894811C911CE2
:10E6600090E18916910409F0C2CF80E190E0A0E02A
:10E67000B0E0A80EB91ECA1EDB1E198AC2010F9493
:10E68000FAF10F94DCF16A94662009F072CF629679
:10E690000FB6F894DEBF0FBECDBFCF91DF911F91B3
:10E6A0000F91FF90EF90DF90CF90BF90AF909F9031
:10E6B0008F907F906F905F904F903F902F90089534
:10E6C0002F923F924F925F926F927F928F929F9282
:10E6D000AF92BF92CF92DF92EF92FF920F931F9370
:10E6E000DF93CF93CDB7DEB7CD53D1400FB6F894BB
:10E6F000DEBF0FBECDBF01E20EBF0FEF0DBF94B75F
:10E70000F894A89514BE80916000886180936000A1
:10E7100010926000789493FF05C0E0910002F091A0
:10E7200001021995279A2F9A8091C00082608093E8
:10E73000C00080E18093C40088E18093C1000000A4
:10E74000EE24FF24870144E0A42EB12CCC24DD2448
:10E7500024C0C5010197F1F70894E11CF11C011DCB
:10E76000111D21E2E2162EE4F20620E0020720E06D
:10E77000120718F031E0C32ED12CC801B70127ECE5
:10E780003BE140E050E00F9441FE611571058105C9
:10E79000910519F485B1805885B98091C00087FD35
:10E7A00003C0C114D104A9F2A6014F5F5F4FC25E3E
:10E7B000DE4F59834883CE51D140C25EDE4F8881FF
:10E7C0009981CE51D140019711F00D9410FEC05D9A
:10E7D000DE4F19821882C053D14060E0C15DDE4F28
:10E7E0001882CF52D14088249924C35DDE4F19820C
:10E7F0001882CD52D140C05EDE4F188219821A8233
:10E800001B82C052D140CE5CDE4F188219821A8220
:10E810001B82C253D140EE24FF2487010BBFF701B6
:10E8200007911691C45CDE4F19830883CC53D14005
:10E830000D940BFEC25EDE4F28813981CE51D1404E
:10E840002130310509F52091C600C25EDE4F1982E4
:10E850001882CE51D14022C02F5F3F4F4F4F5F4FA4
:10E86000213082E138078AE7480780E0580780F0C6
:10E87000C45CDE4FE881F981CC53D140EF5FFF4F9C
:10E8800019F0EE27FF27099420E030E040E050E047
:10E890008091C00087FFE0CF2091C600C35DDE4FAE
:10E8A00048815981CD52D1404F5F5F4FC35DDE4FEC
:10E8B00059834883CD52D140213209F063C64A3092
:10E8C000510508F05FC60894811C911C53E0851621
:10E8D000910409F059C600E010E018C081E280936D
:10E8E000C6008091C00086FFFCCF8091C00080648C
:10E8F0008093C0002F5F3F4F2931310579F70F9486
:10E90000DCF10F5F1F4F0530110519F020E030E0FA
:10E91000E5CF10920A0210920B0210920C02109294
:10E920000D02109206021092070210920802109235
:10E930000902109202021092030210920402109235
:10E9400005028FEE90EE60E00F94F5F180E191EE1C
:10E9500060E00F94C2F18091C00087FFFCCF9091DE
:10E96000C600903608F09F759032B8F09093C600BC
:10E970008091C00086FFFCCF8091C00080648093AE
:10E98000C000A0E2A093C6008091C00086FFFCCF2B
:10E990008091C00080648093C000983409F4D7C18E
:10E9A0009934B8F4923409F459C1933458F490333B
:10E9B00019F1903308F4E3C59F33A1F1903409F0C5
:10E9C000DEC5BDC0953409F470C1963409F0D7C5D1
:10E9D00098C1923509F42BC2933538F49C3409F46C
:10E9E000F5C1913509F0CBC518C2963509F445C279
:10E9F000993509F0C4C567C483E792EE62E00F94CD
:10EA0000F5F110920602109207021092080210927D
:10EA1000090210920A0210920B0210920C0210923C
:10EA20000D0213C18FE792EE62E00F94F5F18FEEC5
:10EA300090EE60E00F94F5F181E291EE60E00F94CA
:10EA4000C2F187EB91EE60E00F94F5F180E391EE77
:10EA500060E00F94C2F184EE90EE60E00F94F5F167
:10EA60008FE391EE60E00F94C2F186E090E061E008
:10EA700070E00F9434F20F94DCF18DE591EE60E0DC
:10EA80000F94C2F189EC91EE60E00F94F5F18EE401
:10EA900091EE60E00F94C2F183EC91EE60E00F9490
:10EAA000F5F18CE691EE60E00F94C2F18EE10F94E7
:10EAB0000DF288E90F940DF281E00F940DF20F949E
:10EAC000DCF18BE791EE60E00F94C2F119E0E0E039
:10EAD000F0E010935700E4918E2F0F940DF20F94F5
:10EAE000DCF18AE891EE60E00F94C2F1E3E0F0E03F
:10EAF00010935700E4918E2F0F940DF20F94DCF1D8
:10EB000089E991EE60E00F94C2F1E2E0F0E0109349
:10EB10005700E4918E2F0F940DF20F94DCF188EAE8
:10EB200091EE60E00F94C2F1E1E0F0E01093570045
:10EB30001491812F0F940DF20F94DCF107CF8BE825
:10EB400092EE62E00F94F5F18BE492EE60E00F94A8
:10EB5000F5F10F94DCF100E010E019C0C8016F2D51
:10EB60000F947FFEFF2031F489E492EE60E00F9471
:10EB7000C2F10BC0F092C6008091C00086FFFCCFAE
:10EB80008091C00080648093C0000F5F1F4FC80158
:10EB900081519F41A0E0B0E0ABBFFC01F790BAE229
:10EBA000FB1621F0E2E000301E07C1F60F94DCF105
:10EBB0000F94DCF187E592EE60E00F94F5F10F948D
:10EBC000DCF1CC24DD2400E010E01EC0C8010F946D
:10EBD00077FEF82E882331F489E492EE60E00F94FA
:10EBE000C2F10BC08093C6008091C00086FFFCCFAD
:10EBF0008091C00080648093C000FE1419F00894D6
:10EC0000C11CD11C0F5F1F4FC80181519F41A0E063
:10EC1000B0E0ABBFFC01E790FAE2EF1621F022E092
:10EC20000030120799F60F94DCF10F94DCF182E6C4
:10EC300092EE60E00F94C2F1C60161E070E00F94C3
:10EC400034F20F94DCF10F94DCF110920202109276
:10EC50000302109204021092050278CE89E992EE26
:10EC600062E00F94F5F1279A2F9A16C02F9880E052
:10EC700090E0E0EDF7E03197F1F7019684369105E9
:10EC8000C1F72F9A80E090E0E0EDF7E03197F1F7DF
:10EC9000019684369105C1F78091C00087FFE6CFC9
:10ECA0008091C00087FFFCCF64C485EA92EE62E0E9
:10ECB0000F94F5F140910202509103026091040219
:10ECC0007091050281E020E10F9491F2809102029F
:10ECD00090910302A0910402B091050280509F4FD1
:10ECE000AF4FBF4F8093020290930302A0930402A0
:10ECF000B093050280509041A040B04008F426CE69
:10ED0000A4CF83EB92EE62E00F94F5F140910602FE
:10ED100050910702609108027091090280E020E1A1
:10ED20000F9491F28091060290910702A09108023F
:10ED3000B091090280509F4FAF4FBF4F80930602A2
:10ED400090930702A0930802B0930902FFCD80ECD4
:10ED500092EE62E00F94F5F183E792EE60E00F949B
:10ED6000F5F18FE792EE60E00F94F5F18BE892EE0B
:10ED700060E00F94F5F189E992EE60E00F94F5F10F
:10ED800085EA92EE60E00F94F5F183EB92EE60E09D
:10ED90000F94F5F180EC92EE60E00F94F5F187ECC2
:10EDA00092EE60E00F94F5F188ED92EE60E00F9442
:10EDB000F5F18FED92EE60E00F94F5F18AEE92EEB0
:10EDC00060E00F94F5F183E093EEBDCD87EC92EE19
:10EDD00062E00F94F5F181E40F947BF282E40F94EA
:10EDE0007BF283E40F947BF284E40F947BF285E45E
:10EDF0000F947BF286E40F947BF287E40F947BF20E
:10EE000088E40F947BF28AE40F947BF28BE40F94F6
:10EE10007BF28CE40F947BF299CD88ED92EE62E068
:10EE20000F94F5F1772473948824992409C48FED05
:10EE300092EE62E00F94F5F140910A0250910B02BC
:10EE400060910C0270910D0282E020E10F9491F22A
:10EE500080910A0290910B02A0910C02B0910D02D8
:10EE600080509F4FAF4FBF4F80930A0290930B0289
:10EE7000A0930C02B0930D0269CD8AEE92EE62E08F
:10EE80000F94F5F184EE90EE60E00F94F5F18FECC5
:10EE900091EE60E00F94F5F1662477244301CC5D98
:10EEA000DE4F19821882C452D140D401C301B695F5
:10EEB000A79597958795CA5DDE4F88839983AA8326
:10EEC000BB83C652D140CC5DDE4FA881B981C4520C
:10EED000D1401196CC5DDE4FB983A883C452D14096
:10EEE000CD0162E070E00F9434F2B0E2B093C6005E
:10EEF0008091C00086FFFCCF8091C0008064809329
:10EF0000C000EDE2E093C6008091C00086FFFCCF18
:10EF10008091C00080648093C000F0E2F093C6004E
:10EF20008091C00086FFFCCF8091C00080648093F8
:10EF3000C000CA5DDE4FE880F9800A811B81C6529D
:10EF4000D140BB27A12F902F8F2D0F940DF2CA5DBA
:10EF5000DE4F8881C652D1400F940DF2B0E2FB2EF5
:10EF6000F092C6008091C00086FFFCCF8091C00067
:10EF700080648093C0000DE30093C6008091C000C0
:10EF800086FFFCCF8091C00080648093C00010E2B7
:10EF90001093C6008091C00086FFFCCF8091C00016
:10EFA00080648093C0008BBEF3012791C65DDE4F65
:10EFB0002883CA52D140A22EBB24CC24DD2408943D
:10EFC000611C711C811C911C8BBEF3018791282E42
:10EFD0003324442455240894611C711C811C911C09
:10EFE0008BBEF3013791C55DDE4F3883CB52D140E4
:10EFF0000894611C711C811C911C8BBEF30147910C
:10F00000C45DDE4F4883CC52D140ADEFEA2EAFEF66
:10F01000FA2EAFEF0A2FAFEF1A2F6E0C7F1C801E57
:10F02000911E142D032DF22CEE24EA0CFB1C0C1D5A
:10F030001D1D0F940DF220E22093C6008091C000A8
:10F0400086FFFCCF8091C00080648093C000C65DC5
:10F05000DE4F8881CA52D1400F940DF230E23093D6
:10F06000C6008091C00086FFFCCF8091C000806404
:10F070008093C000C45DDE4F8881CC52D1400F9494
:10F080000DF240E24093C6008091C00086FFFCCFA5
:10F090008091C00080648093C000C55DDE4F888190
:10F0A000CB52D1400F940DF250E25093C6008091A4
:10F0B000C00086FFFCCF8091C00080648093C000B8
:10F0C0008FEFE8168FEFF80680E0080780E018075A
:10F0D00031F484E092EE60E00F94C2F1DFC0D80119
:10F0E000C7018070907CA070B0708050904CA040A0
:10F0F000B040D1F52FEF3FE340E050E0E222F322B1
:10F1000004231523CA5DDE4FA880B980CA80DB8046
:10F11000C652D140AE0CBF1CC01ED11EAA0CBB1CD7
:10F12000CC1CDD1C8EE092EE60E00F94C2F1BB2798
:10F13000A12F902F8F2D0F940DF28E2D0F940DF285
:10F1400030E23093C6008091C00086FFFCCF8091F2
:10F15000C00080648093C0004EE34093C60080915D
:10F16000C00086FFFCCF87C08EE09EEFA0E0B0E03D
:10F17000E822F9220A231B239CE0E91694E9F90608
:10F1800090E0090790E0190709F088C0C45DDE4FE0
:10F19000A881CC52D140EA2EFF2400E010E0102FCD
:10F1A0000F2DFE2CEE24C55DDE4FB881CB52D14031
:10F1B000EB0EF11C011D111DD601C501817090706F
:10F1C000A070B070DC0199278827E80EF91E0A1F8D
:10F1D0001B1F20EF30E040E050E0A222B322C42207
:10F1E000D52241E1AA0CBB1CCC1CDD1C4A95D1F7F1
:10F1F000EA0CFB1C0C1D1D1D81E090E0A0E0B0E0BE
:10F20000282239224A225B2235E1220C331C441C7D
:10F21000551C3A95D1F7E20CF31C041D151D57013E
:10F220006801AA0CBB1CCC1CDD1C85E192EE60E0E1
:10F230000F94C2F1C801AA27BB270F940DF2BB2778
:10F24000A12F902F8F2D0F940DF28E2D0F940DF274
:10F2500090E29093C6008091C00086FFFCCF809121
:10F26000C00080648093C000AEE3A093C60080918C
:10F27000C00086FFFCCF8091C00080648093C000F6
:10F28000C601AA27BB270F940DF2BB27AD2D9C2DDD
:10F290008B2D0F940DF28A2D0F940DF20F94DCF14B
:10F2A000CC5DDE4FE881F981C452D140F99709F471
:10F2B0004DCBF4E0EF2EF12C012D112D6E0C7F1CA7
:10F2C000801E911EF2CD83E093EE62E00F94F5F183
:10F2D0008AE192EE60E00F94C2F18091C00087FF56
:10F2E000FCCF1091C6001F751093C6008091C0001E
:10F2F00086FFFCCF8091C00080648093C0000F9493
:10F30000DCF1812F81548A3108F036C1163409F4BA
:10F3100095C0173490F4133409F44EC0143430F40B
:10F320001134F1F0123409F01DC130C0143409F465
:10F3300059C0153409F016C16BC01A3409F4C4C0A1
:10F340001B3438F4173409F48FC0183409F00AC19B
:10F35000A1C01B3409F4D2C01C3409F003C1E8C0B9
:10F360008FEF81B90DC082B1809582B980E090E0C5
:10F37000E0EDF7E03197F1F70196883C9105C1F790
:10F380008091C00087FFEFCF12B8EFC08FEF84B934
:10F390000DC085B1809585B980E090E0E0EDF7E0A3
:10F3A0003197F1F70196883C9105C1F78091C00033
:10F3B00087FFEFCF15B8D9C08FEF87B90DC088B1DF
:10F3C000809588B980E090E0E0EDF7E03197F1F7C3
:10F3D0000196883C9105C1F78091C00087FFEFCF6F
:10F3E00018B8C3C08FEF8AB90DC08BB180958BB9A7
:10F3F00080E090E0E0EDF7E03197F1F70196883C8E
:10F400009105C1F78091C00087FFEFCF1BB8ADC059
:10F410008FEF8DB90DC08EB180958EB980E090E0F0
:10F42000E0EDF7E03197F1F70196883C9105C1F7DF
:10F430008091C00087FFEFCF1EB897C08FEF80BBD1
:10F440000DC081B3809581BB80E090E0E0EDF7E0F6
:10F450003197F1F70196883C9105C1F78091C00082
:10F4600087FFEFCF11BA81C08FEF83BB0DC084B38C
:10F47000809584BB80E090E0E0EDF7E03197F1F714
:10F480000196883C9105C1F78091C00087FFEFCFBE
:10F4900014BA6BC08FEF809301010FC080910201FD
:10F4A00080958093020180E090E0E0EDF7E03197F5
:10F4B000F1F70196883C9105C1F78091C00087FF64
:10F4C000EDCF1092020151C08FEF809304010FC065
:10F4D0008091050180958093050180E090E0E0ED4A
:10F4E000F7E03197F1F70196883C9105C1F78091DB
:10F4F000C00087FFEDCF1092050137C08FEF8093DA
:10F5000007010FC08091080180958093080180E079
:10F5100090E0E0EDF7E03197F1F70196883C910536
:10F52000C1F78091C00087FFEDCF109208011DC088
:10F530008FEF80930A010FC080910B01809580931B
:10F540000B0180E090E0E0EDF7E03197F1F70196F4
:10F55000883C9105C1F78091C00087FFEDCF1092E4
:10F560000B0103C085E292EEEEC98091C00087FFD7
:10F57000FCCF8091C600EAC988E392EEE4C98CE131
:10F5800091EEE1C988249924933011F1943028F444
:10F59000913089F09230B8F408C0953061F195301F
:10F5A000F0F0963009F048C043C02B3109F042C951
:10F5B00091E06BE13FC96227C15DDE4F2883CF52E6
:10F5C000D14092E037C9B22FA0E0622793E032C960
:10F5D000822F90E0A82BB92B622794E02BC92E3004
:10F5E00009F039C3622795E0C05DDE4F19821882A9
:10F5F000C053D1401FC9E1E0F0E0EC0FFD1FC05D3A
:10F60000DE4F08811981C053D140E00FF11F2083E4
:10F610000F5F1F4FC05DDE4F19830883C053D14079
:10F6200062270A171B0709F005C9D80196E002C92D
:10F63000261709F010C303C0973009F0FBC87724E0
:10F640009981933109F412C19431C8F4963009F4C8
:10F65000D8C0973050F4923009F406C1933009F4C1
:10F660006DC0913009F059C253C0913109F477C08F
:10F67000923108F0BBC0903109F04FC2F5C098310B
:10F6800009F487C0993150F4953109F4EFC09531F0
:10F6900008F4C6C1963109F040C2C2C19A3109F4DA
:10F6A0006CC09A3108F491C09B3109F45BC09D3164
:10F6B00009F033C29D81903359F48F81882311F46E
:10F6C0009EE11CC0813011F091E018C098E916C08D
:10F6D000892F807591F0903539F4E0E0F0E089E011
:10F6E0008093570094910AC0983539F4E3E0F0E034
:10F6F00089E080935700949101C090E01A821B82A8
:10F700008D818C831D829E831F8227E030E009C299
:10F710001A8288E08B8381E48C8386E58D8382E581
:10F720008E8389E48F8383E5888780E589878FE5E9
:10F730008A8782E38B872BE030E0F3C18A818139AD
:10F7400041F0823941F0803911F48FE005C080E04A
:10F7500003C082E001C08AE01A828B8344C0772410
:10F76000739482C08D81882311F48EE12CC0813086
:10F7700011F081E028C088E926C01A82E1E0F0E0BB
:10F7800089E08093570084918B831C8224E030E0D1
:10F79000C8C18B81803589F48C81883039F4E2E0EE
:10F7A000F0E089E08093570084910DC0E0E0F0E044
:10F7B00089E080935700849106C0E3E0F0E089E09F
:10F7C0008093570084911A82DFCF8D81836C99E0FA
:10F7D000E1E0F0E0082E90935700E89507B600FCB2
:10F7E000FDCF1A821B8223E030E09BC180EC8A832C
:10F7F000CE5CDE4F188219821A821B82C253D1401E
:10F800008EC18A8190E0A0E0B0E0582F44273327D2
:10F8100022278B8190E0A0E0B0E0DC0199278827C7
:10F82000282B392B4A2B5B2B8D8190E0A0E0B0E098
:10F83000282B392B4A2B5B2B8C8190E0A0E0B0E089
:10F84000BA2FA92F982F8827282B392B4A2B5B2BCF
:10F85000220F331F441F551FC05EDE4F288339839C
:10F860004A835B83C052D1401A8259C13A81C95C34
:10F87000DE4F3883C753D140CA5CDE4F1882C6536F
:10F88000D1408B81C82EDD24CA5CDE4F488159816E
:10F89000C653D140C42AD52A933109F082C0CE5C28
:10F8A000DE4F88819981AA81BB81C253D1408050AB
:10F8B000904CA340B04030F583E0CE5CDE4FE88052
:10F8C000F9800A811B81C253D140F70100935B008C
:10F8D00080935700E89507B600FCFDCFCE5CDE4F65
:10F8E000088119812A813B81C253D14000501F4FAA
:10F8F0002F4F3F4FCE5CDE4F088319832A833B8313
:10F90000C253D140C05EDE4F488159816A817B81FC
:10F91000C052D140DE011B9631E08C9111962C91A2
:10F9200011971296C75CDE4F2883C953D140C85C3B
:10F93000DE4F1882C853D14090E0C85CDE4FE881AA
:10F94000F981C853D1408E2B9F2B0C01FA01609393
:10F950005B0030935700E89511244E5F5F4F6F4F67
:10F960007F4F0EEFE02E0FEFF02ECE0CDF1CC114F8
:10F97000D10499F685E0C05EDE4F088119812A81A5
:10F980003B81C052D140F80120935B008093570027
:10F99000E89507B600FCFDCF81E180935700E8951C
:10F9A00035C0C05EDE4F88819981AA81BB81C0527B
:10F9B000D140B695A795979587957C018601ABE0D8
:10F9C000AA2EB12CAC0EBD1E0BC0D5016D915D01F0
:10F9D000C7010F947FFE0894E11CF11C01501040F8
:10F9E0000115110591F7A60160E070E0440F551F65
:10F9F000661F771FC05EDE4FE880F9800A811B8199
:10FA0000C052D1404E0D5F1D601F711F1A82C05E33
:10FA1000DE4F488359836A837B83C052D1407FC0C5
:10FA2000FA80C55CDE4FF882CB53D140C65CDE4F16
:10FA30001882CA53D1408B81C82EDD24C65CDE4FAC
:10FA400008811981CA53D140C02AD12A1A828981DA
:10FA5000BE016D5F7F4F843121F59601C05EDE4FA0
:10FA6000E880F9800A811B81C052D1400BBFF701A9
:10FA700087919691DB018C9311969C936E5F7F4FDB
:10FA8000D801C7010296A11DB11DC05EDE4F88835B
:10FA90009983AA83BB83C052D14022503040F1F6F3
:10FAA00036C0C05EDE4F288139814A815B81C052F9
:10FAB000D1400894C108D108760100E010E0089414
:10FAC000C11CD11C0894E11CF11C011D111DE20E8A
:10FAD000F31E041F151F21BDBB27A52F942F832FB5
:10FAE00082BD2F5F3F4F4F4F5F4FF89A80B5DB01CC
:10FAF0008D93BD012E153F054007510761F7C05E8C
:10FB0000DE4F288339834A835B83C052D1409601FC
:10FB10002D5F3F4FFB01108204C080EC8A8322E0FE
:10FB200030E08BE18093C6008091C00086FFFCCF5F
:10FB30008091C00080648093C000C15DDE4FF88179
:10FB4000CF52D140F093C6008091C00086FFFCCF19
:10FB50008091C00080648093C000432F3093C60022
:10FB60008091C00086FFFCCF8091C00080648093AC
:10FB7000C000922F2093C6008091C00086FFFCCF6A
:10FB80008091C00080648093C0008EE08093C600A6
:10FB90008091C00086FFFCCF8091C000806480937C
:10FBA000C00065E1C15DDE4FE880CF52D1406E25D7
:10FBB00069276427FE01319610C090819093C6009A
:10FBC0008091C00086FFFCCF31968091C000806498
:10FBD0008093C0006927215030402115310569F715
:10FBE0006093C6008091C00086FFFCCF8091C0006A
:10FBF00080648093C00085B1805885B9772081F4F6
:10FC0000C15DDE4F0881CF52D1400F5FC15DDE4F35
:10FC10000883CF52D14090E0A0E0B0E00D941AF4F8
:10FC200027982F9880E090E020ED37E0F901319798
:10FC3000F1F7019684369105C9F700008091C00064
:10FC40008D7F8093C00081E180935700E895EE2777
:10FC5000FF270994FFCF90E00D941AF497FB092E2B
:10FC600007260AD077FD04D02ED006D000201AF443
:10FC7000709561957F4F0895F6F7909581959F4F08
:10FC80000895A1E21A2EAA1BBB1BFD010DC0AA1FDD
:10FC9000BB1FEE1FFF1FA217B307E407F50720F0F5
:10FCA000A21BB30BE40BF50B661F771F881F991F70
:10FCB0001A9469F760957095809590959B01AC01B9
:10FCC000BD01CF010895AA1BBB1B51E107C0AA1FAC
:10FCD000BB1FA617B70710F0A61BB70B881F991FED
:10FCE0005A95A9F780959095BC01CD010895F99991
:10FCF000FECF92BD81BDF89A992780B50895262F31
:10FD0000F999FECF1FBA92BD81BD20BD0FB6F89400
:0EFD1000FA9AF99A0FBE01960895F894FFCF63
:00000001FF
