:100000000C9428010C9459010C9459010C94590139
:100010000C9459010C9459010C9459010C945901F8
:100020000C9459010C9459010C9459010C945901E8
:100030000C9459010C9459010C9459010C945901D8
:100040000C9459010C9459010C9459010C945901C8
:100050000C9459010C9459010C9459010C94990475
:100060000C9459010C9463040C9439040C945901B8
:100070000C9459010C9459010C9459010C94590198
:100080000C9459010C9459010C9459010C94590188
:100090000C9459010C9459010C9459010C94590178
:1000A0000C9459010C9459010C9459010C94590168
:1000B0000C9459010C9459010C9459010C94590158
:1000C0000C9459010C9459010C9459010C94590148
:1000D0000C9459010C9459010C9459010C94590138
:1000E0000C9459010C9426030C94E3040C947A01AB
:1000F0000C94F9020C94F5020C94FD020C9430035C
:100100000C942A030C9422030C94DE020C9410022B
:100110000C9404030C94CA010C945D020C94A70186
:100120000C9401030C94B6010C941C030C940E0364
:100130000C94E3020C9418030C94D8010C9414034F
:100140000C940A030C94340300000A0B02090C0DF2
:100150000E0807030401000000000000000000007A
:10016000000000000000000000000000000000008F
:10017000000000001211100000000000000000004C
:10018000000000000000000000000000000000006F
:100190002200250028002B002E003100340002012F
:1001A0000000050108010B010000210024002700C8
:1001B0002A002D0030003300010100000401070176
:1001C0000A010505050507050808080802020202DC
:1001D0000A0A0808040404040101010101010101E3
:1001E0000303030303030303040707070C0C0C0CAE
:1001F0000C0C0C0C02020202060606060606060697
:100200000B0B0B0B0B0B0B0B010210202008081023
:100210002040102040800201020108040201010276
:10022000040810204080804020100804020180044F
:1002300002018040201008040201080402010102AA
:100240000408102040800102040810204080E304CC
:1002500011241FBECFEFD1E2DEBFCDBF00E00CBF47
:1002600019E0A0E0B2E0E0ECF3E100E00BBF02C077
:1002700007900D92A23BB107D9F72BE0A2EBB9E0B2
:1002800001C01D92AC33B207E1F711E0C8E2D1E042
:1002900000E006C021970109802FFE010E94D609C7
:1002A000C732D10780E00807A9F70E9494050C9493
:1002B000DE090C94000090E0FC01E85FFD4F249102
:1002C0008E539E4FFC018491882399F090E0880F13
:1002D000991FFC01E855FE4FA591B491FC01E2572E
:1002E000FE4F859194918FB7F894EC91E22BEC93AB
:1002F0008FBF0895AF92BF92CF92DF92EF92FF929D
:100300000F931F93CF93DF936C017B018B01040F3D
:10031000151FEB015E01AE18BF08C017D10759F0D9
:100320006991D601ED91FC910190F081E02DC6011B
:100330001995892B79F7C501DF91CF911F910F9105
:10034000FF90EF90DF90CF90BF90AF900895FC01A9
:10035000538D448D252F30E0842F90E0821B930B2A
:10036000541710F0CF96089501970895FC01918DD0
:10037000828D981761F0A28DAE0FBF2FB11D5D96D3
:100380008C91928D9F5F9F73928F90E008958FEF75
:100390009FEF0895FC01918D828D981731F0828D29
:1003A000E80FF11D858D90E008958FEF9FEF089580
:1003B000FC01918D228D892F90E0805C9F4F821BE4
:1003C00091098F739927089587E49AE00E94D801D4
:1003D00021E0892B09F420E0822F0895FC01A48DEF
:1003E000A80FB92FB11DA35ABF4F2C91848D90E057
:1003F00001968F739927848FA689B7892C93A0893A
:10040000B1898C91837080648C93938D848D9813C3
:1004100006C00288F389E02D80818F7D8083089556
:10042000EF92FF920F931F93CF93DF93EC0181E044
:10043000888F9B8D8C8D98131AC0E889F9898081EB
:1004400085FF15C09FB7F894EE89FF896083E8891E
:10045000F98980818370806480839FBF81E090E010
:10046000DF91CF911F910F91FF90EF900895F62E9D
:100470000B8D10E00F5F1F4F0F731127E02E8C8D37
:100480008E110CC00FB607FCFACFE889F98980817C
:1004900085FFF5CFCE010E94EE01F1CFEB8DEC0F81
:1004A000FD2FF11DE35AFF4FF0829FB7F8940B8F99
:1004B000EA89FB8980818062CFCFCF93DF93EC0103
:1004C000888D8823B9F0AA89BB89E889F9898C913C
:1004D00085FD03C0808186FD0DC00FB607FCF7CFF8
:1004E0008C9185FFF2CF808185FFEDCFCE010E94F8
:1004F000EE01E9CFDF91CF91089580E090E0892B64
:1005000029F00E94E40181110E94000080E090E047
:10051000892B49F080E090E0892B29F00E940000AF
:1005200081110E94000080E090E0892B49F080E07A
:1005300090E0892B29F00E94000081110E940000A8
:1005400080E090E0892B49F080E090E0892B29F051
:100550000E94000081110C9400000895282F30E0C3
:10056000F901E85BFE4F9491F901E85FFD4F44917A
:100570002E533E4FF9012491222309F435C09923CB
:1005800011F191509231F8F4E92FF0E08827E4530B
:10059000FD4F8F4F0C94D609FD020103DE02F502D8
:1005A000F902E30204030A030E03140318031C03F5
:1005B00022032603E3022A033003340380918000E0
:1005C0008F7780938000E22FF0E0EE0FFF1FE2575D
:1005D000FE4FA591B4918FB7F894EC91611148C08A
:1005E00040954E234C938FBF0895809180008F7D5E
:1005F000E8CF80918000877FE4CF84B58F7784BD7A
:10060000E2CF84B58F7DFBCF8091B0008F77809350
:10061000B000D9CF8091B0008F7DF9CF809190004C
:100620008F7780939000CFCF809190008F7DF9CF0E
:1006300080919000877FF5CF8091A0008F77809385
:10064000A000C1CF8091A0008F7DF9CF8091A00044
:10065000877FF5CF809120018F7780932001B3CFE2
:10066000809120018F7DF9CF80912001877FF5CF88
:100670004E2BB8CF3FB7F8948091B3099091B4094D
:10068000A091B509B091B60926B5A89B05C02F3F2A
:1006900019F00196A11DB11D3FBFBA2FA92F982FA8
:1006A0008827BC01CD01620F711D811D911D42E0A3
:1006B000660F771F881F991F4A95D1F70895CF922B
:1006C000DF92EF92FF920E943A036B017C010E943D
:1006D0003A036C197D098E099F09683E73408105B4
:1006E0009105A8F3FF90EF90DF90CF9008950F93BE
:1006F0001F93CF93DF93C0E9D9E000E012E0888137
:10070000229660E00E94AE02F80180810E5F1F4FCA
:1007100061E00E94AE02F9E0C03ADF0781F7DF91A5
:10072000CF911F910F910895CF92DF92EF92FF9298
:100730000F931F93CF93DF931F921F92CDB7DEB716
:1007400069834A83880F991F00913A0B10913B0BE4
:10075000000F111FE4EEFAE09F01245E3A402017DB
:10076000310714F41192F8CF2981FC01EC51F54FB7
:1007700021838A81808360E08091380B0E94AE02E1
:100780001016110604F501501109F801EC51F54F4E
:10079000E080D090360BC090340B88E0F82E6E2DA0
:1007A000661F6627661F8C2D0E94AE02EE0C61E06C
:1007B0008D2D0E94AE0260E08D2D0E94AE02FA9453
:1007C000F110EDCFDDCF61E08091380B0F900F90ED
:1007D000DF91CF911F910F91FF90EF90DF90CF901D
:1007E0000C94AE02EF92FF920F931F93CF937C0174
:1007F0008C0183E0000F111F8A95E1F70C50154F13
:10080000C1E0F80111928F0140E06C2FC7010E94F6
:100810009403CF5FC930A9F7CF911F910F91FF903B
:10082000EF90089520913A0B30913B0B121613066E
:10083000FCF488309105E1F068307105C9F020E8DA
:1008400030E002C0359527956A95E2F7FC01EC513E
:10085000F54F5089442349F0252B208B61E0680F28
:10086000408990E080E00C94940320952523F5CFF7
:1008700008951F920F920FB60F9211240BB60F928C
:100880002F933F934F935F936F937F938F939F9398
:10089000AF93BF93EF93FF9387E49AE00E94EE013A
:1008A000FF91EF91BF91AF919F918F917F916F9148
:1008B0005F914F913F912F910F900BBE0F900FBE04
:1008C0000F901F9018951F920F920FB60F92112440
:1008D0000BB60F922F938F939F93EF93FF93E0911B
:1008E000570AF091580A8081E0915D0AF0915E0A02
:1008F00082FD1DC090818091600A8F5F8F7320916F
:10090000610A821741F0E091600AF0E0E95BF54F7F
:10091000958F8093600AFF91EF919F918F912F9116
:100920000F900BBE0F900FBE0F901F9018958081F7
:10093000F2CF1F920F920FB60F9211242F933F9375
:100940008F939F93AF93BF938091B7099091B8090C
:10095000A091B909B091BA093091B20923E0230FEF
:100960002D3758F50196A11DB11D2093B209809332
:10097000B7099093B809A093B909B093BA098091C7
:10098000B3099091B409A091B509B091B609019647
:10099000A11DB11D8093B3099093B409A093B5092B
:1009A000B093B609BF91AF919F918F913F912F91D5
:1009B0000F900FBE0F901F90189526E8230F0296F8
:1009C000A11DB11DD2CFCF93DF9310924A0A10928E
:1009D000490A88EE93E0A0E0B0E080934B0A909340
:1009E0004C0AA0934D0AB0934E0A84EA99E0909382
:1009F000480A8093470A85EC90E09093540A8093CC
:100A0000530A84EC90E09093560A8093550A80EC48
:100A100090E09093580A8093570A81EC90E090936D
:100A20005A0A8093590A82EC90E090935C0A809372
:100A30005B0A86EC90E090935E0A80935D0A1092C8
:100A4000600A1092610A1092620A1092630ACBE067
:100A5000D0E0D093350BC093340B8DE090E09093B1
:100A6000370B8093360B8AE090E09093390B80939C
:100A7000380B81E090E090933B0B80933A0B8BE036
:100A80000E945B018091360B0E945B018091380BC4
:100A90000E945B0161E08091380B0E94AE02D0930E
:100AA000350BC093340BE4EFFAE011928BE0E433A2
:100AB000F807D9F7D0E0C0E080913A0B90913B0B5A
:100AC000C817D90774F540E06FE0CE010E94940387
:100AD00080913A0B90913B0BC817D9072CF447E053
:100AE0006BE0CE010E94940340E069E0CE010E94D9
:100AF000940380913A0B90913B0BC817D9071CF4D3
:100B0000CE010E94F20380913A0B90913B0BC817E3
:100B1000D9072CF440E06CE0CE010E9494032196AA
:100B2000CBCFDF91CF910895CF93DF9300D000D04A
:100B30001F921F92CDB7DEB7789484B5826084BDD2
:100B400084B5816084BD85B5826085BD85B58160D1
:100B500085BD80916E00816080936E00109281004F
:100B6000809181008260809381008091810081600A
:100B700080938100809180008160809380008091CB
:100B8000B10084608093B1008091B0008160809357
:100B9000B0008091910082608093910080919100DB
:100BA000816080939100809190008160809390009B
:100BB0008091A10082608093A1008091A10081605A
:100BC0008093A1008091A00081608093A00080911B
:100BD00021018260809321018091210181608093B5
:100BE00021018091200181608093200180917A0011
:100BF000846080937A0080917A00826080937A008A
:100C000080917A00816080937A0080917A00806878
:100C100080937A001092C100E091570AF091580A2F
:100C200082E08083E091530AF091540A1082E091AF
:100C3000550AF091560A8FEC808310925F0AE0917A
:100C40005B0AF0915C0A86E08083E091590AF0919A
:100C50005A0A808180618083E091590AF0915A0A92
:100C6000808188608083E091590AF0915A0A8081DE
:100C700080688083E091590AF0915A0A80818F7DC3
:100C8000808380913A0B90913B0B1816190634F42F
:100C900041E06CE090E080E00E94940380913A0B88
:100CA00090913B0B1816190634F444E06AE090E08A
:100CB00080E00E94940380913A0B90913B0B1816B0
:100CC000190624F490E080E00E94F20300E012E0B4
:100CD00020E939E03A832983E981FA8180813296DB
:100CE000FA83E9830E945B01F80180810E5F1F4F48
:100CF0000E945B0129813A81205A394069F70E949C
:100D000077032FB7F8948091B7099091B809A09113
:100D1000B909B091BA092FBF80933B0A90933C0A5E
:100D2000A0933D0AB0933E0A2FB7F8948091B7097B
:100D30009091B809A091B909B091BA092FBF8093D9
:100D4000430A9093440AA093450AB093460A8FB78A
:100D5000F8948090B7099090B809A090B909B09024
:100D6000BA098FBF80923F0A9092400AA092410A2E
:100D7000B092420AEBEBF9E0FC83EB8320E939E027
:100D80003A8329831E821D8218861F82E981FA8197
:100D900080813296FA83E98361E00E94AE020F817E
:100DA0001885000F111F2D803E80EB80FC80D12C18
:100DB000C12C40903B0A50903C0A60903D0A7090D4
:100DC0003E0A8091430A9091440AA091450AB0914D
:100DD000460A481659066A067B0640F4F801E05FA9
:100DE000F64F80819181F70191838083D301C20105
:100DF00088519C4FAF4FBF4F88159905AA05BB0579
:100E0000C0F4F801E057F74F80819181F701918399
:100E1000808341E0F101E05FF64F80819181892B71
:100E200009F440E06F817885C6010E9412040E9497
:100E30005F03D301C2018053984FAF4FBF4F881556
:100E40009905AA05BB05C0F4F801E05FF74F808162
:100E50009181F7019183808341E0F101E057F74FE1
:100E600080819181892B09F440E06F817885C601EA
:100E70000E9412040E945F03D301C2018854944F60
:100E8000AF4FBF4F88159905AA05BB05C0F4F801FF
:100E9000E057F84F80819181F7019183808341E091
:100EA000F101E05FF74F80819181892B09F440E0E7
:100EB0006F817885C6010E9412040E945F03D301EE
:100EC000C2018056904FAF4FBF4F88159905AA05B4
:100ED000BB05C0F4F801E05FF84F80819181F70114
:100EE0009183808341E0F101E057F84F8081918147
:100EF000892B09F440E06F817885C6010E941204B5
:100F00000E945F03D301C20188579C4EAF4FBF4F71
:100F100088159905AA05BB05C0F4F801E057F94FFB
:100F200080819181F7019183808341E0F101E05F4D
:100F3000F84F80819181892B09F440E06F81788599
:100F4000C6010E9412040E945F03D301C2018059AE
:100F5000984EAF4FBF4F88159905AA05BB05C0F441
:100F6000F801E05FF94F80819181F70191838083DF
:100F700041E0F101E057F94F80819181892B09F41B
:100F800040E06F817885C6010E9412040E945F03D1
:100F9000D301C201885A944EAF4FBF4F88159905AF
:100FA000AA05BB05C0F4F801E057F74F8081918195
:100FB000F7019183808341E0F101E05FF94F808187
:100FC0009181892B09F440E06F817885C6010E94E8
:100FD00012040E945F03D301C201805C904EAF4FA8
:100FE000BF4F88159905AA05BB05C0F4F801E05765
:100FF000FA4F80819181F7019183808341E0F10173
:10100000E057F74F80819181892B09F440E06F818F
:101010007885C6010E9412040E945F03D301C201B9
:10102000885D9C4DAF4FBF4F88159905AA05BB053C
:10103000C0F4F801E05FFA4F80819181F70191835C
:10104000808341E0F101E057FA4F80819181892B43
:1010500009F440E06F817885C6010E9412040E9465
:101060005F03D301C201805F984DAF4FBF4F88151A
:101070009905AA05BB05C0F4F801E057F84F808137
:101080009181F7019183808341E0F101E05FFA4FA4
:1010900080819181892B09F440E06F817885C601B8
:1010A0000E9412040E945F03D301C2018850954D33
:1010B000AF4FBF4F88159905AA05BB05C0F4F801CD
:1010C000E057FB4F80819181F7019183808341E05C
:1010D000F101E057F84F80819181892B09F440E0BC
:1010E0006F817885C6010E9412040E945F03D301BC
:1010F000C2018052914DAF4FBF4F88159905AA0587
:10110000BB05C0F4F801E05FFB4F80819181F701DE
:101110009183808341E0F101E057FB4F8081918111
:10112000892B09F440E06F817885C6010E94120482
:101130000E945F03D301C20188539D4CAF4FBF4F44
:1011400088159905AA05BB05C0F4F801E057FC4FC6
:1011500080819181F7019183808341E0F101E05F1B
:10116000FB4F80819181892B09F440E06F81788564
:10117000C6010E9412040E945F03D301C201805580
:10118000994CAF4FBF4F88159905AA05BB05C0F410
:10119000F801E057FC4F80819181F70191838083B2
:1011A00041E0F101E057FC4F80819181892B09F4E6
:1011B00040E06F817885C6010E9412040E945F039F
:1011C000D301C2018856954CAF4FBF4F8815990582
:1011D000AA05BB05C0F4F801E05FFC4F8081918156
:1011E000F7019183808341E0F101E057FC4F80815A
:1011F0009181892B09F440E06F817885C6010E94B6
:1012000012040E945F03D301C2018058914CAF4F7A
:10121000BF4F88159905AA05BB05C0F4F801E05732
:10122000FA4F80819181F7019183808341E0F10140
:10123000E05FFC4F80819181892B09F440E06F8150
:101240007885C6010E9412040E945F03D301C20187
:1012500088599D4BAF4FBF4F88159905AA05BB050F
:10126000C0F4F801E057FD4F80819181F70191832F
:10127000808341E0F101E057FA4F80819181892B11
:1012800009F440E06F817885C6010E9412040E9433
:101290005F03F0E54F0EF6E45F1E611C711C4814FD
:1012A00059046A047B04C0F4F801E05FF64F8081C2
:1012B0009181F7019183808341E0F101E05FFD4F6F
:1012C00080819181892B09F440E06F817885C60186
:1012D0000E9412040E945F03FFEFCF1ADF0A20E191
:1012E000E20EF11C005F1F4F32E0230E311C88E03C
:1012F000C816D10409F05DCD8BEBC82E89E0D82E3D
:1013000090E9E92E99E0F92EF7017080F2E0EF0EF6
:10131000F11C61E0872D0E94AE0210E000E0F601B2
:10132000E00FF11F80819181019739F460E0F801AD
:10133000E050FE4F80810E94AE020E5F1F4F0031D1
:10134000110569F70E945F0360E0872D0E94AE02DD
:1013500000E012E0F80180810E5F1F4F61E00E9403
:10136000AE0220E132E020173107A1F730E1C30ED1
:10137000D11C80EAE81689E0F80631F60E9477036E
:10138000EF81F8853196F887EF832B813C812E5FC2
:101390003F4F3C832B838D819E8140969E838D831E
:1013A000389709F0F3CC0E947D02BECCEE0FFF1FF0
:1013B000881F8BBF0790F691E02D1994F894FFCF0A
:1013C0002E002F0030003100320033003400350091
:1013D000000000000000000000000000000000000D
:1013E00000000000000001000100000000000000FB
:1013F00000000100010000000000010001000000E9
:1014000000000100010000000000010001000000D8
:1014100000000100010001000100010001000000C6
:1014200000000100010000000000010001000000B8
:1014300000000100010000000000010001000000A8
:101440000000010001000000000001000100000098
:10145000000000000000000000000000000000008C
:101460000000010001000000000000000100010078
:101470000000010001000100000000000100010067
:101480000000010001000100010001000100010055
:101490000000010001000000000001000100010047
:1014A0000000010001000000000000000100010038
:1014B0000000010001000000000000000100010028
:1014C0000000010001000000000000000100010018
:1014D000000000000000000000000000000000000C
:1014E00000000000010001000100010000000000F8
:1014F00000000000000001000100000000000000EA
:1015000000000000000001000100000000000000D9
:1015100000000000000001000100000000000000C9
:1015200000000000000001000100000000000000B9
:1015300000000000000001000100000000000000A9
:101540000000000001000100010001000000000097
:10155000000000000000000000000000000000008B
:101560000000000001000100010001000000000077
:101570000000010001000000000001000100000067
:101580000000010001000000000000000000000059
:101590000000010001000000000000000000000049
:1015A0000000010001000000000000000000000039
:1015B0000000010001000000000001000100000027
:1015C0000000000001000100010001000000000017
:1015D000000000000000000000000000000000000B
:1015E00000000100010001000100010001000000F5
:1015F00000000100010000000000000000000000E9
:1016000000000100010000000000000000000000D8
:1016100000000100010001000100010000000000C5
:1016200000000100010000000000000000000000B8
:1016300000000100010000000000000000000000A8
:101640000000010001000100010001000100000094
:10165000000000000000000000000000000000008A
:101660000000000001000100010001000000000076
:101670000000010001000000000001000100000066
:101680000000010001000000000000000000000058
:101690000000000001000100010001000000000046
:1016A0000000000000000000000001000100000038
:1016B0000000010001000000000001000100000026
:1016C0000000000001000100010000000000000017
:1016D000000000000000000000000000000000000A
:1016E00000000000000000000100010000000000F8
:1016F00000000000000001000100010000000000E7
:1017000000000000010000000100010000000000D6
:1017100000000100000000000100010000000000C6
:1017200000000100010001000100010001000000B3
:1017300000000000000000000100010000000000A7
:101740000000000000000000010001000000000097
:101750000000000000000000000000000000000089
:101760000000000001000100010001000000000075
:101770000000010001000000000001000100000065
:101780000000010001000000000001000100000055
:101790000000010001000000000001000100000045
:1017A0000000010001000000000001000100000035
:1017B0000000010001000000000001000000000026
:1017C0000000000001000100010001000000000015
:1017D0000000000000000000000000000000000009
:1017E00000000100010000000000010001000000F5
:1017F00000000100010000000000010001000000E5
:1018000000000100010000000000010001000000D4
:1018100000000100010000000000010001000000C4
:1018200000000100010000000000010001000000B4
:1018300000000100010000000000010001000000A4
:101840000000000001000100010001000100000093
:101850000000000000000000000000000000000088
:101860000000010001000100010001000000000073
:101870000000010001000000000001000100000064
:101880000000010001000000000001000100000054
:101890000000010001000100010001000000000043
:1018A0000000010001000100010000000000000034
:1018B0000000010001000000010001000000000024
:1018C0000000010001000000000001000100000014
:1018D0000000000000000000000000000000000008
:1018E00000000000010001000100010000000000F4
:1018F00000000100010000000000010001000000E4
:1019000000000100010000000000000000000000D5
:1019100000000100010000000000000000000000C5
:1019200000000100010000000100010001000000B2
:1019300000000100010000000000010001000000A3
:101940000000000001000100010000000000000094
:101950000000000000000000000000000000000087
:101960000000000000000000000000000000000077
:101970000000000000000000000000000000000067
:101980000000010001000100010001000100000051
:101990000000010001000100010001000100000041
:1019A0000000000000000000000000000000000037
:1019B0000000000000000000000000000000000027
:1019C0000000000000000000000000000000000017
:1019D0000000000000000000000000000000000007
:1019E00000000000000000000100000000000000F6
:1019F00000000000000001000100000000000000E5
:101A000000000000010001000100000000000000D3
:101A100000000000000001000100000000000000C4
:101A200000000000000001000100000000000000B4
:101A300000000000000001000100000000000000A4
:101A40000000010001000100010001000100000090
:101A50000000000000000000000000000000000086
:101A60000000010001000100010001000000000071
:101A70000000010001000000000001000100000062
:101A80000000010001000000000001000100000052
:101A90000000010001000000000001000100000042
:101AA0000000010001000100010001000000000031
:101AB0000000010001000000000000000000000024
:101AC0000000010001000000000000000000000014
:101AD0000000000000000000000000000000000006
:101AE00000000000000000000000000000000000F6
:101AF00000000000010001000000010001000000E2
:101B000000000000000001000100010000000000D2
:101B100000000100010001000100010001000100BE
:101B200000000000000001000100010000000000B2
:101B300000000000010001000000010001000000A1
:101B40000000000000000000000000000000000095
:101B500016001700180019001A001B001C001D00B9
:101B60000000000010027A01A7015D02D801B60151
:021B7000CA01A8
:00000001FF
