:100000000C9428010C9459010C9459010C94590139
:100010000C9459010C9459010C9459010C945901F8
:100020000C9459010C9459010C9459010C945901E8
:100030000C9459010C9459010C9459010C945901D8
:100040000C9459010C9459010C9459010C945901C8
:100050000C9459010C9459010C9459010C942105EC
:100060000C9459010C94EB040C94C1040C945901A8
:100070000C9459010C9459010C9459010C94590198
:100080000C9459010C9459010C9459010C94590188
:100090000C9459010C9459010C9459010C94590178
:1000A0000C9459010C9459010C9459010C94590168
:1000B0000C9459010C9459010C9459010C94590158
:1000C0000C9459010C9459010C9459010C94590148
:1000D0000C9459010C9459010C9459010C94590138
:1000E0000C9459010C945D020C9410020C94FD02C6
:1000F0000C941C030C94B6010C9414030C942A0366
:100100000C946B050C94F5020C947A010C94260364
:100110000C94E3020C9404030C94CA010C94D801CF
:100120000C9430030C940A030C9422030C941803CF
:100130000C94A7010C94DE020C9401030C940E03A2
:100140000C94F9020C94340300000A0B02090C0D04
:100150000E0807030401000000000000000000007A
:10016000000000000000000000000000000000008F
:10017000000000001211100000000000000000004C
:10018000000000000000000000000000000000006F
:100190002200250028002B002E003100340002012F
:1001A0000000050108010B010000210024002700C8
:1001B0002A002D0030003300010100000401070176
:1001C0000A010505050507050808080802020202DC
:1001D0000A0A0808040404040101010101010101E3
:1001E0000303030303030303040707070C0C0C0CAE
:1001F0000C0C0C0C02020202060606060606060697
:100200000B0B0B0B0B0B0B0B010210202008081023
:100210002040102040800201020108040201010276
:10022000040810204080804020100804020180044F
:1002300002018040201008040201080402010102AA
:1002400004081020408001020408102040806B0543
:1002500011241FBECFEFD1E2DEBFCDBF00E00CBF47
:1002600018E0A0E0B2E0E4E4F0E100E00BBF02C07F
:1002700007900D92A63DB107D9F729E0A6EDB8E0A9
:1002800001C01D92A43DB207E1F711E0C8E2D1E040
:1002900000E006C021970109802FFE010E94180886
:1002A000C732D10780E00807A9F70E941C060C940A
:1002B00020080C94000090E0FC01E85FFD4F2491C1
:1002C0008E539E4FFC018491882399F090E0880F13
:1002D000991FFC01E855FE4FA591B491FC01E2572E
:1002E000FE4F859194918FB7F894EC91E22BEC93AB
:1002F0008FBF0895AF92BF92CF92DF92EF92FF929D
:100300000F931F93CF93DF936C017B018B01040F3D
:10031000151FEB015E01AE18BF08C017D10759F0D9
:100320006991D601ED91FC910190F081E02DC6011B
:100330001995892B79F7C501DF91CF911F910F9105
:10034000FF90EF90DF90CF90BF90AF900895FC01A9
:10035000538D448D252F30E0842F90E0821B930B2A
:10036000541710F0CF96089501970895FC01918DD0
:10037000828D981761F0A28DAE0FBF2FB11D5D96D3
:100380008C91928D9F5F9F73928F90E008958FEF75
:100390009FEF0895FC01918D828D981731F0828D29
:1003A000E80FF11D858D90E008958FEF9FEF089580
:1003B000FC01918D228D892F90E0805C9F4F821BE4
:1003C00091098F73992708958FED98E00E94D801C5
:1003D00021E0892B09F420E0822F0895FC01A48DEF
:1003E000A80FB92FB11DA35ABF4F2C91848D90E057
:1003F00001968F739927848FA689B7892C93A0893A
:10040000B1898C91837080648C93938D848D9813C3
:1004100006C00288F389E02D80818F7D8083089556
:10042000EF92FF920F931F93CF93DF93EC0181E044
:10043000888F9B8D8C8D98131AC0E889F9898081EB
:1004400085FF15C09FB7F894EE89FF896083E8891E
:10045000F98980818370806480839FBF81E090E010
:10046000DF91CF911F910F91FF90EF900895F62E9D
:100470000B8D10E00F5F1F4F0F731127E02E8C8D37
:100480008E110CC00FB607FCFACFE889F98980817C
:1004900085FFF5CFCE010E94EE01F1CFEB8DEC0F81
:1004A000FD2FF11DE35AFF4FF0829FB7F8940B8F99
:1004B000EA89FB8980818062CFCFCF93DF93EC0103
:1004C000888D8823B9F0AA89BB89E889F9898C913C
:1004D00085FD03C0808186FD0DC00FB607FCF7CFF8
:1004E0008C9185FFF2CF808185FFEDCFCE010E94F8
:1004F000EE01E9CFDF91CF91089580E090E0892B64
:1005000029F00E94E40181110E94000080E090E047
:10051000892B49F080E090E0892B29F00E940000AF
:1005200081110E94000080E090E0892B49F080E07A
:1005300090E0892B29F00E94000081110E940000A8
:1005400080E090E0892B49F080E090E0892B29F051
:100550000E94000081110C9400000895282F30E0C3
:10056000F901E85BFE4F9491F901E85FFD4F44917A
:100570002E533E4FF9012491222309F435C09923CB
:1005800011F191509231F8F4E92FF0E08827E4530B
:10059000FD4F8F4F0C941808FD020103DE02F50297
:1005A000F902E30204030A030E03140318031C03F5
:1005B00022032603E3022A033003340380918000E0
:1005C0008F7780938000E22FF0E0EE0FFF1FE2575D
:1005D000FE4FA591B4918FB7F894EC91611148C08A
:1005E00040954E234C938FBF0895809180008F7D5E
:1005F000E8CF80918000877FE4CF84B58F7784BD7A
:10060000E2CF84B58F7DFBCF8091B0008F77809350
:10061000B000D9CF8091B0008F7DF9CF809190004C
:100620008F7780939000CFCF809190008F7DF9CF0E
:1006300080919000877FF5CF8091A0008F77809385
:10064000A000C1CF8091A0008F7DF9CF8091A00044
:10065000877FF5CF809120018F7780932001B3CFE2
:10066000809120018F7DF9CF80912001877FF5CF88
:100670004E2BB8CF3FB7F8948091DB089091DC08FF
:10068000A091DD08B091DE0826B5A89B05C02F3FDC
:1006900019F00196A11DB11D3FBFBA2FA92F982FA8
:1006A0008827BC01CD01620F711D811D911D42E0A3
:1006B000660F771F881F991F4A95D1F708958F926B
:1006C0009F92AF92BF92CF92DF92EF92FF924B0137
:1006D0005C010E943A036B017C010E943A036C1991
:1006E0007D098E099F09683E734081059105A8F335
:1006F00021E0821A9108A108B10888EEC80E83E0B3
:10070000D81EE11CF11C81149104A104B10429F745
:10071000FF90EF90DF90CF90BF90AF909F908F9021
:100720000895EF92FF920F931F93CF93DF938C0165
:10073000C6E160E08C2F0E94AE027801D0E2F701A2
:10074000819191917F01019721F461E08D2F0E94A9
:10075000AE02DF5FD83299F762E070E080E090E0AF
:100760000E945F0361E08C2F0E94AE02D0E260E045
:100770008D2F0E94AE02DF5FD832C9F7CF5F005FD6
:100780001F4FCE31B1F6DF91CF911F910F91FF90A6
:10079000EF900895CF92DF92EF92FF920F931F9305
:1007A000CF93DF931F921F92CDB7DEB769834A8341
:1007B000880F991F0091D2091091D309000F111FC2
:1007C000ECE7F9E09F012C5739402017310714F46A
:1007D0001192F8CF2981FC01E458F64F21838A81D8
:1007E000808360E08091D0090E94AE02101611064D
:1007F00004F501501109F801E458F64FE080D0905B
:10080000CE09C090CC0988E0F82E6E2D661F6627B1
:10081000661F8C2D0E94AE02EE0C61E08D2D0E94B1
:10082000AE0260E08D2D0E94AE02FA94F110EDCF81
:10083000DDCF61E08091D0090F900F90DF91CF91D3
:100840001F910F91FF90EF90DF90CF900C94AE022C
:10085000EF92FF920F931F93CF937C018C0183E063
:10086000000F111F8A95E1F70457164FC1E0F801F8
:1008700011928F0140E06C2FC7010E94CA03CF5F25
:10088000C930A9F7CF911F910F91FF90EF90089574
:100890008F929F92AF92BF92CF92DF92EF92FF9290
:1008A0000F931F93CF93DF93CDB7DEB7A1970FB60A
:1008B000F894DEBF0FBECDBF6C01F12CE12C8AE0B5
:1008C000882E912CA12CB12C8091D2099091D30922
:1008D0001816190664F4F6014081F701E458F64F42
:1008E000408B61E06E0D90E080E00E94CA03F6014B
:1008F00021916F0130E050E040E019A28E010F5DC0
:100900001F4FCA01B901A50194010E94F607605D5D
:10091000F80162938F01211531054105510589F7D1
:10092000309761F001900020E9F73197AF01401B4B
:10093000510BB8018FED98E00E947A0142E050E03F
:1009400062ED78E08FED98E00E947A01FFEFEF1AF8
:10095000FF0A88E0E816F10409F0B6CFA1960FB6B9
:10096000F894DEBF0FBECDBFDF91CF911F910F91E5
:10097000FF90EF90DF90CF90BF90AF909F908F90BF
:1009800008951F920F920FB60F9211240BB60F927B
:100990002F933F934F935F936F937F938F939F9387
:1009A000AF93BF93EF93FF938FED98E00E94EE011A
:1009B000FF91EF91BF91AF919F918F917F916F9137
:1009C0005F914F913F912F910F900BBE0F900FBEF3
:1009D0000F901F9018951F920F920FB60F9211242F
:1009E0000BB60F922F938F939F93EF93FF93E0910A
:1009F000EF08F091F0088081E091F508F091F60899
:100A000082FD1DC090818091F8088F5F8F732091C7
:100A1000F908821741F0E091F808F0E0E152F74F51
:100A2000958F8093F808FF91EF919F918F912F916F
:100A30000F900BBE0F900FBE0F901F9018958081E6
:100A4000F2CF1F920F920FB60F9211242F933F9364
:100A50008F939F93AF93BF938091D7089091D808BD
:100A6000A091D908B091DA083091D60823E0230F7D
:100A70002D3758F50196A11DB11D2093D6088093FE
:100A8000D7089093D808A093D908B093DA0880913A
:100A9000DB089091DC08A091DD08B091DE0801969A
:100AA000A11DB11D8093DB089093DC08A093DD08A5
:100AB000B093DE08BF91AF919F918F913F912F919D
:100AC0000F900FBE0F901F90189526E8230F0296E7
:100AD000A11DB11DD2CFCF93DF931092E2081092E7
:100AE000E10888EE93E0A0E0B0E08093E308909303
:100AF000E408A093E508B093E60884EC98E09093AE
:100B0000E0088093DF0885EC90E09093EC088093F8
:100B1000EB0884EC90E09093EE088093ED0880EC75
:100B200090E09093F0088093EF0881EC90E0909330
:100B3000F2088093F10882EC90E09093F40880939F
:100B4000F30886EC90E09093F6088093F5081092F5
:100B5000F8081092F9081092FA081092FB08C3E303
:100B6000D0E0D093CD09C093CC0984E390E090937A
:100B7000CF098093CE0985E390E09093D1098093CB
:100B8000D00981E090E09093D3098093D20983E368
:100B90000E945B018091CE090E945B018091D00987
:100BA0000E945B0161E08091D0090E94AE02D09367
:100BB000CD09C093CC09ECE8F9E0119289E0EC3C56
:100BC000F807D9F7D0E0C0E08091D2099091D3091D
:100BD000C817D90774F540E06FE0CE010E94CA0340
:100BE0008091D2099091D309C817D9072CF447E016
:100BF0006BE0CE010E94CA0340E069E0CE010E9492
:100C0000CA038091D2099091D309C817D9071CF45F
:100C1000CE010E9428048091D2099091D309C8176F
:100C2000D9072CF440E06CE0CE010E94CA03219663
:100C3000CBCFDF91CF910895789484B5826084BD45
:100C400084B5816084BD85B5826085BD85B58160D0
:100C500085BD80916E00816080936E00109281004E
:100C60008091810082608093810080918100816009
:100C700080938100809180008160809380008091CA
:100C8000B10084608093B1008091B0008160809356
:100C9000B0008091910082608093910080919100DA
:100CA000816080939100809190008160809390009A
:100CB0008091A10082608093A1008091A100816059
:100CC0008093A1008091A00081608093A00080911A
:100CD00021018260809321018091210181608093B4
:100CE00021018091200181608093200180917A0010
:100CF000846080937A0080917A00826080937A0089
:100D000080917A00816080937A0080917A00806877
:100D100080937A001092C100E091EF08F091F00802
:100D200082E08083E091EB08F091EC081082E09182
:100D3000ED08F091EE088FEC80831092F708E091B7
:100D4000F308F091F40886E08083E091F108F091D7
:100D5000F208808180618083E091F108F091F208CF
:100D6000808188608083E091F108F091F2088081B1
:100D700080688083E091F108F091F20880818F7D96
:100D80008083C6E18C2F0E945B01CF5FCE31D1F70B
:100D9000C0E28C2F0E945B01CF5FC832D1F78091F7
:100DA000D2099091D3091816190634F441E06CE089
:100DB00090E080E00E94CA038091D2099091D3090B
:100DC0001816190634F444E06AE090E080E00E94CE
:100DD000CA038091D2099091D3091816190624F4F8
:100DE00090E080E00E94280480E498E00E94910353
:100DF00060E570E080E090E00E945F0380EC97E0A7
:100E00000E94910360E570E080E090E00E945F0343
:100E100080E497E00E94910360E570E080E090E05C
:100E20000E945F0380EC96E00E94910360E570E011
:100E300080E090E00E945F0380E496E00E949103CE
:100E400060E570E080E090E00E945F0380EC95E058
:100E50000E94910360E570E080E090E00E945F03F3
:100E600080E495E00E94910360E570E080E090E00E
:100E70000E945F0380EC94E00E94910360E570E0C3
:100E800080E090E00E945F0380EB94E00E944804C1
:100E900062E370E080E090E00E945F0380E394E012
:100EA0000E94910362E370E080E090E00E945F03A3
:100EB00080E294E00E94480462E370E080E090E009
:100EC0000E945F0380EA93E00E94910362E370E076
:100ED00080E090E00E945F0380E993E00E94480474
:100EE00062E370E080E090E00E945F0380E193E0C5
:100EF0000E94910362E370E080E090E00E945F0353
:100F000080E093E00E94480460E570E080E090E0BB
:100F10000E945F0380E892E00E94910360E570E028
:100F200080E090E00E945F0380E792E00E94480426
:100F300060E570E080E090E00E945F0380E692E070
:100F40000E94480460E570E080E090E00E945F034A
:100F500080E592E00E94480460E570E080E090E067
:100F60000E945F0380E492E00E94480460E570E024
:100F700080E090E00E945F0380E392E00E944804DA
:100F800060E570E080E090E00E945F0380E292E024
:100F90000E94480460E570E080E090E00E945F03FA
:100FA00080E192E00E94480460E570E080E090E01B
:100FB0000E945F0380E092E00E94480460E570E0D8
:100FC00080E090E00E945F038091D2099091D30964
:100FD0001816190644F41092930940E068E090E076
:100FE00080E00E94CA030E947D02FECEA1E21A2E7A
:100FF000AA1BBB1BFD010DC0AA1FBB1FEE1FFF1FBD
:10100000A217B307E407F50720F0A21BB30BE40B0C
:10101000F50B661F771F881F991F1A9469F7609553
:101020007095809590959B01AC01BD01CF0108950D
:10103000EE0FFF1F881F8BBF0790F691E02D1994CC
:04104000F894FFCF52
:101044000000000000000054000000000000000048
:101054000000000000005438000000000000000000
:1010640000000000005438100000000000000000E0
:101074000000000054381038000000000000000098
:101084000000005438103854000000000000000034
:101094000000543810385400000000000000000024
:1010A4000054381038540000000000000000000014
:1010B4005438103854000000000000000000000004
:1010C400000000000000000000000000000000001C
:1010D400000000000000000000000000000000000C
:1010E40000000000000000000000000000000000FC
:1010F40000000000000000000000000000000000EC
:1011040000000000000000000000000000000000DB
:1011140000000000000000000000000000000000CB
:1011240000000000000000000000000000000000BB
:1011340000000100000001000000010000000000A8
:1011440038103854000000000000000000000000C7
:10115400000000000000000000000000000000008B
:10116400000000000000000000000000000000007B
:10117400000000000000000000000000000000006B
:10118400000000000000000000000000000000005B
:10119400000000000000000000000000000000004B
:1011A400000000000000000000000000000000003B
:1011B4000000010000000100000001000000000028
:1011C4000000000001000100010000000000000018
:1011D400103854000000000000000000000000006F
:1011E40000000000000000000000000000000000FB
:1011F40000000000000000000000000000000000EB
:1012040000000000000000000000000000000000DA
:1012140000000000000000000000000000000000CA
:1012240000000000000000000000000000000000BA
:1012340000000100000001000000010000000000A7
:101244000000000001000100010000000000000097
:101254000000000000000100000000000000000089
:1012640038540000000000000000000000000000EE
:10127400000000000000000000000000000000006A
:10128400000000000000000000000000000000005A
:10129400000000000000000000000000000000004A
:1012A400000000000000000000000000000000003A
:1012B4000000010000000100000001000000000027
:1012C4000000000001000100010000000000000017
:1012D4000000000000000100000000000000000009
:1012E40000000000010001000100000000000000F7
:1012F4005400000000000000000000000000000096
:1013040000000000000000000000000000000000D9
:1013140000000000000000000000000000000000C9
:1013240000000000000000000000000000000000B9
:1013340000000100000001000000010000000000A6
:101344000000000001000100010000000000000096
:101354000000000000000100000000000000000088
:101364000000000001000100010000000000000076
:101374000000010000000100000001000000000066
:101384000000000000000000000000000000000059
:101394000000000000000000000000000000000049
:1013A4000000010000000100000001000000000036
:1013B4000000000001000100010000000000000026
:1013C4000000000000000100000000000000000018
:1013D4000000000001000100010000000000000006
:1013E40000000100000001000000010000000000F6
:1013F40000000000000000000000000000000000E9
:1014040000000000000000000000000000000000D8
:1014140000000100000001000000010000000000C5
:1014240000000000010001000100000000000000B5
:1014340000000000000001000000000000000000A7
:101444000000000001000100010000000000000095
:101454000000010000000100000001000000000085
:101464000000000000000000000000000000000078
:101474000000000000000000000000000000000068
:101484000000010000000100000001000000000055
:101494000000000001000100010000000000000045
:1014A4000000000000000100000000000000000037
:1014B4000000000001000100010000000000000025
:1014C4000000010000000100000001000000000015
:1014D4000000000000000000000000000000000008
:1014E40000000000000000000000000000000000F8
:1014F40000000000000000000000000000000000E8
:1015040000000000010001000100000000000000D4
:1015140000000000000001000000000000000000C6
:1015240000000000010001000100000000000000B4
:1015340000000100000001000000010000000000A4
:101544000000000000000000000000000000000097
:101554000000000000000000000000000000000087
:101564000000000000000000000000000000000077
:101574000000000000000000000000000000000067
:101584000000000000000100000000000000000056
:101594000000000001000100010000000000000044
:1015A4000000010000000100000001000000000034
:1015B4000000000000000000000000000000000027
:1015C4000000000000000000000000000000000017
:1015D4000000000000000000000000000000000007
:1015E40000000000000000000000000000000000F7
:1015F40000000000000000000000000000000000E7
:1016040000000000010001000100000000000000D3
:1016140000000100000001000000010000000000C3
:1016240000000000000000000000000000000000B6
:1016340000000000000000000000000000000000A6
:101644000000000000000000000000000000000096
:101654000000000000000000000000000000000086
:101664000000000000000000000000000000000076
:101674000000000000000000000000000000000066
:101684000000010000000100000001000000000053
:101694000000000000000000000000000000000046
:1016A4000000000000000000000000000000000036
:1016B4000000000000000000000000000000000026
:1016C4000000000000000000000000000000000016
:1016D4000000000000000000000000000000000006
:1016E40000000000000000000000000000000000F6
:1016F40000000000000000000000000000000000E6
:101704000000000010027A01A7015D02D801B601B1
:06171400CA010D0A0000ED
:00000001FF
