:100000000C941A010C944B010C944B010C944B0171
:100010000C944B010C944B010C944B010C944B0130
:100020000C944B010C944B010C944B010C944B0120
:100030000C944B010C944B010C944B010C944B0110
:100040000C944B010C944B010C944B010C944B0100
:100050000C944B010C944B010C944B010C942B030E
:100060000C944B010C944B010C944B010C944B01E0
:100070000C944B010C944B010C944B010C944B01D0
:100080000C944B010C944B010C944B010C944B01C0
:100090000C944B010C944B010C944B010C944B01B0
:1000A0000C944B010C944B010C944B010C944B01A0
:1000B0000C944B010C944B010C944B010C944B0190
:1000C0000C944B010C944B010C944B010C944B0180
:1000D0000C944B010C944B010C944B010C944B0170
:1000E0000C944B010C94E8010C94CC010C94E001AD
:1000F0000C94C2010C94F2010C94E4010C94DA010A
:100100000C94BF010C94D2010C94B7010C94C8015B
:100110000C941F050C949C010C94EE010C94D601D8
:100120000C94B3010C94A1010C94BB0100000A0BC8
:1001300002090C0D0E080703040100000000000076
:1001400000000000000000000000000000000000AF
:10015000000000000000000012111000000000006C
:10016000000000000000000000000000000000008F
:10017000000000002200250028002B002E00310086
:10018000340002010000050108010B0100002100FC
:10019000240027002A002D00300033000101000058
:1001A000040107010A0105050505070508080808F7
:1001B000020202020A0A08080404040401010101FF
:1001C00001010101030303030303030304070707FA
:1001D0000C0C0C0C0C0C0C0C02020202060606069F
:1001E000060606060B0B0B0B0B0B0B0B010210206C
:1001F000200808102040102040800201020108045D
:1002000002010102040810204080804020100804F0
:100210000201800402018040201008040201080449
:10022000020101020408102040800102040810208D
:1002300040801F0511241FBECFEFD1E2DEBFCDBF2E
:1002400000E00CBF18E0A0E0B2E0E0E3FBE000E07B
:100250000BBF02C007900D92A03CB107D9F729E06F
:10026000A0ECB8E001C01D92A132B207E1F711E0A5
:10027000CAE1D1E000E006C021970109802FFE010C
:100280000E948E05C931D10780E00807A9F70E94B6
:1002900075030C9496050C94000090E0FC01E45169
:1002A000FE4F24918A559E4FFC018491882399F03A
:1002B00090E0880F991FFC01E457FE4FA591B4917F
:1002C000FC01EE58FE4F859194918FB7F894EC9114
:1002D000E22BEC938FBF0895282F30E0F901E45D05
:1002E000FE4F9491F901E451FE4F44912A553E4F3F
:1002F000F9012491222309F435C0992311F1915079
:100300009231F8F4E92FF0E08827E657FE4F8F4F3F
:100310000C948E05BB01BF019C01B301B701A10183
:10032000C201C801CC01D201D601DA01E001E40129
:10033000A101E801EE01F201809180008F778093A6
:100340008000E22FF0E0EE0FFF1FEE58FE4FA59168
:10035000B4918FB7F894EC91611148C040954E2349
:100360004C938FBF0895809180008F7DE8CF80915E
:100370008000877FE4CF84B58F7784BDE2CF84B5DA
:100380008F7DFBCF8091B0008F778093B000D9CF65
:100390008091B0008F7DF9CF809190008F7780930E
:1003A0009000CFCF809190008F7DF9CF8091900009
:1003B000877FF5CF8091A0008F778093A000C1CF79
:1003C0008091A0008F7DF9CF8091A000877FF5CF2D
:1003D000809120018F7780932001B3CF80912001FD
:1003E0008F7DF9CF80912001877FF5CF4E2BB8CF3D
:1003F0003FB7F8948091C5089091C608A091C708AE
:10040000B091C80826B5A89B05C02F3F19F00196EA
:10041000A11DB11D3FBFBA2FA92F982F8827BC015E
:10042000CD01620F711D811D911D42E0660F771F86
:10043000881F991F4A95D1F708958F929F92AF9286
:10044000BF92CF92DF92EF92FF924B015C010E942C
:10045000F8016B017C010E94F8016C197D098E097D
:100460009F09683E734081059105A8F321E0821A37
:100470009108A108B10888EEC80E83E0D81EE11CDF
:10048000F11C81149104A104B10429F7FF90EF90AD
:10049000DF90CF90BF90AF909F908F900895EF9294
:1004A000FF920F931F93CF93DF938C01C6E160E01F
:1004B0008C2F0E946C017801D0E2F701819191911B
:1004C0007F01019721F461E08D2F0E946C01DF5FB5
:1004D000D83299F762E070E080E090E00E941D025F
:1004E00061E08C2F0E946C01D0E260E08D2F0E94B1
:1004F0006C01DF5FD832C9F7CF5F005F1F4FCE318D
:10050000B1F6DF91CF911F910F91FF90EF90089579
:10051000CF92DF92EF92FF920F931F93CF93DF93CF
:100520001F921F92CDB7DEB769834A83880F991F48
:1005300000911F0910912009000F111FE9ECF8E04C
:100540009F01295C38402017310714F41192F8CF2D
:100550002981FC01E753F74F21838A81808360E082
:1005600080911D090E946C011016110604F50150BE
:100570001109F801E753F74FE080D0901B09C090B4
:10058000190988E0F82E6E2D661F6627661F8C2DD0
:100590000E946C01EE0C61E08D2D0E946C0160E008
:1005A0008D2D0E946C01FA94F110EDCFDDCF61E04A
:1005B00080911D090F900F90DF91CF911F910F91A6
:1005C000FF90EF90DF90CF900C946C01EF92FF9230
:1005D0000F931F93CF937C018C0183E0000F111FB9
:1005E0008A95E1F70752174FC1E0F80111928F0188
:1005F00040E06C2FC7010E948802CF5FC930A9F785
:10060000CF911F910F91FF90EF9008950F931F933B
:10061000CF93DF938C01D0E0C0E080911F099091CF
:1006200020091816190674F4F801EC0FFD1F40811B
:10063000FE01E753F74F408B6C2F6F5F90E080E037
:100640000E9488022196C830D10539F7DF91CF91F9
:100650001F910F9108951F920F920FB60F921124C0
:100660002F933F938F939F93AF93BF938091C10834
:100670009091C208A091C308B091C4083091C008FD
:1006800023E0230F2D3758F50196A11DB11D2093AE
:10069000C0088093C1089093C208A093C308B09388
:1006A000C4088091C5089091C608A091C708B09170
:1006B000C8080196A11DB11D8093C5089093C60876
:1006C000A093C708B093C808BF91AF919F918F9135
:1006D0003F912F910F900FBE0F901F90189526E815
:1006E000230F0296A11DB11DD2CF789484B58260EC
:1006F00084BD84B5816084BD85B5826085BD85B5C6
:10070000816085BD80916E00816080936E00109243
:1007100081008091810082608093810080918100BE
:10072000816080938100809180008160809380004F
:100730008091B10084608093B1008091B0008160AD
:100740008093B000809191008260809391008091AD
:1007500091008160809391008091900081608093EE
:1007600090008091A10082608093A1008091A100FF
:1007700081608093A1008091A00081608093A0009F
:10078000809121018260809321018091210181600B
:1007900080932101809120018160809320018091CC
:1007A0007A00846080937A0080917A0082608093DE
:1007B0007A0080917A00816080937A0080917A003B
:1007C000806880937A001092C100C6E18C2F0E944D
:1007D0004D01CF5FCE31D1F7C0E28C2F0E944D0189
:1007E000CF5FC832D1F780911F0990912009181668
:1007F000190634F441E06CE090E080E00E94880249
:1008000080911F09909120091816190634F444E0CC
:100810006AE090E080E00E94880280911F09909138
:1008200020091816190624F490E080E00E94E602E0
:10083000C0E0D0E080E498E00E944F0260E570E004
:1008400080E090E00E941D0280EC97E00E944F0241
:1008500060E570E080E090E00E941D0280E497E097
:100860000E944F0260E570E080E090E00E941D026F
:1008700080EC96E00E944F0260E570E080E090E03E
:100880000E941D0280E496E00E944F0260E570E045
:1008900080E090E00E941D0280EC95E00E944F02F3
:1008A00060E570E080E090E00E941D0280E495E049
:1008B0000E944F0260E570E080E090E00E941D021F
:1008C00080EC94E00E944F0260E570E080E090E0F0
:1008D0000E941D0280EB94E00E94060362E370E038
:1008E00080E090E00E941D0280E394E00E944F02AD
:1008F00062E370E080E090E00E941D0280E294E0FC
:100900000E94060362E370E080E090E00E941D0216
:1009100080EA93E00E944F0262E370E080E090E0A2
:100920000E941D0280E993E00E94060362E370E0EA
:1009300080E090E00E941D0280E193E00E944F025F
:1009400062E370E080E090E00E941D0280E093E0AE
:100950000E94060360E570E080E090E00E941D02C6
:1009600080E892E00E944F0260E570E080E090E055
:100970000E941D0280E792E00E94060360E570E09D
:1009800080E090E00E941D0280E692E00E94060353
:1009900060E570E080E090E00E941D0280E592E05A
:1009A0000E94060360E570E080E090E00E941D0276
:1009B00080E492E00E94060360E570E080E090E051
:1009C0000E941D0280E392E00E94060360E570E051
:1009D00080E090E00E941D0280E292E00E94060307
:1009E00060E570E080E090E00E941D0280E192E00E
:1009F0000E94060360E570E080E090E00E941D0226
:100A000080E092E00E94060360E570E080E090E004
:100A10000E941D0280911F09909120091816190645
:100A200044F41092E00840E068E090E080E00E942A
:100A30008802209709F4FECE0E940000FBCECF93DF
:100A4000DF93C3E3D0E0D0931A09C093190984E37C
:100A500090E090931C0980931B0985E390E09093AC
:100A60001E0980931D0981E090E0909320098093F6
:100A70001F0983E30E944D0180911B090E944D01D3
:100A800080911D090E944D0161E080911D090E9425
:100A90006C01D0931A09C0931909E9EDF8E011929D
:100AA00089E0E931F807D9F7D0E0C0E080911F096B
:100AB00090912009C817D90774F540E06FE0CE0186
:100AC0000E94880280911F0990912009C817D907B8
:100AD0002CF447E06BE0CE010E94880240E069E020
:100AE000CE010E94880280911F0990912009C817A9
:100AF000D9071CF4CE010E94E60280911F09909153
:100B00002009C817D9072CF440E06CE0CE010E9400
:100B100088022196CBCFDF91CF910895EE0FFF1F72
:100B2000881F8BBF0790F691E02D1994F894FFCFA2
:100B30000000000000000054000000000000000061
:100B40000000000000005438000000000000000019
:100B500000000000005438100000000000000000F9
:100B600000000000543810380000000000000000B1
:100B7000000000543810385400000000000000004D
:100B8000000054381038540000000000000000003D
:100B9000005438103854000000000000000000002D
:100BA000543810385400000000000000000000001D
:100BB0000000000000000000000000000000000035
:100BC0000000000000000000000000000000000025
:100BD0000000000000000000000000000000000015
:100BE0000000000000000000000000000000000005
:100BF00000000000000000000000000000000000F5
:100C000000000000000000000000000000000000E4
:100C100000000000000000000000000000000000D4
:100C200000000100000001000000010000000000C1
:100C300038103854000000000000000000000000E0
:100C400000000000000000000000000000000000A4
:100C50000000000000000000000000000000000094
:100C60000000000000000000000000000000000084
:100C70000000000000000000000000000000000074
:100C80000000000000000000000000000000000064
:100C90000000000000000000000000000000000054
:100CA0000000010000000100000001000000000041
:100CB0000000000001000100010000000000000031
:100CC0001038540000000000000000000000000088
:100CD0000000000000000000000000000000000014
:100CE0000000000000000000000000000000000004
:100CF00000000000000000000000000000000000F4
:100D000000000000000000000000000000000000E3
:100D100000000000000000000000000000000000D3
:100D200000000100000001000000010000000000C0
:100D300000000000010001000100000000000000B0
:100D400000000000000001000000000000000000A2
:100D50003854000000000000000000000000000007
:100D60000000000000000000000000000000000083
:100D70000000000000000000000000000000000073
:100D80000000000000000000000000000000000063
:100D90000000000000000000000000000000000053
:100DA0000000010000000100000001000000000040
:100DB0000000000001000100010000000000000030
:100DC0000000000000000100000000000000000022
:100DD0000000000001000100010000000000000010
:100DE00054000000000000000000000000000000AF
:100DF00000000000000000000000000000000000F3
:100E000000000000000000000000000000000000E2
:100E100000000000000000000000000000000000D2
:100E200000000100000001000000010000000000BF
:100E300000000000010001000100000000000000AF
:100E400000000000000001000000000000000000A1
:100E5000000000000100010001000000000000008F
:100E6000000001000000010000000100000000007F
:100E70000000000000000000000000000000000072
:100E80000000000000000000000000000000000062
:100E9000000001000000010000000100000000004F
:100EA000000000000100010001000000000000003F
:100EB0000000000000000100000000000000000031
:100EC000000000000100010001000000000000001F
:100ED000000001000000010000000100000000000F
:100EE0000000000000000000000000000000000002
:100EF00000000000000000000000000000000000F2
:100F000000000100000001000000010000000000DE
:100F100000000000010001000100000000000000CE
:100F200000000000000001000000000000000000C0
:100F300000000000010001000100000000000000AE
:100F4000000001000000010000000100000000009E
:100F50000000000000000000000000000000000091
:100F60000000000000000000000000000000000081
:100F7000000001000000010000000100000000006E
:100F8000000000000100010001000000000000005E
:100F90000000000000000100000000000000000050
:100FA000000000000100010001000000000000003E
:100FB000000001000000010000000100000000002E
:100FC0000000000000000000000000000000000021
:100FD0000000000000000000000000000000000011
:100FE0000000000000000000000000000000000001
:100FF00000000000010001000100000000000000EE
:1010000000000000000001000000000000000000DF
:1010100000000000010001000100000000000000CD
:1010200000000100000001000000010000000000BD
:1010300000000000000000000000000000000000B0
:1010400000000000000000000000000000000000A0
:101050000000000000000000000000000000000090
:101060000000000000000000000000000000000080
:10107000000000000000010000000000000000006F
:10108000000000000100010001000000000000005D
:10109000000001000000010000000100000000004D
:1010A0000000000000000000000000000000000040
:1010B0000000000000000000000000000000000030
:1010C0000000000000000000000000000000000020
:1010D0000000000000000000000000000000000010
:1010E0000000000000000000000000000000000000
:1010F00000000000010001000100000000000000ED
:1011000000000100000001000000010000000000DC
:1011100000000000000000000000000000000000CF
:1011200000000000000000000000000000000000BF
:1011300000000000000000000000000000000000AF
:10114000000000000000000000000000000000009F
:10115000000000000000000000000000000000008F
:10116000000000000000000000000000000000007F
:10117000000001000000010000000100000000006C
:10118000000000000000000000000000000000005F
:10119000000000000000000000000000000000004F
:1011A000000000000000000000000000000000003F
:1011B000000000000000000000000000000000002F
:1011C000000000000000000000000000000000001F
:1011D000000000000000000000000000000000000F
:1011E00000000000000000000000000000000000FF
:00000001FF
